toAdmin :  8=FIX.4.2|9=54|35=0|34=25|49=EXEC|52=20231030-16:13:30.214|56=BANZAI|10=211|
