toAdmin :  8=FIX.4.2|9=54|35=0|34=23|49=EXEC|52=20231030-15:29:45.931|56=BANZAI|10=227|
