toAdmin :  8=FIX.4.2|9=54|35=0|34=27|49=EXEC|52=20231030-16:15:25.704|56=BANZAI|10=223|
