2023-11-23 21:22:23,499 INFO [DefaultSessionSchedule.java:87] - [FIX.4.2:EXEC->BANZAI] daily, 00:00:00-UTC - 00:00:00-UTC
2023-11-23 21:22:23,512 INFO [SessionConnector.java:319] - SessionTimer started
2023-11-23 21:22:23,568 INFO [NetworkingOptions.java:117] - Socket option: SocketTcpNoDelay=true
2023-11-23 21:22:23,568 INFO [NetworkingOptions.java:117] - Socket option: SocketSynchronousWrites=false
2023-11-23 21:22:23,568 INFO [NetworkingOptions.java:117] - Socket option: SocketSynchronousWriteTimeout=30000
2023-11-23 21:22:23,575 INFO [AbstractSocketAcceptor.java:118] - Listening for connections at 0.0.0.0/0.0.0.0:9878 for session(s) [FIX.4.2:EXEC->BANZAI]
2023-11-23 21:22:23,576 INFO [SingleThreadedEventHandlingStrategy.java:144] - Started QFJ Message Processor
2023-11-23 21:22:34,181 INFO [Banzai.java:102] - initiating Banzai!
2023-11-23 21:22:35,022 INFO [Banzai.java:104] - Banzai initiated.
2023-11-23 21:22:35,074 INFO [DefaultSessionSchedule.java:87] - [FIX.4.2:BANZAI->EXEC] daily, 00:00:00-UTC - 00:00:00-UTC
2023-11-23 21:22:35,091 INFO [NetworkingOptions.java:117] - Socket option: SocketTcpNoDelay=true
2023-11-23 21:22:35,091 INFO [NetworkingOptions.java:117] - Socket option: SocketSynchronousWrites=false
2023-11-23 21:22:35,091 INFO [NetworkingOptions.java:117] - Socket option: SocketSynchronousWriteTimeout=30000
2023-11-23 21:22:35,148 INFO [SessionConnector.java:319] - SessionTimer started
2023-11-23 21:22:35,149 INFO [SingleThreadedEventHandlingStrategy.java:144] - Started QFJ Message Processor
2023-11-23 21:22:35,153 INFO [AcceptorIoHandler.java:58] - MINA session created: local=/127.0.0.1:9878, class org.apache.mina.transport.socket.nio.NioSocketSession, remote=/127.0.0.1:61647
2023-11-23 21:22:36,167 INFO [BanzaiApplication.java:94] - toAdmin:8=FIX.4.2|9=66|35=A|34=10|49=BANZAI|52=20231123-19:22:36.152|56=EXEC|98=0|108=30|10=007|
2023-11-23 21:22:36,195 INFO [BanzaiApplication.java:94] - toAdmin:8=FIX.4.2|9=104|35=5|34=11|49=BANZAI|52=20231123-19:22:36.195|56=EXEC|58=MsgSeqNum too low, expecting 20 but received 1|10=218|
2023-11-23 21:22:40,217 INFO [AcceptorIoHandler.java:58] - MINA session created: local=/127.0.0.1:9878, class org.apache.mina.transport.socket.nio.NioSocketSession, remote=/127.0.0.1:61649
2023-11-23 21:22:41,149 INFO [BanzaiApplication.java:94] - toAdmin:8=FIX.4.2|9=66|35=A|34=12|49=BANZAI|52=20231123-19:22:41.149|56=EXEC|98=0|108=30|10=011|
2023-11-23 21:22:41,152 INFO [BanzaiApplication.java:94] - toAdmin:8=FIX.4.2|9=104|35=5|34=13|49=BANZAI|52=20231123-19:22:41.152|56=EXEC|58=MsgSeqNum too low, expecting 20 but received 4|10=212|
2023-11-23 21:22:45,263 INFO [AcceptorIoHandler.java:58] - MINA session created: local=/127.0.0.1:9878, class org.apache.mina.transport.socket.nio.NioSocketSession, remote=/127.0.0.1:61650
2023-11-23 21:22:46,156 INFO [BanzaiApplication.java:94] - toAdmin:8=FIX.4.2|9=66|35=A|34=14|49=BANZAI|52=20231123-19:22:46.156|56=EXEC|98=0|108=30|10=016|
2023-11-23 21:22:46,159 INFO [BanzaiApplication.java:94] - toAdmin:8=FIX.4.2|9=104|35=5|34=15|49=BANZAI|52=20231123-19:22:46.159|56=EXEC|58=MsgSeqNum too low, expecting 20 but received 7|10=229|
2023-11-23 21:22:50,316 INFO [AcceptorIoHandler.java:58] - MINA session created: local=/127.0.0.1:9878, class org.apache.mina.transport.socket.nio.NioSocketSession, remote=/127.0.0.1:61651
2023-11-23 21:22:51,156 INFO [BanzaiApplication.java:94] - toAdmin:8=FIX.4.2|9=66|35=A|34=16|49=BANZAI|52=20231123-19:22:51.156|56=EXEC|98=0|108=30|10=014|
2023-11-23 21:22:51,159 INFO [BanzaiApplication.java:94] - toAdmin:8=FIX.4.2|9=105|35=5|34=17|49=BANZAI|52=20231123-19:22:51.159|56=EXEC|58=MsgSeqNum too low, expecting 20 but received 10|10=014|
2023-11-23 21:22:55,376 INFO [AcceptorIoHandler.java:58] - MINA session created: local=/127.0.0.1:9878, class org.apache.mina.transport.socket.nio.NioSocketSession, remote=/127.0.0.1:61652
2023-11-23 21:22:56,155 INFO [BanzaiApplication.java:94] - toAdmin:8=FIX.4.2|9=66|35=A|34=18|49=BANZAI|52=20231123-19:22:56.155|56=EXEC|98=0|108=30|10=020|
2023-11-23 21:22:56,158 INFO [BanzaiApplication.java:94] - toAdmin:8=FIX.4.2|9=105|35=5|34=19|49=BANZAI|52=20231123-19:22:56.158|56=EXEC|58=MsgSeqNum too low, expecting 20 but received 13|10=023|
2023-11-23 21:23:00,427 INFO [AcceptorIoHandler.java:58] - MINA session created: local=/127.0.0.1:9878, class org.apache.mina.transport.socket.nio.NioSocketSession, remote=/127.0.0.1:61653
2023-11-23 21:23:01,159 INFO [BanzaiApplication.java:94] - toAdmin:8=FIX.4.2|9=66|35=A|34=20|49=BANZAI|52=20231123-19:23:01.159|56=EXEC|98=0|108=30|10=008|
2023-11-23 21:23:01,162 INFO [BanzaiApplication.java:94] - toAdmin:8=FIX.4.2|9=105|35=5|34=21|49=BANZAI|52=20231123-19:23:01.162|56=EXEC|58=MsgSeqNum too low, expecting 20 but received 16|10=005|
2023-11-23 21:23:05,489 INFO [AcceptorIoHandler.java:58] - MINA session created: local=/127.0.0.1:9878, class org.apache.mina.transport.socket.nio.NioSocketSession, remote=/127.0.0.1:61654
2023-11-23 21:23:06,159 INFO [BanzaiApplication.java:94] - toAdmin:8=FIX.4.2|9=66|35=A|34=22|49=BANZAI|52=20231123-19:23:06.159|56=EXEC|98=0|108=30|10=015|
2023-11-23 21:23:06,161 INFO [BanzaiApplication.java:94] - toAdmin:8=FIX.4.2|9=105|35=5|34=23|49=BANZAI|52=20231123-19:23:06.161|56=EXEC|58=MsgSeqNum too low, expecting 20 but received 19|10=014|
2023-11-23 21:23:10,543 INFO [AcceptorIoHandler.java:58] - MINA session created: local=/127.0.0.1:9878, class org.apache.mina.transport.socket.nio.NioSocketSession, remote=/127.0.0.1:61655
2023-11-23 21:23:11,150 INFO [BanzaiApplication.java:94] - toAdmin:8=FIX.4.2|9=66|35=A|34=24|49=BANZAI|52=20231123-19:23:11.150|56=EXEC|98=0|108=30|10=004|
2023-11-23 21:23:11,152 INFO [BanzaiApplication.java:106] - fromAdmin:8=FIX.4.2|9=66|35=A|34=22|49=EXEC|52=20231123-19:23:11.151|56=BANZAI|98=0|108=30|10=003|
2023-11-23 21:23:11,153 INFO [BanzaiApplication.java:94] - toAdmin:8=FIX.4.2|9=64|35=2|34=25|49=BANZAI|52=20231123-19:23:11.152|56=EXEC|7=20|16=0|10=137|
2023-11-23 21:23:11,157 INFO [BanzaiApplication.java:106] - fromAdmin:8=FIX.4.2|9=63|35=2|34=23|49=EXEC|52=20231123-19:23:11.152|56=BANZAI|7=1|16=0|10=085|
2023-11-23 21:23:11,161 INFO [BanzaiApplication.java:100] - toApp:8=FIX.4.2|9=161|35=D|34=2|43=Y|49=BANZAI|52=20231123-19:23:11.161|56=EXEC|122=20231123-17:36:33.141|11=1700760993137|21=1|38=100|40=1|54=1|55=AAPL|59=0|60=20231123-17:36:33.140|10=078|
2023-11-23 21:23:11,161 INFO [BanzaiApplication.java:94] - toAdmin:8=FIX.4.2|9=95|35=4|34=1|43=Y|49=BANZAI|52=20231123-19:23:11.161|56=EXEC|122=20231123-19:23:11.161|36=2|123=Y|10=170|
2023-11-23 21:23:11,161 INFO [BanzaiApplication.java:100] - toApp:8=FIX.4.2|9=161|35=D|34=3|43=Y|49=BANZAI|52=20231123-19:23:11.161|56=EXEC|122=20231123-17:36:39.442|11=1700760999444|21=1|38=100|40=1|54=2|55=AAPL|59=0|60=20231123-17:36:39.442|10=108|
2023-11-23 21:23:11,162 INFO [BanzaiApplication.java:100] - toApp:8=FIX.4.2|9=161|35=D|34=4|43=Y|49=BANZAI|52=20231123-19:23:11.162|56=EXEC|122=20231123-17:36:44.618|11=1700761004621|21=1|38=100|40=1|54=2|55=AAPL|59=0|60=20231123-17:36:44.618|10=087|
2023-11-23 21:23:11,162 INFO [BanzaiApplication.java:100] - toApp:8=FIX.4.2|9=161|35=D|34=5|43=Y|49=BANZAI|52=20231123-19:23:11.162|56=EXEC|122=20231123-17:36:50.469|11=1700761010472|21=1|38=100|40=1|54=2|55=MSFT|59=0|60=20231123-17:36:50.468|10=118|
2023-11-23 21:23:11,162 INFO [BanzaiApplication.java:100] - toApp:8=FIX.4.2|9=159|35=D|34=6|43=Y|49=BANZAI|52=20231123-19:23:11.162|56=EXEC|122=20231123-17:36:56.645|11=1700761016650|21=1|38=5|40=1|54=1|55=MSFT|59=0|60=20231123-17:36:56.645|10=042|
2023-11-23 21:23:11,162 INFO [BanzaiApplication.java:100] - toApp:8=FIX.4.2|9=159|35=D|34=7|43=Y|49=BANZAI|52=20231123-19:23:11.162|56=EXEC|122=20231123-17:36:58.561|11=1700761018567|21=1|38=5|40=1|54=1|55=MSFT|59=0|60=20231123-17:36:58.561|10=050|
2023-11-23 21:23:11,163 INFO [BanzaiApplication.java:100] - toApp:8=FIX.4.2|9=159|35=D|34=8|43=Y|49=BANZAI|52=20231123-19:23:11.163|56=EXEC|122=20231123-17:36:59.070|11=1700761019076|21=1|38=5|40=1|54=1|55=MSFT|59=0|60=20231123-17:36:59.069|10=048|
2023-11-23 21:23:11,163 INFO [BanzaiApplication.java:100] - toApp:8=FIX.4.2|9=159|35=D|34=9|43=Y|49=BANZAI|52=20231123-19:23:11.163|56=EXEC|122=20231123-17:36:59.477|11=1700761019485|21=1|38=5|40=1|54=1|55=MSFT|59=0|60=20231123-17:36:59.477|10=067|
2023-11-23 21:23:11,163 INFO [BanzaiApplication.java:94] - toAdmin:8=FIX.4.2|9=97|35=4|34=10|43=Y|49=BANZAI|52=20231123-19:23:11.163|56=EXEC|122=20231123-19:23:11.163|36=26|123=Y|10=022|
2023-11-23 21:23:11,164 INFO [BanzaiApplication.java:106] - fromAdmin:8=FIX.4.2|9=97|35=4|34=20|43=Y|49=EXEC|52=20231123-19:23:11.154|56=BANZAI|122=20231123-19:23:11.154|36=24|123=Y|10=021|
2023-11-23 21:23:11,176 INFO [BanzaiApplication.java:112] - fromApp:8=FIX.4.2|9=146|35=8|34=24|49=EXEC|52=20231123-19:23:11.172|56=BANZAI|6=0|11=1700760993137|14=0|17=0|20=0|37=1700760993137|38=100|39=0|54=1|55=AAPL|150=0|151=100|10=224|
2023-11-23 21:23:11,179 INFO [BanzaiApplication.java:112] - fromApp:8=FIX.4.2|9=146|35=8|34=25|49=EXEC|52=20231123-19:23:11.178|56=BANZAI|6=0|11=1700760999444|14=0|17=1|20=0|37=1700760999444|38=100|39=0|54=2|55=AAPL|150=0|151=100|10=247|
2023-11-23 21:23:11,179 INFO [BanzaiApplication.java:112] - fromApp:8=FIX.4.2|9=158|35=8|34=26|49=EXEC|52=20231123-19:23:11.178|56=BANZAI|6=0|11=1700760999444|14=100|17=2|20=0|31=0|32=100|37=1700760999444|38=100|39=2|54=2|55=AAPL|150=2|151=0|10=006|
2023-11-23 21:23:11,179 INFO [BanzaiApplication.java:112] - fromApp:8=FIX.4.2|9=158|35=8|34=27|49=EXEC|52=20231123-19:23:11.179|56=BANZAI|6=0|11=1700760993137|14=100|17=3|20=0|31=0|32=100|37=1700760993137|38=100|39=2|54=1|55=AAPL|150=2|151=0|10=250|
2023-11-23 21:23:11,180 INFO [BanzaiApplication.java:112] - fromApp:8=FIX.4.2|9=146|35=8|34=28|49=EXEC|52=20231123-19:23:11.179|56=BANZAI|6=0|11=1700761004621|14=0|17=4|20=0|37=1700761004621|38=100|39=0|54=2|55=AAPL|150=0|151=100|10=204|
2023-11-23 21:23:11,180 INFO [BanzaiApplication.java:112] - fromApp:8=FIX.4.2|9=146|35=8|34=29|49=EXEC|52=20231123-19:23:11.180|56=BANZAI|6=0|11=1700761010472|14=0|17=5|20=0|37=1700761010472|38=100|39=0|54=2|55=MSFT|150=0|151=100|10=228|
2023-11-23 21:23:11,181 INFO [BanzaiApplication.java:112] - fromApp:8=FIX.4.2|9=142|35=8|34=30|49=EXEC|52=20231123-19:23:11.180|56=BANZAI|6=0|11=1700761016650|14=0|17=6|20=0|37=1700761016650|38=5|39=0|54=1|55=MSFT|150=0|151=5|10=040|
2023-11-23 21:23:11,181 INFO [BanzaiApplication.java:112] - fromApp:8=FIX.4.2|9=155|35=8|34=31|49=EXEC|52=20231123-19:23:11.181|56=BANZAI|6=0|11=1700761010472|14=5|17=7|20=0|31=0|32=5|37=1700761010472|38=100|39=1|54=2|55=MSFT|150=1|151=95|10=110|
2023-11-23 21:23:11,181 INFO [BanzaiApplication.java:112] - fromApp:8=FIX.4.2|9=152|35=8|34=32|49=EXEC|52=20231123-19:23:11.181|56=BANZAI|6=0|11=1700761016650|14=5|17=8|20=0|31=0|32=5|37=1700761016650|38=5|39=2|54=1|55=MSFT|150=2|151=0|10=220|
2023-11-23 21:23:11,182 INFO [BanzaiApplication.java:112] - fromApp:8=FIX.4.2|9=142|35=8|34=33|49=EXEC|52=20231123-19:23:11.182|56=BANZAI|6=0|11=1700761018567|14=0|17=9|20=0|37=1700761018567|38=5|39=0|54=1|55=MSFT|150=0|151=5|10=066|
2023-11-23 21:23:11,182 INFO [BanzaiApplication.java:112] - fromApp:8=FIX.4.2|9=157|35=8|34=34|49=EXEC|52=20231123-19:23:11.182|56=BANZAI|6=0|11=1700761010472|14=10|17=10|20=0|31=0|32=5|37=1700761010472|38=100|39=1|54=2|55=MSFT|150=1|151=90|10=197|
2023-11-23 21:23:11,183 INFO [BanzaiApplication.java:112] - fromApp:8=FIX.4.2|9=153|35=8|34=35|49=EXEC|52=20231123-19:23:11.182|56=BANZAI|6=0|11=1700761018567|14=5|17=11|20=0|31=0|32=5|37=1700761018567|38=5|39=2|54=1|55=MSFT|150=2|151=0|10=029|
2023-11-23 21:23:11,183 INFO [BanzaiApplication.java:112] - fromApp:8=FIX.4.2|9=143|35=8|34=36|49=EXEC|52=20231123-19:23:11.183|56=BANZAI|6=0|11=1700761019076|14=0|17=12|20=0|37=1700761019076|38=5|39=0|54=1|55=MSFT|150=0|151=5|10=105|
2023-11-23 21:23:11,192 INFO [BanzaiApplication.java:112] - fromApp:8=FIX.4.2|9=157|35=8|34=37|49=EXEC|52=20231123-19:23:11.183|56=BANZAI|6=0|11=1700761010472|14=15|17=13|20=0|31=0|32=5|37=1700761010472|38=100|39=1|54=2|55=MSFT|150=1|151=85|10=213|
2023-11-23 21:23:11,193 INFO [BanzaiApplication.java:112] - fromApp:8=FIX.4.2|9=153|35=8|34=38|49=EXEC|52=20231123-19:23:11.192|56=BANZAI|6=0|11=1700761019076|14=5|17=14|20=0|31=0|32=5|37=1700761019076|38=5|39=2|54=1|55=MSFT|150=2|151=0|10=028|
2023-11-23 21:23:11,193 INFO [BanzaiApplication.java:112] - fromApp:8=FIX.4.2|9=143|35=8|34=39|49=EXEC|52=20231123-19:23:11.192|56=BANZAI|6=0|11=1700761019485|14=0|17=15|20=0|37=1700761019485|38=5|39=0|54=1|55=MSFT|150=0|151=5|10=119|
2023-11-23 21:23:11,193 INFO [BanzaiApplication.java:112] - fromApp:8=FIX.4.2|9=157|35=8|34=40|49=EXEC|52=20231123-19:23:11.192|56=BANZAI|6=0|11=1700761010472|14=20|17=16|20=0|31=0|32=5|37=1700761010472|38=100|39=1|54=2|55=MSFT|150=1|151=80|10=201|
2023-11-23 21:23:11,193 INFO [BanzaiApplication.java:112] - fromApp:8=FIX.4.2|9=153|35=8|34=41|49=EXEC|52=20231123-19:23:11.193|56=BANZAI|6=0|11=1700761019485|14=5|17=17|20=0|31=0|32=5|37=1700761019485|38=5|39=2|54=1|55=MSFT|150=2|151=0|10=034|
2023-11-23 21:23:29,682 INFO [BanzaiApplication.java:100] - toApp:8=FIX.4.2|9=138|35=D|34=26|49=BANZAI|52=20231123-19:23:29.682|56=EXEC|11=1700767409682|21=1|38=100|40=2|44=100|54=1|55=AAPL|59=0|60=20231123-19:23:29.681|10=231|
2023-11-23 21:23:29,684 INFO [BanzaiApplication.java:112] - fromApp:8=FIX.4.2|9=147|35=8|34=42|49=EXEC|52=20231123-19:23:29.683|56=BANZAI|6=0|11=1700767409682|14=0|17=18|20=0|37=1700767409682|38=100|39=0|54=1|55=AAPL|150=0|151=100|10=050|
2023-11-23 21:23:29,684 INFO [BanzaiApplication.java:112] - fromApp:8=FIX.4.2|9=161|35=8|34=43|49=EXEC|52=20231123-19:23:29.684|56=BANZAI|6=100|11=1700761004621|14=100|17=19|20=0|31=0|32=100|37=1700761004621|38=100|39=2|54=2|55=AAPL|150=2|151=0|10=113|
2023-11-23 21:23:29,685 INFO [BanzaiApplication.java:112] - fromApp:8=FIX.4.2|9=163|35=8|34=44|49=EXEC|52=20231123-19:23:29.684|56=BANZAI|6=100|11=1700767409682|14=100|17=20|20=0|31=100|32=100|37=1700767409682|38=100|39=2|54=1|55=AAPL|150=2|151=0|10=248|
2023-11-23 21:23:53,306 INFO [BanzaiApplication.java:100] - toApp:8=FIX.4.2|9=138|35=D|34=27|49=BANZAI|52=20231123-19:23:53.306|56=EXEC|11=1700767433308|21=1|38=100|40=2|44=100|54=1|55=AAPL|59=0|60=20231123-19:23:53.306|10=205|
2023-11-23 21:23:53,308 INFO [BanzaiApplication.java:112] - fromApp:8=FIX.4.2|9=147|35=8|34=45|49=EXEC|52=20231123-19:23:53.307|56=BANZAI|6=0|11=1700767433308|14=0|17=21|20=0|37=1700767433308|38=100|39=0|54=1|55=AAPL|150=0|151=100|10=021|
2023-11-23 21:24:06,853 INFO [BanzaiApplication.java:100] - toApp:8=FIX.4.2|9=136|35=D|34=28|49=BANZAI|52=20231123-19:24:06.852|56=EXEC|11=1700767446855|21=1|38=10|40=2|44=50|54=2|55=AAPL|59=0|60=20231123-19:24:06.852|10=134|
2023-11-23 21:24:06,855 INFO [BanzaiApplication.java:112] - fromApp:8=FIX.4.2|9=145|35=8|34=46|49=EXEC|52=20231123-19:24:06.854|56=BANZAI|6=0|11=1700767446855|14=0|17=22|20=0|37=1700767446855|38=10|39=0|54=2|55=AAPL|150=0|151=10|10=210|
2023-11-23 21:24:06,855 INFO [BanzaiApplication.java:112] - fromApp:8=FIX.4.2|9=158|35=8|34=47|49=EXEC|52=20231123-19:24:06.854|56=BANZAI|6=50|11=1700767446855|14=10|17=23|20=0|31=50|32=10|37=1700767446855|38=10|39=2|54=2|55=AAPL|150=2|151=0|10=028|
2023-11-23 21:24:06,855 INFO [BanzaiApplication.java:112] - fromApp:8=FIX.4.2|9=161|35=8|34=48|49=EXEC|52=20231123-19:24:06.855|56=BANZAI|6=50|11=1700767433308|14=10|17=24|20=0|31=100|32=10|37=1700767433308|38=100|39=1|54=1|55=AAPL|150=1|151=90|10=149|
2023-11-23 21:24:16,641 INFO [BanzaiApplication.java:100] - toApp:8=FIX.4.2|9=138|35=D|34=29|49=BANZAI|52=20231123-19:24:16.641|56=EXEC|11=1700767456645|21=1|38=10|40=2|44=1000|54=2|55=AAPL|59=0|60=20231123-19:24:16.641|10=221|
2023-11-23 21:24:16,643 INFO [BanzaiApplication.java:112] - fromApp:8=FIX.4.2|9=145|35=8|34=49|49=EXEC|52=20231123-19:24:16.642|56=BANZAI|6=0|11=1700767456645|14=0|17=25|20=0|37=1700767456645|38=10|39=0|54=2|55=AAPL|150=0|151=10|10=208|
2023-11-23 21:24:36,652 INFO [BanzaiApplication.java:100] - toApp:8=FIX.4.2|9=138|35=D|34=30|49=BANZAI|52=20231123-19:24:36.652|56=EXEC|11=1700767476657|21=1|38=100|40=2|44=231|54=2|55=MSFT|59=0|60=20231123-19:24:36.652|10=003|
2023-11-23 21:24:36,654 INFO [BanzaiApplication.java:112] - fromApp:8=FIX.4.2|9=147|35=8|34=50|49=EXEC|52=20231123-19:24:36.653|56=BANZAI|6=0|11=1700767476657|14=0|17=26|20=0|37=1700767476657|38=100|39=0|54=2|55=MSFT|150=0|151=100|10=085|
2023-11-23 21:24:53,971 INFO [BanzaiApplication.java:100] - toApp:8=FIX.4.2|9=135|35=D|34=31|49=BANZAI|52=20231123-19:24:53.971|56=EXEC|11=1700767493977|21=1|38=7|40=2|44=69|54=1|55=MSFT|59=0|60=20231123-19:24:53.971|10=137|
2023-11-23 21:24:53,973 INFO [BanzaiApplication.java:112] - fromApp:8=FIX.4.2|9=143|35=8|34=51|49=EXEC|52=20231123-19:24:53.972|56=BANZAI|6=0|11=1700767493977|14=0|17=27|20=0|37=1700767493977|38=7|39=0|54=1|55=MSFT|150=0|151=7|10=169|
2023-11-23 21:24:53,973 INFO [BanzaiApplication.java:112] - fromApp:8=FIX.4.2|9=173|35=8|34=52|49=EXEC|52=20231123-19:24:53.972|56=BANZAI|6=17.88888888888889|11=1700761010472|14=27|17=28|20=0|31=0|32=7|37=1700761010472|38=100|39=1|54=2|55=MSFT|150=1|151=73|10=092|
2023-11-23 21:24:53,973 INFO [BanzaiApplication.java:112] - fromApp:8=FIX.4.2|9=155|35=8|34=53|49=EXEC|52=20231123-19:24:53.973|56=BANZAI|6=69|11=1700767493977|14=7|17=29|20=0|31=69|32=7|37=1700767493977|38=7|39=2|54=1|55=MSFT|150=2|151=0|10=223|
2023-11-23 21:25:22,817 INFO [BanzaiApplication.java:100] - toApp:8=FIX.4.2|9=136|35=D|34=32|49=BANZAI|52=20231123-19:25:22.817|56=EXEC|11=1700767522824|21=1|38=7|40=2|44=420|54=1|55=MSFT|59=0|60=20231123-19:25:22.817|10=154|
2023-11-23 21:25:22,819 INFO [BanzaiApplication.java:112] - fromApp:8=FIX.4.2|9=143|35=8|34=54|49=EXEC|52=20231123-19:25:22.818|56=BANZAI|6=0|11=1700767522824|14=0|17=30|20=0|37=1700767522824|38=7|39=0|54=1|55=MSFT|150=0|151=7|10=130|
2023-11-23 21:25:22,819 INFO [BanzaiApplication.java:112] - fromApp:8=FIX.4.2|9=174|35=8|34=55|49=EXEC|52=20231123-19:25:22.819|56=BANZAI|6=100.67647058823529|11=1700761010472|14=34|17=31|20=0|31=0|32=7|37=1700761010472|38=100|39=1|54=2|55=MSFT|150=1|151=66|10=087|
2023-11-23 21:25:22,820 INFO [BanzaiApplication.java:112] - fromApp:8=FIX.4.2|9=157|35=8|34=56|49=EXEC|52=20231123-19:25:22.819|56=BANZAI|6=420|11=1700767522824|14=7|17=32|20=0|31=420|32=7|37=1700767522824|38=7|39=2|54=1|55=MSFT|150=2|151=0|10=008|
2023-11-23 21:25:53,162 INFO [BanzaiApplication.java:94] - toAdmin:8=FIX.4.2|9=54|35=0|34=33|49=BANZAI|52=20231123-19:25:53.162|56=EXEC|10=226|
2023-11-23 21:25:53,164 INFO [BanzaiApplication.java:106] - fromAdmin:8=FIX.4.2|9=54|35=0|34=57|49=EXEC|52=20231123-19:25:53.163|56=BANZAI|10=233|
2023-11-23 21:26:04,037 INFO [BanzaiApplication.java:100] - toApp:8=FIX.4.2|9=137|35=D|34=34|49=BANZAI|52=20231123-19:26:04.036|56=EXEC|11=1700767564044|21=1|38=10|40=2|44=420|54=2|55=AAPL|59=0|60=20231123-19:26:04.036|10=160|
2023-11-23 21:26:04,038 INFO [BanzaiApplication.java:112] - fromApp:8=FIX.4.2|9=145|35=8|34=58|49=EXEC|52=20231123-19:26:04.038|56=BANZAI|6=0|11=1700767564044|14=0|17=33|20=0|37=1700767564044|38=10|39=0|54=2|55=AAPL|150=0|151=10|10=191|
2023-11-23 21:26:11,102 INFO [BanzaiApplication.java:100] - toApp:8=FIX.4.2|9=136|35=D|34=35|49=BANZAI|52=20231123-19:26:11.102|56=EXEC|11=1700767571110|21=1|38=10|40=2|44=95|54=2|55=AAPL|59=0|60=20231123-19:26:11.101|10=095|
2023-11-23 21:26:11,103 INFO [BanzaiApplication.java:112] - fromApp:8=FIX.4.2|9=145|35=8|34=59|49=EXEC|52=20231123-19:26:11.103|56=BANZAI|6=0|11=1700767571110|14=0|17=34|20=0|37=1700767571110|38=10|39=0|54=2|55=AAPL|150=0|151=10|10=168|
2023-11-23 21:26:24,906 INFO [BanzaiApplication.java:100] - toApp:8=FIX.4.2|9=136|35=D|34=36|49=BANZAI|52=20231123-19:26:24.906|56=EXEC|11=1700767584916|21=1|38=10|40=2|44=50|54=2|55=AAPL|59=0|60=20231123-19:26:24.906|10=138|
2023-11-23 21:26:24,908 INFO [BanzaiApplication.java:112] - fromApp:8=FIX.4.2|9=145|35=8|34=60|49=EXEC|52=20231123-19:26:24.907|56=BANZAI|6=0|11=1700767584916|14=0|17=35|20=0|37=1700767584916|38=10|39=0|54=2|55=AAPL|150=0|151=10|10=213|
2023-11-23 21:26:55,009 INFO [BanzaiApplication.java:100] - toApp:8=FIX.4.2|9=135|35=D|34=37|49=BANZAI|52=20231123-19:26:55.009|56=EXEC|11=1700767615020|21=1|38=10|40=2|44=5|54=1|55=AAPL|59=0|60=20231123-19:26:55.009|10=066|
2023-11-23 21:26:55,020 INFO [BanzaiApplication.java:112] - fromApp:8=FIX.4.2|9=145|35=8|34=61|49=EXEC|52=20231123-19:26:55.019|56=BANZAI|6=0|11=1700767615020|14=0|17=36|20=0|37=1700767615020|38=10|39=0|54=1|55=AAPL|150=0|151=10|10=174|
2023-11-23 21:27:05,174 INFO [BanzaiApplication.java:100] - toApp:8=FIX.4.2|9=137|35=D|34=38|49=BANZAI|52=20231123-19:27:05.174|56=EXEC|11=1700767625186|21=1|38=10|40=2|44=100|54=1|55=AAPL|59=0|60=20231123-19:27:05.174|10=173|
2023-11-23 21:27:05,176 INFO [BanzaiApplication.java:112] - fromApp:8=FIX.4.2|9=145|35=8|34=62|49=EXEC|52=20231123-19:27:05.175|56=BANZAI|6=0|11=1700767625186|14=0|17=37|20=0|37=1700767625186|38=10|39=0|54=1|55=AAPL|150=0|151=10|10=203|
2023-11-23 21:27:20,187 INFO [BanzaiApplication.java:100] - toApp:8=FIX.4.2|9=137|35=D|34=39|49=BANZAI|52=20231123-19:27:20.187|56=EXEC|11=1700767640200|21=1|38=10|40=2|44=100|54=1|55=AAPL|59=0|60=20231123-19:27:20.187|10=160|
2023-11-23 21:27:20,189 INFO [BanzaiApplication.java:112] - fromApp:8=FIX.4.2|9=145|35=8|34=63|49=EXEC|52=20231123-19:27:20.188|56=BANZAI|6=0|11=1700767640200|14=0|17=38|20=0|37=1700767640200|38=10|39=0|54=1|55=AAPL|150=0|151=10|10=174|
2023-11-23 21:27:22,403 INFO [BanzaiApplication.java:100] - toApp:8=FIX.4.2|9=137|35=D|34=40|49=BANZAI|52=20231123-19:27:22.403|56=EXEC|11=1700767642417|21=1|38=10|40=2|44=100|54=2|55=AAPL|59=0|60=20231123-19:27:22.403|10=151|
2023-11-23 21:27:22,405 INFO [BanzaiApplication.java:112] - fromApp:8=FIX.4.2|9=145|35=8|34=64|49=EXEC|52=20231123-19:27:22.404|56=BANZAI|6=0|11=1700767642417|14=0|17=39|20=0|37=1700767642417|38=10|39=0|54=2|55=AAPL|150=0|151=10|10=194|
2023-11-23 21:27:32,351 INFO [BanzaiApplication.java:100] - toApp:8=FIX.4.2|9=130|35=D|34=41|49=BANZAI|52=20231123-19:27:32.351|56=EXEC|11=1700767652366|21=1|38=10|40=1|54=2|55=AAPL|59=0|60=20231123-19:27:32.351|10=099|
2023-11-23 21:27:32,354 INFO [BanzaiApplication.java:112] - fromApp:8=FIX.4.2|9=145|35=8|34=65|49=EXEC|52=20231123-19:27:32.352|56=BANZAI|6=0|11=1700767652366|14=0|17=40|20=0|37=1700767652366|38=10|39=0|54=2|55=AAPL|150=0|151=10|10=198|
2023-11-23 21:27:32,354 INFO [BanzaiApplication.java:112] - fromApp:8=FIX.4.2|9=158|35=8|34=66|49=EXEC|52=20231123-19:27:32.352|56=BANZAI|6=100|11=1700767652366|14=10|17=41|20=0|31=0|32=10|37=1700767652366|38=10|39=2|54=2|55=AAPL|150=2|151=0|10=007|
2023-11-23 21:27:32,354 INFO [BanzaiApplication.java:112] - fromApp:8=FIX.4.2|9=161|35=8|34=67|49=EXEC|52=20231123-19:27:32.353|56=BANZAI|6=75|11=1700767433308|14=20|17=42|20=0|31=100|32=10|37=1700767433308|38=100|39=1|54=1|55=AAPL|150=1|151=80|10=152|
2023-11-23 21:27:37,690 INFO [BanzaiApplication.java:100] - toApp:8=FIX.4.2|9=130|35=D|34=42|49=BANZAI|52=20231123-19:27:37.690|56=EXEC|11=1700767657706|21=1|38=10|40=1|54=1|55=AAPL|59=0|60=20231123-19:27:37.690|10=124|
2023-11-23 21:27:37,692 INFO [BanzaiApplication.java:112] - fromApp:8=FIX.4.2|9=145|35=8|34=68|49=EXEC|52=20231123-19:27:37.691|56=BANZAI|6=0|11=1700767657706|14=0|17=43|20=0|37=1700767657706|38=10|39=0|54=1|55=AAPL|150=0|151=10|10=220|
2023-11-23 21:27:37,692 INFO [BanzaiApplication.java:112] - fromApp:8=FIX.4.2|9=162|35=8|34=69|49=EXEC|52=20231123-19:27:37.691|56=BANZAI|6=1000|11=1700767456645|14=10|17=44|20=0|31=1000|32=10|37=1700767456645|38=10|39=2|54=2|55=AAPL|150=2|151=0|10=216|
2023-11-23 21:27:37,692 INFO [BanzaiApplication.java:112] - fromApp:8=FIX.4.2|9=159|35=8|34=70|49=EXEC|52=20231123-19:27:37.691|56=BANZAI|6=1000|11=1700767657706|14=10|17=45|20=0|31=0|32=10|37=1700767657706|38=10|39=2|54=1|55=AAPL|150=2|151=0|10=071|
2023-11-23 21:27:48,079 INFO [BanzaiApplication.java:100] - toApp:8=FIX.4.2|9=130|35=D|34=43|49=BANZAI|52=20231123-19:27:48.079|56=EXEC|11=1700767668095|21=1|38=10|40=1|54=1|55=AAPL|59=0|60=20231123-19:27:48.079|10=134|
2023-11-23 21:27:48,080 INFO [BanzaiApplication.java:112] - fromApp:8=FIX.4.2|9=145|35=8|34=71|49=EXEC|52=20231123-19:27:48.080|56=BANZAI|6=0|11=1700767668095|14=0|17=46|20=0|37=1700767668095|38=10|39=0|54=1|55=AAPL|150=0|151=10|10=217|
2023-11-23 21:27:48,081 INFO [BanzaiApplication.java:112] - fromApp:8=FIX.4.2|9=160|35=8|34=72|49=EXEC|52=20231123-19:27:48.080|56=BANZAI|6=100|11=1700767642417|14=10|17=47|20=0|31=100|32=10|37=1700767642417|38=10|39=2|54=2|55=AAPL|150=2|151=0|10=097|
2023-11-23 21:27:48,081 INFO [BanzaiApplication.java:112] - fromApp:8=FIX.4.2|9=158|35=8|34=73|49=EXEC|52=20231123-19:27:48.080|56=BANZAI|6=50|11=1700767584916|14=10|17=48|20=0|31=50|32=10|37=1700767584916|38=10|39=2|54=2|55=AAPL|150=2|151=0|10=036|
2023-11-23 21:27:48,081 INFO [BanzaiApplication.java:112] - fromApp:8=FIX.4.2|9=158|35=8|34=74|49=EXEC|52=20231123-19:27:48.080|56=BANZAI|6=95|11=1700767571110|14=10|17=49|20=0|31=95|32=10|37=1700767571110|38=10|39=2|54=2|55=AAPL|150=2|151=0|10=020|
2023-11-23 21:27:48,081 INFO [BanzaiApplication.java:112] - fromApp:8=FIX.4.2|9=161|35=8|34=75|49=EXEC|52=20231123-19:27:48.081|56=BANZAI|6=79|11=1700767433308|14=50|17=50|20=0|31=100|32=10|37=1700767433308|38=100|39=1|54=1|55=AAPL|150=1|151=50|10=159|
2023-11-23 21:27:48,081 INFO [BanzaiApplication.java:112] - fromApp:8=FIX.4.2|9=160|35=8|34=76|49=EXEC|52=20231123-19:27:48.081|56=BANZAI|6=420|11=1700767564044|14=10|17=51|20=0|31=420|32=10|37=1700767564044|38=10|39=2|54=2|55=AAPL|150=2|151=0|10=105|
2023-11-23 21:27:48,082 INFO [BanzaiApplication.java:112] - fromApp:8=FIX.4.2|9=158|35=8|34=77|49=EXEC|52=20231123-19:27:48.081|56=BANZAI|6=420|11=1700767668095|14=10|17=52|20=0|31=0|32=10|37=1700767668095|38=10|39=2|54=1|55=AAPL|150=2|151=0|10=033|
2023-11-23 21:27:49,146 INFO [BanzaiApplication.java:100] - toApp:8=FIX.4.2|9=130|35=D|34=44|49=BANZAI|52=20231123-19:27:49.146|56=EXEC|11=1700767669164|21=1|38=10|40=1|54=1|55=AAPL|59=0|60=20231123-19:27:49.146|10=125|
2023-11-23 21:27:49,148 INFO [BanzaiApplication.java:112] - fromApp:8=FIX.4.2|9=145|35=8|34=78|49=EXEC|52=20231123-19:27:49.148|56=BANZAI|6=0|11=1700767669164|14=0|17=53|20=0|37=1700767669164|38=10|39=0|54=1|55=AAPL|150=0|151=10|10=224|
2023-11-23 21:27:49,895 INFO [BanzaiApplication.java:100] - toApp:8=FIX.4.2|9=130|35=D|34=45|49=BANZAI|52=20231123-19:27:49.895|56=EXEC|11=1700767669914|21=1|38=10|40=1|54=1|55=AAPL|59=0|60=20231123-19:27:49.895|10=151|
2023-11-23 21:27:49,896 INFO [BanzaiApplication.java:112] - fromApp:8=FIX.4.2|9=145|35=8|34=79|49=EXEC|52=20231123-19:27:49.896|56=BANZAI|6=0|11=1700767669914|14=0|17=54|20=0|37=1700767669914|38=10|39=0|54=1|55=AAPL|150=0|151=10|10=242|
2023-11-23 21:27:58,239 INFO [BanzaiApplication.java:100] - toApp:8=FIX.4.2|9=130|35=D|34=46|49=BANZAI|52=20231123-19:27:58.239|56=EXEC|11=1700767678259|21=1|38=10|40=1|54=2|55=AAPL|59=0|60=20231123-19:27:58.239|10=139|
2023-11-23 21:27:58,240 INFO [BanzaiApplication.java:112] - fromApp:8=FIX.4.2|9=145|35=8|34=80|49=EXEC|52=20231123-19:27:58.240|56=BANZAI|6=0|11=1700767678259|14=0|17=55|20=0|37=1700767678259|38=10|39=0|54=2|55=AAPL|150=0|151=10|10=223|
2023-11-23 21:27:58,241 INFO [BanzaiApplication.java:112] - fromApp:8=FIX.4.2|9=156|35=8|34=81|49=EXEC|52=20231123-19:27:58.240|56=BANZAI|6=0|11=1700767678259|14=10|17=56|20=0|31=0|32=10|37=1700767678259|38=10|39=2|54=2|55=AAPL|150=2|151=0|10=189|
2023-11-23 21:27:58,241 INFO [BanzaiApplication.java:112] - fromApp:8=FIX.4.2|9=156|35=8|34=82|49=EXEC|52=20231123-19:27:58.240|56=BANZAI|6=0|11=1700767669914|14=10|17=57|20=0|31=0|32=10|37=1700767669914|38=10|39=2|54=1|55=AAPL|150=2|151=0|10=186|
2023-11-23 21:28:04,063 INFO [BanzaiApplication.java:100] - toApp:8=FIX.4.2|9=130|35=D|34=47|49=BANZAI|52=20231123-19:28:04.063|56=EXEC|11=1700767684084|21=1|38=10|40=1|54=2|55=AAPL|59=0|60=20231123-19:28:04.063|10=107|
2023-11-23 21:28:04,065 INFO [BanzaiApplication.java:112] - fromApp:8=FIX.4.2|9=145|35=8|34=83|49=EXEC|52=20231123-19:28:04.064|56=BANZAI|6=0|11=1700767684084|14=0|17=58|20=0|37=1700767684084|38=10|39=0|54=2|55=AAPL|150=0|151=10|10=211|
2023-11-23 21:28:04,065 INFO [BanzaiApplication.java:112] - fromApp:8=FIX.4.2|9=156|35=8|34=84|49=EXEC|52=20231123-19:28:04.065|56=BANZAI|6=0|11=1700767684084|14=10|17=59|20=0|31=0|32=10|37=1700767684084|38=10|39=2|54=2|55=AAPL|150=2|151=0|10=178|
2023-11-23 21:28:04,065 INFO [BanzaiApplication.java:112] - fromApp:8=FIX.4.2|9=156|35=8|34=85|49=EXEC|52=20231123-19:28:04.065|56=BANZAI|6=0|11=1700767669164|14=10|17=60|20=0|31=0|32=10|37=1700767669164|38=10|39=2|54=1|55=AAPL|150=2|151=0|10=174|
2023-11-23 21:28:09,722 INFO [BanzaiApplication.java:100] - toApp:8=FIX.4.2|9=130|35=D|34=48|49=BANZAI|52=20231123-19:28:09.722|56=EXEC|11=1700767689744|21=1|38=10|40=1|54=2|55=AAPL|59=0|60=20231123-19:28:09.722|10=130|
2023-11-23 21:28:09,724 INFO [BanzaiApplication.java:112] - fromApp:8=FIX.4.2|9=145|35=8|34=86|49=EXEC|52=20231123-19:28:09.723|56=BANZAI|6=0|11=1700767689744|14=0|17=61|20=0|37=1700767689744|38=10|39=0|54=2|55=AAPL|150=0|151=10|10=231|
2023-11-23 21:28:09,724 INFO [BanzaiApplication.java:112] - fromApp:8=FIX.4.2|9=158|35=8|34=87|49=EXEC|52=20231123-19:28:09.723|56=BANZAI|6=100|11=1700767689744|14=10|17=62|20=0|31=0|32=10|37=1700767689744|38=10|39=2|54=2|55=AAPL|150=2|151=0|10=040|
2023-11-23 21:28:09,724 INFO [BanzaiApplication.java:112] - fromApp:8=FIX.4.2|9=163|35=8|34=88|49=EXEC|52=20231123-19:28:09.723|56=BANZAI|6=82.5|11=1700767433308|14=60|17=63|20=0|31=100|32=10|37=1700767433308|38=100|39=1|54=1|55=AAPL|150=1|151=40|10=007|
2023-11-23 21:28:10,435 INFO [BanzaiApplication.java:100] - toApp:8=FIX.4.2|9=130|35=D|34=49|49=BANZAI|52=20231123-19:28:10.435|56=EXEC|11=1700767690458|21=1|38=10|40=1|54=2|55=AAPL|59=0|60=20231123-19:28:10.435|10=111|
2023-11-23 21:28:10,437 INFO [BanzaiApplication.java:112] - fromApp:8=FIX.4.2|9=145|35=8|34=89|49=EXEC|52=20231123-19:28:10.436|56=BANZAI|6=0|11=1700767690458|14=0|17=64|20=0|37=1700767690458|38=10|39=0|54=2|55=AAPL|150=0|151=10|10=218|
2023-11-23 21:28:10,437 INFO [BanzaiApplication.java:112] - fromApp:8=FIX.4.2|9=158|35=8|34=90|49=EXEC|52=20231123-19:28:10.436|56=BANZAI|6=100|11=1700767690458|14=10|17=65|20=0|31=0|32=10|37=1700767690458|38=10|39=2|54=2|55=AAPL|150=2|151=0|10=018|
2023-11-23 21:28:10,437 INFO [BanzaiApplication.java:112] - fromApp:8=FIX.4.2|9=161|35=8|34=91|49=EXEC|52=20231123-19:28:10.437|56=BANZAI|6=85|11=1700767433308|14=70|17=66|20=0|31=100|32=10|37=1700767433308|38=100|39=1|54=1|55=AAPL|150=1|151=30|10=156|
2023-11-23 21:28:11,035 INFO [BanzaiApplication.java:100] - toApp:8=FIX.4.2|9=130|35=D|34=50|49=BANZAI|52=20231123-19:28:11.035|56=EXEC|11=1700767691059|21=1|38=10|40=1|54=2|55=AAPL|59=0|60=20231123-19:28:11.035|10=095|
2023-11-23 21:28:11,037 INFO [BanzaiApplication.java:112] - fromApp:8=FIX.4.2|9=145|35=8|34=92|49=EXEC|52=20231123-19:28:11.036|56=BANZAI|6=0|11=1700767691059|14=0|17=67|20=0|37=1700767691059|38=10|39=0|54=2|55=AAPL|150=0|151=10|10=208|
2023-11-23 21:28:11,037 INFO [BanzaiApplication.java:112] - fromApp:8=FIX.4.2|9=158|35=8|34=93|49=EXEC|52=20231123-19:28:11.036|56=BANZAI|6=100|11=1700767691059|14=10|17=68|20=0|31=0|32=10|37=1700767691059|38=10|39=2|54=2|55=AAPL|150=2|151=0|10=017|
2023-11-23 21:28:11,037 INFO [BanzaiApplication.java:112] - fromApp:8=FIX.4.2|9=165|35=8|34=94|49=EXEC|52=20231123-19:28:11.036|56=BANZAI|6=86.875|11=1700767433308|14=80|17=69|20=0|31=100|32=10|37=1700767433308|38=100|39=1|54=1|55=AAPL|150=1|151=20|10=117|
2023-11-23 21:28:11,794 INFO [BanzaiApplication.java:100] - toApp:8=FIX.4.2|9=130|35=D|34=51|49=BANZAI|52=20231123-19:28:11.794|56=EXEC|11=1700767691819|21=1|38=10|40=1|54=2|55=AAPL|59=0|60=20231123-19:28:11.794|10=124|
2023-11-23 21:28:11,796 INFO [BanzaiApplication.java:112] - fromApp:8=FIX.4.2|9=145|35=8|34=95|49=EXEC|52=20231123-19:28:11.795|56=BANZAI|6=0|11=1700767691819|14=0|17=70|20=0|37=1700767691819|38=10|39=0|54=2|55=AAPL|150=0|151=10|10=225|
2023-11-23 21:28:11,796 INFO [BanzaiApplication.java:112] - fromApp:8=FIX.4.2|9=158|35=8|34=96|49=EXEC|52=20231123-19:28:11.795|56=BANZAI|6=100|11=1700767691819|14=10|17=71|20=0|31=0|32=10|37=1700767691819|38=10|39=2|54=2|55=AAPL|150=2|151=0|10=034|
2023-11-23 21:28:11,796 INFO [BanzaiApplication.java:112] - fromApp:8=FIX.4.2|9=176|35=8|34=97|49=EXEC|52=20231123-19:28:11.796|56=BANZAI|6=88.33333333333333|11=1700767433308|14=90|17=72|20=0|31=100|32=10|37=1700767433308|38=100|39=1|54=1|55=AAPL|150=1|151=10|10=169|
2023-11-23 21:28:12,358 INFO [BanzaiApplication.java:100] - toApp:8=FIX.4.2|9=130|35=D|34=52|49=BANZAI|52=20231123-19:28:12.358|56=EXEC|11=1700767692384|21=1|38=10|40=1|54=2|55=AAPL|59=0|60=20231123-19:28:12.358|10=117|
2023-11-23 21:28:12,360 INFO [BanzaiApplication.java:112] - fromApp:8=FIX.4.2|9=145|35=8|34=98|49=EXEC|52=20231123-19:28:12.359|56=BANZAI|6=0|11=1700767692384|14=0|17=73|20=0|37=1700767692384|38=10|39=0|54=2|55=AAPL|150=0|151=10|10=224|
2023-11-23 21:28:12,360 INFO [BanzaiApplication.java:112] - fromApp:8=FIX.4.2|9=158|35=8|34=99|49=EXEC|52=20231123-19:28:12.360|56=BANZAI|6=100|11=1700767692384|14=10|17=74|20=0|31=0|32=10|37=1700767692384|38=10|39=2|54=2|55=AAPL|150=2|151=0|10=025|
2023-11-23 21:28:12,360 INFO [BanzaiApplication.java:112] - fromApp:8=FIX.4.2|9=164|35=8|34=100|49=EXEC|52=20231123-19:28:12.360|56=BANZAI|6=89.5|11=1700767433308|14=100|17=75|20=0|31=100|32=10|37=1700767433308|38=100|39=2|54=1|55=AAPL|150=2|151=0|10=035|
2023-11-23 21:28:12,914 INFO [BanzaiApplication.java:100] - toApp:8=FIX.4.2|9=130|35=D|34=53|49=BANZAI|52=20231123-19:28:12.914|56=EXEC|11=1700767692941|21=1|38=10|40=1|54=2|55=AAPL|59=0|60=20231123-19:28:12.914|10=113|
2023-11-23 21:28:12,916 INFO [BanzaiApplication.java:112] - fromApp:8=FIX.4.2|9=146|35=8|34=101|49=EXEC|52=20231123-19:28:12.915|56=BANZAI|6=0|11=1700767692941|14=0|17=76|20=0|37=1700767692941|38=10|39=0|54=2|55=AAPL|150=0|151=10|10=001|
2023-11-23 21:28:12,916 INFO [BanzaiApplication.java:112] - fromApp:8=FIX.4.2|9=157|35=8|34=102|49=EXEC|52=20231123-19:28:12.916|56=BANZAI|6=5|11=1700767692941|14=10|17=77|20=0|31=0|32=10|37=1700767692941|38=10|39=2|54=2|55=AAPL|150=2|151=0|10=229|
2023-11-23 21:28:12,916 INFO [BanzaiApplication.java:112] - fromApp:8=FIX.4.2|9=157|35=8|34=103|49=EXEC|52=20231123-19:28:12.916|56=BANZAI|6=5|11=1700767615020|14=10|17=78|20=0|31=5|32=10|37=1700767615020|38=10|39=2|54=1|55=AAPL|150=2|151=0|10=201|
2023-11-23 21:28:14,588 INFO [BanzaiApplication.java:100] - toApp:8=FIX.4.2|9=130|35=D|34=54|49=BANZAI|52=20231123-19:28:14.588|56=EXEC|11=1700767694616|21=1|38=10|40=1|54=2|55=AAPL|59=0|60=20231123-19:28:14.588|10=133|
2023-11-23 21:28:14,589 INFO [BanzaiApplication.java:112] - fromApp:8=FIX.4.2|9=146|35=8|34=104|49=EXEC|52=20231123-19:28:14.589|56=BANZAI|6=0|11=1700767694616|14=0|17=79|20=0|37=1700767694616|38=10|39=0|54=2|55=AAPL|150=0|151=10|10=018|
2023-11-23 21:28:14,590 INFO [BanzaiApplication.java:112] - fromApp:8=FIX.4.2|9=159|35=8|34=105|49=EXEC|52=20231123-19:28:14.589|56=BANZAI|6=100|11=1700767694616|14=10|17=80|20=0|31=0|32=10|37=1700767694616|38=10|39=2|54=2|55=AAPL|150=2|151=0|10=074|
2023-11-23 21:28:14,590 INFO [BanzaiApplication.java:112] - fromApp:8=FIX.4.2|9=161|35=8|34=106|49=EXEC|52=20231123-19:28:14.589|56=BANZAI|6=100|11=1700767625186|14=10|17=81|20=0|31=100|32=10|37=1700767625186|38=10|39=2|54=1|55=AAPL|150=2|151=0|10=157|
2023-11-23 21:28:15,314 INFO [BanzaiApplication.java:100] - toApp:8=FIX.4.2|9=130|35=D|34=55|49=BANZAI|52=20231123-19:28:15.314|56=EXEC|11=1700767695343|21=1|38=10|40=1|54=2|55=AAPL|59=0|60=20231123-19:28:15.314|10=108|
2023-11-23 21:28:15,316 INFO [BanzaiApplication.java:112] - fromApp:8=FIX.4.2|9=146|35=8|34=107|49=EXEC|52=20231123-19:28:15.315|56=BANZAI|6=0|11=1700767695343|14=0|17=82|20=0|37=1700767695343|38=10|39=0|54=2|55=AAPL|150=0|151=10|10=255|
2023-11-23 21:28:15,316 INFO [BanzaiApplication.java:112] - fromApp:8=FIX.4.2|9=159|35=8|34=108|49=EXEC|52=20231123-19:28:15.315|56=BANZAI|6=100|11=1700767695343|14=10|17=83|20=0|31=0|32=10|37=1700767695343|38=10|39=2|54=2|55=AAPL|150=2|151=0|10=064|
2023-11-23 21:28:15,316 INFO [BanzaiApplication.java:112] - fromApp:8=FIX.4.2|9=161|35=8|34=109|49=EXEC|52=20231123-19:28:15.315|56=BANZAI|6=100|11=1700767640200|14=10|17=84|20=0|31=100|32=10|37=1700767640200|38=10|39=2|54=1|55=AAPL|150=2|151=0|10=119|
2023-11-23 21:28:17,126 INFO [BanzaiApplication.java:100] - toApp:8=FIX.4.2|9=130|35=D|34=56|49=BANZAI|52=20231123-19:28:17.126|56=EXEC|11=1700767697155|21=1|38=10|40=1|54=2|55=AAPL|59=0|60=20231123-19:28:17.125|10=117|
2023-11-23 21:28:17,127 INFO [BanzaiApplication.java:112] - fromApp:8=FIX.4.2|9=146|35=8|34=110|49=EXEC|52=20231123-19:28:17.127|56=BANZAI|6=0|11=1700767697155|14=0|17=85|20=0|37=1700767697155|38=10|39=0|54=2|55=AAPL|150=0|151=10|10=005|
2023-11-23 21:28:17,920 INFO [BanzaiApplication.java:100] - toApp:8=FIX.4.2|9=130|35=D|34=57|49=BANZAI|52=20231123-19:28:17.920|56=EXEC|11=1700767697951|21=1|38=10|40=1|54=2|55=AAPL|59=0|60=20231123-19:28:17.920|10=127|
2023-11-23 21:28:17,922 INFO [BanzaiApplication.java:112] - fromApp:8=FIX.4.2|9=146|35=8|34=111|49=EXEC|52=20231123-19:28:17.921|56=BANZAI|6=0|11=1700767697951|14=0|17=86|20=0|37=1700767697951|38=10|39=0|54=2|55=AAPL|150=0|151=10|10=017|
2023-11-23 21:28:18,658 INFO [BanzaiApplication.java:100] - toApp:8=FIX.4.2|9=130|35=D|34=58|49=BANZAI|52=20231123-19:28:18.658|56=EXEC|11=1700767698690|21=1|38=10|40=1|54=2|55=AAPL|59=0|60=20231123-19:28:18.658|10=147|
2023-11-23 21:28:18,660 INFO [BanzaiApplication.java:112] - fromApp:8=FIX.4.2|9=146|35=8|34=112|49=EXEC|52=20231123-19:28:18.659|56=BANZAI|6=0|11=1700767698690|14=0|17=87|20=0|37=1700767698690|38=10|39=0|54=2|55=AAPL|150=0|151=10|10=030|
2023-11-23 21:28:19,326 INFO [BanzaiApplication.java:100] - toApp:8=FIX.4.2|9=130|35=D|34=59|49=BANZAI|52=20231123-19:28:19.326|56=EXEC|11=1700767699359|21=1|38=10|40=1|54=2|55=AAPL|59=0|60=20231123-19:28:19.326|10=137|
2023-11-23 21:28:19,329 INFO [BanzaiApplication.java:112] - fromApp:8=FIX.4.2|9=146|35=8|34=113|49=EXEC|52=20231123-19:28:19.328|56=BANZAI|6=0|11=1700767699359|14=0|17=88|20=0|37=1700767699359|38=10|39=0|54=2|55=AAPL|150=0|151=10|10=032|
2023-11-23 21:28:20,157 INFO [BanzaiApplication.java:100] - toApp:8=FIX.4.2|9=130|35=D|34=60|49=BANZAI|52=20231123-19:28:20.157|56=EXEC|11=1700767700191|21=1|38=10|40=1|54=2|55=AAPL|59=0|60=20231123-19:28:20.157|10=094|
2023-11-23 21:28:20,158 INFO [BanzaiApplication.java:112] - fromApp:8=FIX.4.2|9=146|35=8|34=114|49=EXEC|52=20231123-19:28:20.158|56=BANZAI|6=0|11=1700767700191|14=0|17=89|20=0|37=1700767700191|38=10|39=0|54=2|55=AAPL|150=0|151=10|10=237|
2023-11-23 21:28:21,667 INFO [BanzaiApplication.java:100] - toApp:8=FIX.4.2|9=130|35=D|34=61|49=BANZAI|52=20231123-19:28:21.667|56=EXEC|11=1700767701702|21=1|38=10|40=1|54=2|55=AAPL|59=0|60=20231123-19:28:21.667|10=108|
2023-11-23 21:28:21,668 INFO [BanzaiApplication.java:112] - fromApp:8=FIX.4.2|9=146|35=8|34=115|49=EXEC|52=20231123-19:28:21.668|56=BANZAI|6=0|11=1700767701702|14=0|17=90|20=0|37=1700767701702|38=10|39=0|54=2|55=AAPL|150=0|151=10|10=235|
2023-11-23 21:28:22,330 INFO [BanzaiApplication.java:100] - toApp:8=FIX.4.2|9=130|35=D|34=62|49=BANZAI|52=20231123-19:28:22.330|56=EXEC|11=1700767702366|21=1|38=10|40=1|54=2|55=AAPL|59=0|60=20231123-19:28:22.330|10=092|
2023-11-23 21:28:22,332 INFO [BanzaiApplication.java:112] - fromApp:8=FIX.4.2|9=146|35=8|34=116|49=EXEC|52=20231123-19:28:22.331|56=BANZAI|6=0|11=1700767702366|14=0|17=91|20=0|37=1700767702366|38=10|39=0|54=2|55=AAPL|150=0|151=10|10=239|
2023-11-23 21:28:23,010 INFO [BanzaiApplication.java:100] - toApp:8=FIX.4.2|9=130|35=D|34=63|49=BANZAI|52=20231123-19:28:23.010|56=EXEC|11=1700767703047|21=1|38=10|40=1|54=2|55=AAPL|59=0|60=20231123-19:28:23.010|10=082|
2023-11-23 21:28:23,011 INFO [BanzaiApplication.java:112] - fromApp:8=FIX.4.2|9=146|35=8|34=117|49=EXEC|52=20231123-19:28:23.011|56=BANZAI|6=0|11=1700767703047|14=0|17=92|20=0|37=1700767703047|38=10|39=0|54=2|55=AAPL|150=0|151=10|10=231|
2023-11-23 21:28:23,649 INFO [BanzaiApplication.java:100] - toApp:8=FIX.4.2|9=130|35=D|34=64|49=BANZAI|52=20231123-19:28:23.648|56=EXEC|11=1700767703686|21=1|38=10|40=1|54=2|55=AAPL|59=0|60=20231123-19:28:23.648|10=126|
2023-11-23 21:28:23,650 INFO [BanzaiApplication.java:112] - fromApp:8=FIX.4.2|9=146|35=8|34=118|49=EXEC|52=20231123-19:28:23.649|56=BANZAI|6=0|11=1700767703686|14=0|17=93|20=0|37=1700767703686|38=10|39=0|54=2|55=AAPL|150=0|151=10|10=012|
2023-11-23 21:28:24,388 INFO [BanzaiApplication.java:100] - toApp:8=FIX.4.2|9=130|35=D|34=65|49=BANZAI|52=20231123-19:28:24.388|56=EXEC|11=1700767704427|21=1|38=10|40=1|54=2|55=AAPL|59=0|60=20231123-19:28:24.388|10=125|
2023-11-23 21:28:24,390 INFO [BanzaiApplication.java:112] - fromApp:8=FIX.4.2|9=146|35=8|34=119|49=EXEC|52=20231123-19:28:24.389|56=BANZAI|6=0|11=1700767704427|14=0|17=94|20=0|37=1700767704427|38=10|39=0|54=2|55=AAPL|150=0|151=10|10=004|
