2023-12-26 00:48:10,133 INFO [DefaultSessionSchedule.java:87] - [FIX.4.2:ORDERENTRY1->ENGINE] daily, 00:00:00-UTC - 00:00:00-UTC
2023-12-26 00:48:10,154 INFO [NetworkingOptions.java:117] - Socket option: SocketTcpNoDelay=true
2023-12-26 00:48:10,155 INFO [NetworkingOptions.java:117] - Socket option: SocketSynchronousWrites=false
2023-12-26 00:48:10,155 INFO [NetworkingOptions.java:117] - Socket option: SocketSynchronousWriteTimeout=30000
2023-12-26 00:48:10,224 INFO [SessionConnector.java:319] - SessionTimer started
2023-12-26 00:48:10,225 INFO [SingleThreadedEventHandlingStrategy.java:144] - Started QFJ Message Processor
2023-12-26 00:48:21,252 INFO [OrderEntryApplication.java:73] - toAdmin:8=FIX.4.2|9=72|35=A|34=1|49=ORDERENTRY1|52=20231225-22:48:21.237|56=ENGINE|98=0|108=30|10=242|
2023-12-26 00:48:21,287 INFO [OrderEntryApplication.java:83] - fromAdmin:8=FIX.4.2|9=72|35=A|34=1|49=ENGINE|52=20231225-22:48:21.283|56=ORDERENTRY1|98=0|108=30|10=243|
2023-12-26 00:48:21,287 INFO [OrderEntryApplication.java:88] - fromApp:8=FIX.4.2|9=114|35=f|34=2|49=ENGINE|52=20231225-22:48:21.287|56=ORDERENTRY1|31=100|55=AAPL|326=0|330=444|331=55555|332=120|333=80|10=041|
2023-12-26 00:48:21,287 INFO [OrderEntryApplication.java:88] - fromApp:8=FIX.4.2|9=110|35=f|34=3|49=ENGINE|52=20231225-22:48:21.287|56=ORDERENTRY1|31=90|55=MSFT|326=0|330=6541|331=0|332=120|333=80|10=117|
2023-12-26 00:48:21,287 INFO [OrderEntryApplication.java:88] - fromApp:8=FIX.4.2|9=115|35=f|34=4|49=ENGINE|52=20231225-22:48:21.287|56=ORDERENTRY1|31=111|55=NDAQ|326=0|330=12365|331=4386|332=121|333=99|10=112|
2023-12-26 00:48:21,287 INFO [OrderEntryApplication.java:88] - fromApp:8=FIX.4.2|9=116|35=f|34=5|49=ENGINE|52=20231225-22:48:21.287|56=ORDERENTRY1|31=112|55=GOOGL|326=0|330=33333|331=123|332=123|333=101|10=168|
2023-12-26 00:48:21,287 INFO [OrderEntryApplication.java:78] - toApp:8=FIX.4.2|9=124|35=V|34=2|49=ORDERENTRY1|52=20231225-22:48:21.287|56=ENGINE|262=202312260048210|263=1|264=1|146=1|55=AAPL|267=2|269=0|269=1|10=254|
2023-12-26 00:48:21,287 INFO [OrderEntryApplication.java:78] - toApp:8=FIX.4.2|9=124|35=V|34=3|49=ORDERENTRY1|52=20231225-22:48:21.287|56=ENGINE|262=202312260048211|263=1|264=1|146=1|55=MSFT|267=2|269=0|269=1|10=028|
2023-12-26 00:48:21,287 INFO [OrderEntryApplication.java:78] - toApp:8=FIX.4.2|9=124|35=V|34=4|49=ORDERENTRY1|52=20231225-22:48:21.287|56=ENGINE|262=202312260048212|263=1|264=1|146=1|55=NDAQ|267=2|269=0|269=1|10=008|
2023-12-26 00:48:21,287 INFO [OrderEntryApplication.java:78] - toApp:8=FIX.4.2|9=125|35=V|34=5|49=ORDERENTRY1|52=20231225-22:48:21.287|56=ENGINE|262=202312260048213|263=1|264=1|146=1|55=GOOGL|267=2|269=0|269=1|10=095|
2023-12-26 00:48:21,303 INFO [OrderEntryApplication.java:88] - fromApp:8=FIX.4.2|9=1220|35=W|34=6|49=ENGINE|52=20231225-22:48:21.303|56=ORDERENTRY1|55=AAPL|262=202312260048210|268=9|269=1|270=100|271=100|272=20231223|273=00:48:21|432=20231223|37=202312231852591|58=MDEntry for AAPL|6=100|14=100|40=1|151=0|269=2|270=100|271=100|272=20231223|273=00:48:21|432=20231223|37=202312231853062|58=MDEntry for AAPL|6=100|14=100|40=1|151=0|269=2|270=100|271=5000|272=20231223|273=00:48:21|432=20231223|37=202312231858444|58=MDEntry for AAPL|6=100|14=5000|40=1|151=0|269=2|270=100|271=5000|272=20231223|273=00:48:21|432=20231223|37=202312231858485|58=MDEntry for AAPL|6=100|14=5000|40=1|151=0|269=1|270=100|271=5000|272=20231223|273=00:48:21|432=20231223|37=202312231858506|58=MDEntry for AAPL|6=100|14=5000|40=1|151=0|269=1|270=100|271=5000|272=20231223|273=00:48:21|432=20231223|37=202312231858537|58=MDEntry for AAPL|6=100|14=5000|40=1|151=0|269=1|270=100|271=5000|272=20231223|273=00:48:21|432=20231223|37=202312231858548|58=MDEntry for AAPL|6=100|14=100|40=1|151=4900|269=1|270=100|271=100|272=20231223|273=00:48:21|432=20231227|37=202312232048521|58=MDEntry for AAPL|6=0|14=0|40=1|151=100|269=2|270=100|271=100|272=20231223|273=00:48:21|432=20231227|37=202312232049553|58=MDEntry for AAPL|6=100|14=100|40=1|151=0|10=155|
2023-12-26 00:48:21,303 INFO [OrderEntryApplication.java:88] - fromApp:8=FIX.4.2|9=216|35=W|34=7|49=ENGINE|52=20231225-22:48:21.303|56=ORDERENTRY1|55=MSFT|262=202312260048211|268=1|269=1|270=90|271=100|272=20231225|273=00:48:21|432=20231225|37=2023122512425727|58=MDEntry for MSFT|6=0|14=0|40=1|151=100|10=120|
