2023-11-23 19:20:33,319 INFO [DefaultSessionSchedule.java:87] - [FIX.4.4:EXEC->BANZAI] daily, 00:00:00-UTC - 00:00:00-UTC
2023-11-23 19:20:33,333 INFO [SessionConnector.java:319] - SessionTimer started
2023-11-23 19:20:33,389 INFO [NetworkingOptions.java:117] - Socket option: SocketTcpNoDelay=true
2023-11-23 19:20:33,390 INFO [NetworkingOptions.java:117] - Socket option: SocketSynchronousWrites=false
2023-11-23 19:20:33,390 INFO [NetworkingOptions.java:117] - Socket option: SocketSynchronousWriteTimeout=30000
2023-11-23 19:20:33,397 INFO [AbstractSocketAcceptor.java:118] - Listening for connections at 0.0.0.0/0.0.0.0:9878 for session(s) [FIX.4.4:EXEC->BANZAI]
2023-11-23 19:20:33,398 INFO [SingleThreadedEventHandlingStrategy.java:144] - Started QFJ Message Processor
2023-11-23 19:20:37,124 INFO [Banzai.java:102] - initiating Banzai!
2023-11-23 19:20:37,979 INFO [Banzai.java:104] - Banzai initiated.
2023-11-23 19:20:38,056 INFO [DefaultSessionSchedule.java:87] - [FIX.4.4:BANZAI->EXEC] daily, 00:00:00-UTC - 00:00:00-UTC
2023-11-23 19:20:38,074 INFO [NetworkingOptions.java:117] - Socket option: SocketTcpNoDelay=true
2023-11-23 19:20:38,074 INFO [NetworkingOptions.java:117] - Socket option: SocketSynchronousWrites=false
2023-11-23 19:20:38,074 INFO [NetworkingOptions.java:117] - Socket option: SocketSynchronousWriteTimeout=30000
2023-11-23 19:20:38,133 INFO [SessionConnector.java:319] - SessionTimer started
2023-11-23 19:20:38,134 INFO [SingleThreadedEventHandlingStrategy.java:144] - Started QFJ Message Processor
2023-11-23 19:20:38,138 INFO [AcceptorIoHandler.java:58] - MINA session created: local=/127.0.0.1:9878, class org.apache.mina.transport.socket.nio.NioSocketSession, remote=/127.0.0.1:61134
2023-11-23 19:20:39,166 INFO [BanzaiApplication.java:94] - toAdmin:8=FIX.4.4|9=65|35=A|34=5|49=BANZAI|52=20231123-17:20:39.148|56=EXEC|98=0|108=30|10=224|
2023-11-23 19:20:39,197 INFO [BanzaiApplication.java:106] - fromAdmin:8=FIX.4.4|9=65|35=A|34=4|49=EXEC|52=20231123-17:20:39.192|56=BANZAI|98=0|108=30|10=222|
2023-11-23 19:20:43,399 INFO [BanzaiApplication.java:100] - toApp:8=FIX.4.4|9=130|35=D|34=6|49=BANZAI|52=20231123-17:20:43.399|56=EXEC|11=1700760043390|21=1|38=100|40=1|54=1|55=AAPL|59=0|60=20231123-17:20:43.398|10=094|
2023-11-23 19:20:43,435 INFO [BanzaiApplication.java:112] - fromApp:8=FIX.4.4|9=121|35=8|34=5|49=EXEC|52=20231123-17:20:43.429|56=BANZAI|6=0|11=1700760043390|14=0|17=1|37=1|39=0|54=1|55=AAPL|150=0|151=100|10=037|
2023-11-23 19:20:43,436 INFO [BanzaiApplication.java:112] - fromApp:8=FIX.4.4|9=146|35=8|34=6|49=EXEC|52=20231123-17:20:43.430|56=BANZAI|6=12.3|11=1700760043390|14=100|17=2|31=12.3|32=100|37=2|38=100|39=2|54=1|55=AAPL|150=F|151=0|10=167|
2023-11-23 19:20:54,322 INFO [BanzaiApplication.java:100] - toApp:8=FIX.4.4|9=130|35=D|34=7|49=BANZAI|52=20231123-17:20:54.322|56=EXEC|11=1700760054324|21=1|38=100|40=1|54=1|55=AAPL|59=0|60=20231123-17:20:54.322|10=071|
2023-11-23 19:20:54,325 INFO [BanzaiApplication.java:112] - fromApp:8=FIX.4.4|9=121|35=8|34=7|49=EXEC|52=20231123-17:20:54.324|56=BANZAI|6=0|11=1700760054324|14=0|17=3|37=3|39=0|54=1|55=AAPL|150=0|151=100|10=038|
2023-11-23 19:20:54,326 INFO [BanzaiApplication.java:112] - fromApp:8=FIX.4.4|9=146|35=8|34=8|49=EXEC|52=20231123-17:20:54.325|56=BANZAI|6=12.3|11=1700760054324|14=100|17=4|31=12.3|32=100|37=4|38=100|39=2|54=1|55=AAPL|150=F|151=0|10=177|
2023-11-23 19:20:55,086 INFO [BanzaiApplication.java:100] - toApp:8=FIX.4.4|9=130|35=D|34=8|49=BANZAI|52=20231123-17:20:55.086|56=EXEC|11=1700760055089|21=1|38=100|40=1|54=1|55=AAPL|59=0|60=20231123-17:20:55.086|10=097|
2023-11-23 19:20:55,089 INFO [BanzaiApplication.java:112] - fromApp:8=FIX.4.4|9=121|35=8|34=9|49=EXEC|52=20231123-17:20:55.088|56=BANZAI|6=0|11=1700760055089|14=0|17=5|37=5|39=0|54=1|55=AAPL|150=0|151=100|10=061|
2023-11-23 19:20:55,090 INFO [BanzaiApplication.java:112] - fromApp:8=FIX.4.4|9=147|35=8|34=10|49=EXEC|52=20231123-17:20:55.089|56=BANZAI|6=12.3|11=1700760055089|14=100|17=6|31=12.3|32=100|37=6|38=100|39=2|54=1|55=AAPL|150=F|151=0|10=240|
2023-11-23 19:20:59,719 INFO [BanzaiApplication.java:100] - toApp:8=FIX.4.4|9=130|35=D|34=9|49=BANZAI|52=20231123-17:20:59.718|56=EXEC|11=1700760059722|21=1|38=100|40=1|54=1|55=MSFT|59=0|60=20231123-17:20:59.718|10=136|
2023-11-23 19:20:59,721 INFO [BanzaiApplication.java:112] - fromApp:8=FIX.4.4|9=122|35=8|34=11|49=EXEC|52=20231123-17:20:59.720|56=BANZAI|6=0|11=1700760059722|14=0|17=7|37=7|39=0|54=1|55=MSFT|150=0|151=100|10=130|
2023-11-23 19:20:59,722 INFO [BanzaiApplication.java:112] - fromApp:8=FIX.4.4|9=147|35=8|34=12|49=EXEC|52=20231123-17:20:59.721|56=BANZAI|6=12.3|11=1700760059722|14=100|17=8|31=12.3|32=100|37=8|38=100|39=2|54=1|55=MSFT|150=F|151=0|10=013|
2023-11-23 19:21:00,146 INFO [BanzaiApplication.java:100] - toApp:8=FIX.4.4|9=131|35=D|34=10|49=BANZAI|52=20231123-17:21:00.146|56=EXEC|11=1700760060151|21=1|38=100|40=1|54=1|55=MSFT|59=0|60=20231123-17:21:00.146|10=129|
2023-11-23 19:21:00,149 INFO [BanzaiApplication.java:112] - fromApp:8=FIX.4.4|9=122|35=8|34=13|49=EXEC|52=20231123-17:21:00.148|56=BANZAI|6=0|11=1700760060151|14=0|17=9|37=9|39=0|54=1|55=MSFT|150=0|151=100|10=115|
2023-11-23 19:21:00,150 INFO [BanzaiApplication.java:112] - fromApp:8=FIX.4.4|9=149|35=8|34=14|49=EXEC|52=20231123-17:21:00.149|56=BANZAI|6=12.3|11=1700760060151|14=100|17=10|31=12.3|32=100|37=10|38=100|39=2|54=1|55=MSFT|150=F|151=0|10=078|
2023-11-23 19:21:03,916 INFO [BanzaiApplication.java:100] - toApp:8=FIX.4.4|9=131|35=D|34=11|49=BANZAI|52=20231123-17:21:03.916|56=EXEC|11=1700760063922|21=1|38=100|40=1|54=1|55=MSFT|59=0|60=20231123-17:21:03.916|10=155|
2023-11-23 19:21:03,919 INFO [BanzaiApplication.java:112] - fromApp:8=FIX.4.4|9=124|35=8|34=15|49=EXEC|52=20231123-17:21:03.918|56=BANZAI|6=0|11=1700760063922|14=0|17=11|37=11|39=0|54=1|55=MSFT|150=0|151=100|10=218|
2023-11-23 19:21:03,919 INFO [BanzaiApplication.java:112] - fromApp:8=FIX.4.4|9=149|35=8|34=16|49=EXEC|52=20231123-17:21:03.918|56=BANZAI|6=12.3|11=1700760063922|14=100|17=12|31=12.3|32=100|37=12|38=100|39=2|54=1|55=MSFT|150=F|151=0|10=100|
