2023-11-23 21:35:53,563 INFO [DefaultSessionSchedule.java:87] - [FIX.4.2:EXEC->BANZAI] daily, 00:00:00-UTC - 00:00:00-UTC
2023-11-23 21:35:53,575 INFO [SessionConnector.java:319] - SessionTimer started
2023-11-23 21:35:53,630 INFO [NetworkingOptions.java:117] - Socket option: SocketTcpNoDelay=true
2023-11-23 21:35:53,630 INFO [NetworkingOptions.java:117] - Socket option: SocketSynchronousWrites=false
2023-11-23 21:35:53,630 INFO [NetworkingOptions.java:117] - Socket option: SocketSynchronousWriteTimeout=30000
2023-11-23 21:35:53,636 INFO [AbstractSocketAcceptor.java:118] - Listening for connections at 0.0.0.0/0.0.0.0:9878 for session(s) [FIX.4.2:EXEC->BANZAI]
2023-11-23 21:35:53,637 INFO [SingleThreadedEventHandlingStrategy.java:144] - Started QFJ Message Processor
2023-11-23 21:35:57,298 INFO [Banzai.java:102] - initiating Banzai!
2023-11-23 21:35:58,141 INFO [Banzai.java:104] - Banzai initiated.
2023-11-23 21:35:58,196 INFO [DefaultSessionSchedule.java:87] - [FIX.4.2:BANZAI->EXEC] daily, 00:00:00-UTC - 00:00:00-UTC
2023-11-23 21:35:58,212 INFO [NetworkingOptions.java:117] - Socket option: SocketTcpNoDelay=true
2023-11-23 21:35:58,212 INFO [NetworkingOptions.java:117] - Socket option: SocketSynchronousWrites=false
2023-11-23 21:35:58,212 INFO [NetworkingOptions.java:117] - Socket option: SocketSynchronousWriteTimeout=30000
2023-11-23 21:35:58,269 INFO [SessionConnector.java:319] - SessionTimer started
2023-11-23 21:35:58,270 INFO [SingleThreadedEventHandlingStrategy.java:144] - Started QFJ Message Processor
2023-11-23 21:35:58,274 INFO [AcceptorIoHandler.java:58] - MINA session created: local=/127.0.0.1:9878, class org.apache.mina.transport.socket.nio.NioSocketSession, remote=/127.0.0.1:61740
2023-11-23 21:35:59,301 INFO [BanzaiApplication.java:94] - toAdmin:8=FIX.4.2|9=66|35=A|34=66|49=BANZAI|52=20231123-19:35:59.283|56=EXEC|98=0|108=30|10=032|
2023-11-23 21:35:59,328 INFO [BanzaiApplication.java:94] - toAdmin:8=FIX.4.2|9=106|35=5|34=67|49=BANZAI|52=20231123-19:35:59.328|56=EXEC|58=MsgSeqNum too low, expecting 120 but received 20|10=080|
2023-11-23 21:36:03,346 INFO [AcceptorIoHandler.java:58] - MINA session created: local=/127.0.0.1:9878, class org.apache.mina.transport.socket.nio.NioSocketSession, remote=/127.0.0.1:61741
2023-11-23 21:36:04,277 INFO [BanzaiApplication.java:94] - toAdmin:8=FIX.4.2|9=66|35=A|34=68|49=BANZAI|52=20231123-19:36:04.277|56=EXEC|98=0|108=30|10=028|
2023-11-23 21:36:04,280 INFO [BanzaiApplication.java:94] - toAdmin:8=FIX.4.2|9=106|35=5|34=69|49=BANZAI|52=20231123-19:36:04.280|56=EXEC|58=MsgSeqNum too low, expecting 120 but received 23|10=073|
2023-11-23 21:36:08,389 INFO [AcceptorIoHandler.java:58] - MINA session created: local=/127.0.0.1:9878, class org.apache.mina.transport.socket.nio.NioSocketSession, remote=/127.0.0.1:61742
2023-11-23 21:36:09,277 INFO [BanzaiApplication.java:94] - toAdmin:8=FIX.4.2|9=66|35=A|34=70|49=BANZAI|52=20231123-19:36:09.277|56=EXEC|98=0|108=30|10=026|
2023-11-23 21:36:09,279 INFO [BanzaiApplication.java:94] - toAdmin:8=FIX.4.2|9=106|35=5|34=71|49=BANZAI|52=20231123-19:36:09.279|56=EXEC|58=MsgSeqNum too low, expecting 120 but received 26|10=082|
2023-11-23 21:36:13,463 INFO [AcceptorIoHandler.java:58] - MINA session created: local=/127.0.0.1:9878, class org.apache.mina.transport.socket.nio.NioSocketSession, remote=/127.0.0.1:61743
2023-11-23 21:36:14,274 INFO [BanzaiApplication.java:94] - toAdmin:8=FIX.4.2|9=66|35=A|34=72|49=BANZAI|52=20231123-19:36:14.274|56=EXEC|98=0|108=30|10=021|
2023-11-23 21:36:14,276 INFO [BanzaiApplication.java:94] - toAdmin:8=FIX.4.2|9=106|35=5|34=73|49=BANZAI|52=20231123-19:36:14.276|56=EXEC|58=MsgSeqNum too low, expecting 120 but received 29|10=080|
2023-11-23 21:36:18,518 INFO [AcceptorIoHandler.java:58] - MINA session created: local=/127.0.0.1:9878, class org.apache.mina.transport.socket.nio.NioSocketSession, remote=/127.0.0.1:61744
2023-11-23 21:36:19,270 INFO [BanzaiApplication.java:94] - toAdmin:8=FIX.4.2|9=66|35=A|34=74|49=BANZAI|52=20231123-19:36:19.270|56=EXEC|98=0|108=30|10=024|
2023-11-23 21:36:19,272 INFO [BanzaiApplication.java:94] - toAdmin:8=FIX.4.2|9=106|35=5|34=75|49=BANZAI|52=20231123-19:36:19.272|56=EXEC|58=MsgSeqNum too low, expecting 120 but received 32|10=077|
2023-11-23 21:36:23,552 INFO [AcceptorIoHandler.java:58] - MINA session created: local=/127.0.0.1:9878, class org.apache.mina.transport.socket.nio.NioSocketSession, remote=/127.0.0.1:61745
2023-11-23 21:36:46,683 INFO [Banzai.java:102] - initiating Banzai!
2023-11-23 21:36:47,488 INFO [Banzai.java:104] - Banzai initiated.
2023-11-23 21:36:47,542 INFO [DefaultSessionSchedule.java:87] - [FIX.4.2:BANZAI->EXEC] daily, 00:00:00-UTC - 00:00:00-UTC
2023-11-23 21:36:47,558 INFO [NetworkingOptions.java:117] - Socket option: SocketTcpNoDelay=true
2023-11-23 21:36:47,558 INFO [NetworkingOptions.java:117] - Socket option: SocketSynchronousWrites=false
2023-11-23 21:36:47,558 INFO [NetworkingOptions.java:117] - Socket option: SocketSynchronousWriteTimeout=30000
2023-11-23 21:36:47,616 INFO [SessionConnector.java:319] - SessionTimer started
2023-11-23 21:36:47,617 INFO [SingleThreadedEventHandlingStrategy.java:144] - Started QFJ Message Processor
2023-11-23 21:36:53,684 INFO [DefaultSessionSchedule.java:87] - [FIX.4.2:EXEC->BANZAI] daily, 00:00:00-UTC - 00:00:00-UTC
2023-11-23 21:36:53,696 INFO [SessionConnector.java:319] - SessionTimer started
2023-11-23 21:36:53,752 INFO [NetworkingOptions.java:117] - Socket option: SocketTcpNoDelay=true
2023-11-23 21:36:53,752 INFO [NetworkingOptions.java:117] - Socket option: SocketSynchronousWrites=false
2023-11-23 21:36:53,752 INFO [NetworkingOptions.java:117] - Socket option: SocketSynchronousWriteTimeout=30000
2023-11-23 21:36:53,760 INFO [AbstractSocketAcceptor.java:118] - Listening for connections at 0.0.0.0/0.0.0.0:9878 for session(s) [FIX.4.2:EXEC->BANZAI]
2023-11-23 21:36:53,760 INFO [SingleThreadedEventHandlingStrategy.java:144] - Started QFJ Message Processor
2023-11-23 21:36:57,744 INFO [AcceptorIoHandler.java:58] - MINA session created: local=/127.0.0.1:9878, class org.apache.mina.transport.socket.nio.NioSocketSession, remote=/127.0.0.1:61755
2023-11-23 21:36:58,646 INFO [BanzaiApplication.java:94] - toAdmin:8=FIX.4.2|9=66|35=A|34=76|49=BANZAI|52=20231123-19:36:58.632|56=EXEC|98=0|108=30|10=031|
2023-11-23 21:36:58,675 INFO [BanzaiApplication.java:94] - toAdmin:8=FIX.4.2|9=105|35=5|34=77|49=BANZAI|52=20231123-19:36:58.675|56=EXEC|58=MsgSeqNum too low, expecting 120 but received 1|10=036|
2023-11-23 21:37:02,794 INFO [AcceptorIoHandler.java:58] - MINA session created: local=/127.0.0.1:9878, class org.apache.mina.transport.socket.nio.NioSocketSession, remote=/127.0.0.1:61759
2023-11-23 21:37:03,618 INFO [BanzaiApplication.java:94] - toAdmin:8=FIX.4.2|9=66|35=A|34=78|49=BANZAI|52=20231123-19:37:03.618|56=EXEC|98=0|108=30|10=028|
2023-11-23 21:37:03,621 INFO [BanzaiApplication.java:94] - toAdmin:8=FIX.4.2|9=105|35=5|34=79|49=BANZAI|52=20231123-19:37:03.621|56=EXEC|58=MsgSeqNum too low, expecting 120 but received 4|10=023|
2023-11-23 21:37:17,093 INFO [DefaultSessionSchedule.java:87] - [FIX.4.2:EXEC->BANZAI] daily, 00:00:00-UTC - 00:00:00-UTC
2023-11-23 21:37:17,105 INFO [SessionConnector.java:319] - SessionTimer started
2023-11-23 21:37:17,162 INFO [NetworkingOptions.java:117] - Socket option: SocketTcpNoDelay=true
2023-11-23 21:37:17,162 INFO [NetworkingOptions.java:117] - Socket option: SocketSynchronousWrites=false
2023-11-23 21:37:17,162 INFO [NetworkingOptions.java:117] - Socket option: SocketSynchronousWriteTimeout=30000
2023-11-23 21:37:17,169 INFO [AbstractSocketAcceptor.java:118] - Listening for connections at 0.0.0.0/0.0.0.0:9878 for session(s) [FIX.4.2:EXEC->BANZAI]
2023-11-23 21:37:17,170 INFO [SingleThreadedEventHandlingStrategy.java:144] - Started QFJ Message Processor
2023-11-23 21:37:21,429 INFO [Banzai.java:102] - initiating Banzai!
2023-11-23 21:37:22,256 INFO [Banzai.java:104] - Banzai initiated.
2023-11-23 21:37:22,309 INFO [DefaultSessionSchedule.java:87] - [FIX.4.2:BANZAI->EXEC] daily, 00:00:00-UTC - 00:00:00-UTC
2023-11-23 21:37:22,325 INFO [NetworkingOptions.java:117] - Socket option: SocketTcpNoDelay=true
2023-11-23 21:37:22,325 INFO [NetworkingOptions.java:117] - Socket option: SocketSynchronousWrites=false
2023-11-23 21:37:22,325 INFO [NetworkingOptions.java:117] - Socket option: SocketSynchronousWriteTimeout=30000
2023-11-23 21:37:22,389 INFO [SessionConnector.java:319] - SessionTimer started
2023-11-23 21:37:22,390 INFO [SingleThreadedEventHandlingStrategy.java:144] - Started QFJ Message Processor
2023-11-23 21:37:22,393 INFO [AcceptorIoHandler.java:58] - MINA session created: local=/127.0.0.1:9878, class org.apache.mina.transport.socket.nio.NioSocketSession, remote=/127.0.0.1:61767
2023-11-23 21:37:23,410 INFO [BanzaiApplication.java:94] - toAdmin:8=FIX.4.2|9=65|35=A|34=1|49=BANZAI|52=20231123-19:37:23.396|56=EXEC|98=0|108=30|10=226|
2023-11-23 21:37:23,447 INFO [BanzaiApplication.java:106] - fromAdmin:8=FIX.4.2|9=65|35=A|34=7|49=EXEC|52=20231123-19:37:23.420|56=BANZAI|98=0|108=30|10=220|
2023-11-23 21:37:23,448 INFO [BanzaiApplication.java:94] - toAdmin:8=FIX.4.2|9=62|35=2|34=2|49=BANZAI|52=20231123-19:37:23.448|56=EXEC|7=1|16=0|10=049|
2023-11-23 21:37:23,453 INFO [BanzaiApplication.java:106] - fromAdmin:8=FIX.4.2|9=95|35=4|34=1|43=Y|49=EXEC|52=20231123-19:37:23.450|56=BANZAI|122=20231123-19:37:23.450|36=8|123=Y|10=194|
2023-11-23 21:37:39,631 INFO [BanzaiApplication.java:100] - toApp:8=FIX.4.2|9=130|35=D|34=3|49=BANZAI|52=20231123-19:37:39.631|56=EXEC|11=1700768259627|21=1|38=100|40=1|54=1|55=AAPL|59=0|60=20231123-19:37:39.630|10=117|
2023-11-23 21:37:39,648 INFO [BanzaiApplication.java:112] - fromApp:8=FIX.4.2|9=145|35=8|34=8|49=EXEC|52=20231123-19:37:39.643|56=BANZAI|6=0|11=1700768259627|14=0|17=0|20=0|37=1700768259627|38=100|39=0|54=1|55=AAPL|150=0|151=100|10=209|
2023-11-23 21:37:48,638 INFO [BanzaiApplication.java:100] - toApp:8=FIX.4.2|9=129|35=D|34=4|49=BANZAI|52=20231123-19:37:48.638|56=EXEC|11=1700768268639|21=1|38=20|40=1|54=2|55=AAPL|59=0|60=20231123-19:37:48.637|10=097|
2023-11-23 21:37:48,640 INFO [BanzaiApplication.java:112] - fromApp:8=FIX.4.2|9=143|35=8|34=9|49=EXEC|52=20231123-19:37:48.639|56=BANZAI|6=0|11=1700768268639|14=0|17=1|20=0|37=1700768268639|38=20|39=0|54=2|55=AAPL|150=0|151=20|10=127|
2023-11-23 21:37:48,640 INFO [BanzaiApplication.java:112] - fromApp:8=FIX.4.2|9=155|35=8|34=10|49=EXEC|52=20231123-19:37:48.639|56=BANZAI|6=0|11=1700768268639|14=20|17=2|20=0|31=0|32=20|37=1700768268639|38=20|39=2|54=2|55=AAPL|150=2|151=0|10=134|
2023-11-23 21:37:48,640 INFO [BanzaiApplication.java:112] - fromApp:8=FIX.4.2|9=157|35=8|34=11|49=EXEC|52=20231123-19:37:48.640|56=BANZAI|6=0|11=1700768259627|14=20|17=3|20=0|31=0|32=20|37=1700768259627|38=100|39=1|54=1|55=AAPL|150=1|151=80|10=224|
2023-11-23 21:37:53,698 INFO [BanzaiApplication.java:100] - toApp:8=FIX.4.2|9=129|35=D|34=5|49=BANZAI|52=20231123-19:37:53.698|56=EXEC|11=1700768273700|21=1|38=30|40=1|54=2|55=AAPL|59=0|60=20231123-19:37:53.697|10=088|
2023-11-23 21:37:53,708 INFO [BanzaiApplication.java:112] - fromApp:8=FIX.4.2|9=144|35=8|34=12|49=EXEC|52=20231123-19:37:53.707|56=BANZAI|6=0|11=1700768273700|14=0|17=4|20=0|37=1700768273700|38=30|39=0|54=2|55=AAPL|150=0|151=30|10=137|
2023-11-23 21:37:53,709 INFO [BanzaiApplication.java:112] - fromApp:8=FIX.4.2|9=155|35=8|34=13|49=EXEC|52=20231123-19:37:53.708|56=BANZAI|6=0|11=1700768273700|14=30|17=5|20=0|31=0|32=30|37=1700768273700|38=30|39=2|54=2|55=AAPL|150=2|151=0|10=106|
2023-11-23 21:37:53,709 INFO [BanzaiApplication.java:112] - fromApp:8=FIX.4.2|9=157|35=8|34=14|49=EXEC|52=20231123-19:37:53.708|56=BANZAI|6=0|11=1700768259627|14=50|17=6|20=0|31=0|32=30|37=1700768259627|38=100|39=1|54=1|55=AAPL|150=1|151=50|10=232|
2023-11-23 21:37:54,391 INFO [BanzaiApplication.java:100] - toApp:8=FIX.4.2|9=129|35=D|34=6|49=BANZAI|52=20231123-19:37:54.391|56=EXEC|11=1700768274394|21=1|38=30|40=1|54=2|55=AAPL|59=0|60=20231123-19:37:54.390|10=081|
2023-11-23 21:37:54,393 INFO [BanzaiApplication.java:112] - fromApp:8=FIX.4.2|9=144|35=8|34=15|49=EXEC|52=20231123-19:37:54.392|56=BANZAI|6=0|11=1700768274394|14=0|17=7|20=0|37=1700768274394|38=30|39=0|54=2|55=AAPL|150=0|151=30|10=164|
2023-11-23 21:37:54,393 INFO [BanzaiApplication.java:112] - fromApp:8=FIX.4.2|9=155|35=8|34=16|49=EXEC|52=20231123-19:37:54.392|56=BANZAI|6=0|11=1700768274394|14=30|17=8|20=0|31=0|32=30|37=1700768274394|38=30|39=2|54=2|55=AAPL|150=2|151=0|10=132|
2023-11-23 21:37:54,393 INFO [BanzaiApplication.java:112] - fromApp:8=FIX.4.2|9=157|35=8|34=17|49=EXEC|52=20231123-19:37:54.392|56=BANZAI|6=0|11=1700768259627|14=80|17=9|20=0|31=0|32=30|37=1700768259627|38=100|39=1|54=1|55=AAPL|150=1|151=20|10=238|
2023-11-23 21:37:57,904 INFO [BanzaiApplication.java:100] - toApp:8=FIX.4.2|9=129|35=D|34=7|49=BANZAI|52=20231123-19:37:57.904|56=EXEC|11=1700768277909|21=1|38=20|40=1|54=2|55=AAPL|59=0|60=20231123-19:37:57.904|10=093|
2023-11-23 21:37:57,906 INFO [BanzaiApplication.java:112] - fromApp:8=FIX.4.2|9=145|35=8|34=18|49=EXEC|52=20231123-19:37:57.905|56=BANZAI|6=0|11=1700768277909|14=0|17=10|20=0|37=1700768277909|38=20|39=0|54=2|55=AAPL|150=0|151=20|10=221|
2023-11-23 21:37:57,906 INFO [BanzaiApplication.java:112] - fromApp:8=FIX.4.2|9=156|35=8|34=19|49=EXEC|52=20231123-19:37:57.905|56=BANZAI|6=0|11=1700768277909|14=20|17=11|20=0|31=0|32=20|37=1700768277909|38=20|39=2|54=2|55=AAPL|150=2|151=0|10=188|
2023-11-23 21:37:57,906 INFO [BanzaiApplication.java:112] - fromApp:8=FIX.4.2|9=158|35=8|34=20|49=EXEC|52=20231123-19:37:57.906|56=BANZAI|6=0|11=1700768259627|14=100|17=12|20=0|31=0|32=20|37=1700768259627|38=100|39=2|54=1|55=AAPL|150=2|151=0|10=015|
2023-11-23 21:38:08,837 INFO [BanzaiApplication.java:100] - toApp:8=FIX.4.2|9=137|35=D|34=8|49=BANZAI|52=20231123-19:38:08.836|56=EXEC|11=1700768288842|21=1|38=200|40=2|44=100|54=2|55=AAPL|59=0|60=20231123-19:38:08.836|10=197|
2023-11-23 21:38:08,839 INFO [BanzaiApplication.java:112] - fromApp:8=FIX.4.2|9=147|35=8|34=21|49=EXEC|52=20231123-19:38:08.838|56=BANZAI|6=0|11=1700768288842|14=0|17=13|20=0|37=1700768288842|38=200|39=0|54=2|55=AAPL|150=0|151=200|10=058|
2023-11-23 21:38:21,959 INFO [BanzaiApplication.java:100] - toApp:8=FIX.4.2|9=135|35=D|34=9|49=BANZAI|52=20231123-19:38:21.959|56=EXEC|11=1700768301966|21=1|38=40|40=2|44=50|54=1|55=AAPL|59=0|60=20231123-19:38:21.959|10=100|
2023-11-23 21:38:21,961 INFO [BanzaiApplication.java:112] - fromApp:8=FIX.4.2|9=145|35=8|34=22|49=EXEC|52=20231123-19:38:21.960|56=BANZAI|6=0|11=1700768301966|14=0|17=14|20=0|37=1700768301966|38=40|39=0|54=1|55=AAPL|150=0|151=40|10=198|
2023-11-23 21:38:34,338 INFO [BanzaiApplication.java:100] - toApp:8=FIX.4.2|9=137|35=D|34=10|49=BANZAI|52=20231123-19:38:34.338|56=EXEC|11=1700768314346|21=1|38=40|40=2|44=150|54=1|55=AAPL|59=0|60=20231123-19:38:34.338|10=177|
2023-11-23 21:38:34,340 INFO [BanzaiApplication.java:112] - fromApp:8=FIX.4.2|9=145|35=8|34=23|49=EXEC|52=20231123-19:38:34.339|56=BANZAI|6=0|11=1700768314346|14=0|17=15|20=0|37=1700768314346|38=40|39=0|54=1|55=AAPL|150=0|151=40|10=196|
2023-11-23 21:38:39,482 INFO [BanzaiApplication.java:100] - toApp:8=FIX.4.2|9=137|35=D|34=11|49=BANZAI|52=20231123-19:38:39.481|56=EXEC|11=1700768319490|21=1|38=40|40=2|44=100|54=1|55=AAPL|59=0|60=20231123-19:38:39.481|10=186|
2023-11-23 21:38:39,483 INFO [BanzaiApplication.java:112] - fromApp:8=FIX.4.2|9=145|35=8|34=24|49=EXEC|52=20231123-19:38:39.483|56=BANZAI|6=0|11=1700768319490|14=0|17=16|20=0|37=1700768319490|38=40|39=0|54=1|55=AAPL|150=0|151=40|10=213|
2023-11-23 21:38:44,663 INFO [BanzaiApplication.java:100] - toApp:8=FIX.4.2|9=138|35=D|34=12|49=BANZAI|52=20231123-19:38:44.662|56=EXEC|11=1700768324672|21=1|38=40|40=2|44=1000|54=1|55=AAPL|59=0|60=20231123-19:38:44.662|10=228|
2023-11-23 21:38:44,664 INFO [BanzaiApplication.java:112] - fromApp:8=FIX.4.2|9=145|35=8|34=25|49=EXEC|52=20231123-19:38:44.664|56=BANZAI|6=0|11=1700768324672|14=0|17=17|20=0|37=1700768324672|38=40|39=0|54=1|55=AAPL|150=0|151=40|10=208|
2023-11-23 21:38:56,098 INFO [BanzaiApplication.java:100] - toApp:8=FIX.4.2|9=138|35=D|34=13|49=BANZAI|52=20231123-19:38:56.098|56=EXEC|11=1700768336109|21=1|38=200|40=2|44=100|54=1|55=AAPL|59=0|60=20231123-19:38:56.098|10=237|
2023-11-23 21:38:56,100 INFO [BanzaiApplication.java:112] - fromApp:8=FIX.4.2|9=147|35=8|34=26|49=EXEC|52=20231123-19:38:56.099|56=BANZAI|6=0|11=1700768336109|14=0|17=18|20=0|37=1700768336109|38=200|39=0|54=1|55=AAPL|150=0|151=200|10=049|
2023-11-23 21:39:09,343 INFO [BanzaiApplication.java:100] - toApp:8=FIX.4.2|9=130|35=D|34=14|49=BANZAI|52=20231123-19:39:09.343|56=EXEC|11=1700768349355|21=1|38=50|40=1|54=1|55=AAPL|59=0|60=20231123-19:39:09.343|10=120|
2023-11-23 21:39:09,345 INFO [BanzaiApplication.java:112] - fromApp:8=FIX.4.2|9=145|35=8|34=27|49=EXEC|52=20231123-19:39:09.345|56=BANZAI|6=0|11=1700768349355|14=0|17=19|20=0|37=1700768349355|38=50|39=0|54=1|55=AAPL|150=0|151=50|10=222|
2023-11-23 21:39:09,346 INFO [BanzaiApplication.java:112] - fromApp:8=FIX.4.2|9=163|35=8|34=28|49=EXEC|52=20231123-19:39:09.345|56=BANZAI|6=100|11=1700768288842|14=50|17=20|20=0|31=100|32=50|37=1700768288842|38=200|39=1|54=2|55=AAPL|150=1|151=150|10=015|
2023-11-23 21:39:09,346 INFO [BanzaiApplication.java:112] - fromApp:8=FIX.4.2|9=158|35=8|34=29|49=EXEC|52=20231123-19:39:09.345|56=BANZAI|6=100|11=1700768349355|14=50|17=21|20=0|31=0|32=50|37=1700768349355|38=50|39=2|54=1|55=AAPL|150=2|151=0|10=028|
2023-11-23 21:39:15,612 INFO [BanzaiApplication.java:100] - toApp:8=FIX.4.2|9=137|35=D|34=15|49=BANZAI|52=20231123-19:39:15.612|56=EXEC|11=1700768355625|21=1|38=50|40=2|44=100|54=1|55=AAPL|59=0|60=20231123-19:39:15.612|10=173|
2023-11-23 21:39:15,614 INFO [BanzaiApplication.java:112] - fromApp:8=FIX.4.2|9=145|35=8|34=30|49=EXEC|52=20231123-19:39:15.613|56=BANZAI|6=0|11=1700768355625|14=0|17=22|20=0|37=1700768355625|38=50|39=0|54=1|55=AAPL|150=0|151=50|10=199|
2023-11-23 21:39:18,811 INFO [BanzaiApplication.java:100] - toApp:8=FIX.4.2|9=137|35=D|34=16|49=BANZAI|52=20231123-19:39:18.810|56=EXEC|11=1700768358824|21=1|38=50|40=2|44=100|54=2|55=AAPL|59=0|60=20231123-19:39:18.810|10=185|
2023-11-23 21:39:18,812 INFO [BanzaiApplication.java:112] - fromApp:8=FIX.4.2|9=145|35=8|34=31|49=EXEC|52=20231123-19:39:18.812|56=BANZAI|6=0|11=1700768358824|14=0|17=23|20=0|37=1700768358824|38=50|39=0|54=2|55=AAPL|150=0|151=50|10=214|
2023-11-23 21:39:24,428 INFO [BanzaiApplication.java:100] - toApp:8=FIX.4.2|9=130|35=D|34=17|49=BANZAI|52=20231123-19:39:24.428|56=EXEC|11=1700768364443|21=1|38=50|40=1|54=2|55=AAPL|59=0|60=20231123-19:39:24.428|10=121|
2023-11-23 21:39:24,430 INFO [BanzaiApplication.java:112] - fromApp:8=FIX.4.2|9=145|35=8|34=32|49=EXEC|52=20231123-19:39:24.429|56=BANZAI|6=0|11=1700768364443|14=0|17=24|20=0|37=1700768364443|38=50|39=0|54=2|55=AAPL|150=0|151=50|10=205|
2023-11-23 21:39:24,430 INFO [BanzaiApplication.java:112] - fromApp:8=FIX.4.2|9=160|35=8|34=33|49=EXEC|52=20231123-19:39:24.430|56=BANZAI|6=100|11=1700768358824|14=50|17=25|20=0|31=100|32=50|37=1700768358824|38=50|39=2|54=2|55=AAPL|150=2|151=0|10=112|
2023-11-23 21:39:24,431 INFO [BanzaiApplication.java:112] - fromApp:8=FIX.4.2|9=163|35=8|34=34|49=EXEC|52=20231123-19:39:24.430|56=BANZAI|6=100|11=1700768336109|14=90|17=26|20=0|31=100|32=50|37=1700768336109|38=200|39=1|54=1|55=AAPL|150=1|151=110|10=245|
2023-11-23 21:39:24,431 INFO [BanzaiApplication.java:112] - fromApp:8=FIX.4.2|9=161|35=8|34=35|49=EXEC|52=20231123-19:39:24.430|56=BANZAI|6=100|11=1700768324672|14=40|17=27|20=0|31=1000|32=40|37=1700768324672|38=40|39=2|54=1|55=AAPL|150=2|151=0|10=149|
2023-11-23 21:39:24,431 INFO [BanzaiApplication.java:112] - fromApp:8=FIX.4.2|9=160|35=8|34=36|49=EXEC|52=20231123-19:39:24.430|56=BANZAI|6=100|11=1700768319490|14=40|17=28|20=0|31=100|32=40|37=1700768319490|38=40|39=2|54=1|55=AAPL|150=2|151=0|10=106|
2023-11-23 21:39:24,432 INFO [BanzaiApplication.java:112] - fromApp:8=FIX.4.2|9=162|35=8|34=37|49=EXEC|52=20231123-19:39:24.431|56=BANZAI|6=100|11=1700768288842|14=200|17=29|20=0|31=100|32=40|37=1700768288842|38=200|39=2|54=2|55=AAPL|150=2|151=0|10=216|
2023-11-23 21:39:24,432 INFO [BanzaiApplication.java:112] - fromApp:8=FIX.4.2|9=162|35=8|34=38|49=EXEC|52=20231123-19:39:24.431|56=BANZAI|6=112.5|11=1700768314346|14=40|17=30|20=0|31=150|32=30|37=1700768314346|38=40|39=2|54=1|55=AAPL|150=2|151=0|10=200|
2023-11-23 21:39:24,432 INFO [BanzaiApplication.java:112] - fromApp:8=FIX.4.2|9=157|35=8|34=39|49=EXEC|52=20231123-19:39:24.431|56=BANZAI|6=70|11=1700768364443|14=50|17=31|20=0|31=0|32=10|37=1700768364443|38=50|39=2|54=2|55=AAPL|150=2|151=0|10=223|
2023-11-23 21:39:24,432 INFO [BanzaiApplication.java:112] - fromApp:8=FIX.4.2|9=158|35=8|34=40|49=EXEC|52=20231123-19:39:24.432|56=BANZAI|6=50|11=1700768301966|14=40|17=32|20=0|31=50|32=40|37=1700768301966|38=40|39=2|54=1|55=AAPL|150=2|151=0|10=015|
2023-11-23 21:39:29,214 INFO [BanzaiApplication.java:100] - toApp:8=FIX.4.2|9=130|35=D|34=18|49=BANZAI|52=20231123-19:39:29.214|56=EXEC|11=1700768369230|21=1|38=50|40=1|54=2|55=AAPL|59=0|60=20231123-19:39:29.214|10=117|
2023-11-23 21:39:29,216 INFO [BanzaiApplication.java:112] - fromApp:8=FIX.4.2|9=145|35=8|34=41|49=EXEC|52=20231123-19:39:29.215|56=BANZAI|6=0|11=1700768369230|14=0|17=33|20=0|37=1700768369230|38=50|39=0|54=2|55=AAPL|150=0|151=50|10=201|
2023-11-23 21:39:29,216 INFO [BanzaiApplication.java:112] - fromApp:8=FIX.4.2|9=158|35=8|34=42|49=EXEC|52=20231123-19:39:29.215|56=BANZAI|6=100|11=1700768369230|14=50|17=34|20=0|31=0|32=50|37=1700768369230|38=50|39=2|54=2|55=AAPL|150=2|151=0|10=014|
2023-11-23 21:39:29,216 INFO [BanzaiApplication.java:112] - fromApp:8=FIX.4.2|9=163|35=8|34=43|49=EXEC|52=20231123-19:39:29.215|56=BANZAI|6=100|11=1700768336109|14=140|17=35|20=0|31=100|32=50|37=1700768336109|38=200|39=1|54=1|55=AAPL|150=1|151=60|10=251|
2023-11-23 21:39:30,371 INFO [BanzaiApplication.java:100] - toApp:8=FIX.4.2|9=130|35=D|34=19|49=BANZAI|52=20231123-19:39:30.371|56=EXEC|11=1700768370388|21=1|38=50|40=1|54=2|55=AAPL|59=0|60=20231123-19:39:30.371|10=116|
2023-11-23 21:39:30,373 INFO [BanzaiApplication.java:112] - fromApp:8=FIX.4.2|9=145|35=8|34=44|49=EXEC|52=20231123-19:39:30.372|56=BANZAI|6=0|11=1700768370388|14=0|17=36|20=0|37=1700768370388|38=50|39=0|54=2|55=AAPL|150=0|151=50|10=215|
2023-11-23 21:39:30,373 INFO [BanzaiApplication.java:112] - fromApp:8=FIX.4.2|9=158|35=8|34=45|49=EXEC|52=20231123-19:39:30.372|56=BANZAI|6=100|11=1700768370388|14=50|17=37|20=0|31=0|32=50|37=1700768370388|38=50|39=2|54=2|55=AAPL|150=2|151=0|10=028|
2023-11-23 21:39:30,373 INFO [BanzaiApplication.java:112] - fromApp:8=FIX.4.2|9=163|35=8|34=46|49=EXEC|52=20231123-19:39:30.372|56=BANZAI|6=100|11=1700768336109|14=190|17=38|20=0|31=100|32=50|37=1700768336109|38=200|39=1|54=1|55=AAPL|150=1|151=10|10=253|
2023-11-23 21:39:30,922 INFO [BanzaiApplication.java:100] - toApp:8=FIX.4.2|9=130|35=D|34=20|49=BANZAI|52=20231123-19:39:30.922|56=EXEC|11=1700768370940|21=1|38=50|40=1|54=2|55=AAPL|59=0|60=20231123-19:39:30.922|10=106|
2023-11-23 21:39:30,924 INFO [BanzaiApplication.java:112] - fromApp:8=FIX.4.2|9=145|35=8|34=47|49=EXEC|52=20231123-19:39:30.923|56=BANZAI|6=0|11=1700768370940|14=0|17=39|20=0|37=1700768370940|38=50|39=0|54=2|55=AAPL|150=0|151=50|10=211|
2023-11-23 21:39:30,924 INFO [BanzaiApplication.java:112] - fromApp:8=FIX.4.2|9=161|35=8|34=48|49=EXEC|52=20231123-19:39:30.923|56=BANZAI|6=100|11=1700768355625|14=40|17=40|20=0|31=100|32=40|37=1700768355625|38=50|39=1|54=1|55=AAPL|150=1|151=10|10=156|
2023-11-23 21:39:30,924 INFO [BanzaiApplication.java:112] - fromApp:8=FIX.4.2|9=158|35=8|34=49|49=EXEC|52=20231123-19:39:30.924|56=BANZAI|6=100|11=1700768370940|14=50|17=41|20=0|31=0|32=40|37=1700768370940|38=50|39=2|54=2|55=AAPL|150=2|151=0|10=017|
2023-11-23 21:39:30,924 INFO [BanzaiApplication.java:112] - fromApp:8=FIX.4.2|9=162|35=8|34=50|49=EXEC|52=20231123-19:39:30.924|56=BANZAI|6=100|11=1700768336109|14=200|17=42|20=0|31=100|32=10|37=1700768336109|38=200|39=2|54=1|55=AAPL|150=2|151=0|10=186|
2023-11-23 21:39:35,881 INFO [BanzaiApplication.java:100] - toApp:8=FIX.4.2|9=130|35=D|34=21|49=BANZAI|52=20231123-19:39:35.881|56=EXEC|11=1700768375900|21=1|38=50|40=1|54=2|55=AAPL|59=0|60=20231123-19:39:35.881|10=126|
2023-11-23 21:39:35,883 INFO [BanzaiApplication.java:112] - fromApp:8=FIX.4.2|9=145|35=8|34=51|49=EXEC|52=20231123-19:39:35.882|56=BANZAI|6=0|11=1700768375900|14=0|17=43|20=0|37=1700768375900|38=50|39=0|54=2|55=AAPL|150=0|151=50|10=212|
2023-11-23 21:39:35,883 INFO [BanzaiApplication.java:112] - fromApp:8=FIX.4.2|9=159|35=8|34=52|49=EXEC|52=20231123-19:39:35.883|56=BANZAI|6=100|11=1700768375900|14=10|17=44|20=0|31=0|32=10|37=1700768375900|38=50|39=1|54=2|55=AAPL|150=1|151=40|10=069|
2023-11-23 21:39:35,883 INFO [BanzaiApplication.java:112] - fromApp:8=FIX.4.2|9=160|35=8|34=53|49=EXEC|52=20231123-19:39:35.883|56=BANZAI|6=100|11=1700768355625|14=50|17=45|20=0|31=100|32=10|37=1700768355625|38=50|39=2|54=1|55=AAPL|150=2|151=0|10=117|
2023-11-23 21:39:38,027 INFO [BanzaiApplication.java:100] - toApp:8=FIX.4.2|9=130|35=D|34=22|49=BANZAI|52=20231123-19:39:38.027|56=EXEC|11=1700768378047|21=1|38=50|40=1|54=2|55=AAPL|59=0|60=20231123-19:39:38.027|10=122|
2023-11-23 21:39:38,029 INFO [BanzaiApplication.java:112] - fromApp:8=FIX.4.2|9=145|35=8|34=54|49=EXEC|52=20231123-19:39:38.028|56=BANZAI|6=0|11=1700768378047|14=0|17=46|20=0|37=1700768378047|38=50|39=0|54=2|55=AAPL|150=0|151=50|10=223|
2023-11-23 21:39:52,653 INFO [BanzaiApplication.java:100] - toApp:8=FIX.4.2|9=130|35=D|34=23|49=BANZAI|52=20231123-19:39:52.653|56=EXEC|11=1700768392674|21=1|38=40|40=1|54=1|55=AAPL|59=0|60=20231123-19:39:52.653|10=125|
2023-11-23 21:39:52,656 INFO [BanzaiApplication.java:112] - fromApp:8=FIX.4.2|9=145|35=8|34=55|49=EXEC|52=20231123-19:39:52.655|56=BANZAI|6=0|11=1700768392674|14=0|17=47|20=0|37=1700768392674|38=40|39=0|54=1|55=AAPL|150=0|151=40|10=228|
2023-11-23 21:39:52,656 INFO [BanzaiApplication.java:112] - fromApp:8=FIX.4.2|9=157|35=8|34=56|49=EXEC|52=20231123-19:39:52.655|56=BANZAI|6=0|11=1700768378047|14=40|17=48|20=0|31=0|32=40|37=1700768378047|38=50|39=1|54=2|55=AAPL|150=1|151=10|10=243|
2023-11-23 21:39:52,656 INFO [BanzaiApplication.java:112] - fromApp:8=FIX.4.2|9=156|35=8|34=57|49=EXEC|52=20231123-19:39:52.656|56=BANZAI|6=0|11=1700768392674|14=40|17=49|20=0|31=0|32=40|37=1700768392674|38=40|39=2|54=1|55=AAPL|150=2|151=0|10=200|
2023-11-23 21:40:05,970 INFO [BanzaiApplication.java:100] - toApp:8=FIX.4.2|9=130|35=D|34=24|49=BANZAI|52=20231123-19:40:05.970|56=EXEC|11=1700768405992|21=1|38=40|40=1|54=1|55=AAPL|59=0|60=20231123-19:40:05.970|10=108|
2023-11-23 21:40:05,972 INFO [BanzaiApplication.java:112] - fromApp:8=FIX.4.2|9=145|35=8|34=58|49=EXEC|52=20231123-19:40:05.972|56=BANZAI|6=0|11=1700768405992|14=0|17=50|20=0|37=1700768405992|38=40|39=0|54=1|55=AAPL|150=0|151=40|10=213|
2023-11-23 21:40:05,973 INFO [BanzaiApplication.java:112] - fromApp:8=FIX.4.2|9=158|35=8|34=59|49=EXEC|52=20231123-19:40:05.972|56=BANZAI|6=25|11=1700768375900|14=40|17=51|20=0|31=0|32=30|37=1700768375900|38=50|39=1|54=2|55=AAPL|150=1|151=10|10=021|
2023-11-23 21:40:05,973 INFO [BanzaiApplication.java:112] - fromApp:8=FIX.4.2|9=156|35=8|34=60|49=EXEC|52=20231123-19:40:05.972|56=BANZAI|6=0|11=1700768378047|14=50|17=52|20=0|31=0|32=10|37=1700768378047|38=50|39=2|54=2|55=AAPL|150=2|151=0|10=175|
2023-11-23 21:40:05,973 INFO [BanzaiApplication.java:112] - fromApp:8=FIX.4.2|9=156|35=8|34=61|49=EXEC|52=20231123-19:40:05.972|56=BANZAI|6=0|11=1700768405992|14=40|17=53|20=0|31=0|32=30|37=1700768405992|38=40|39=2|54=1|55=AAPL|150=2|151=0|10=176|
2023-11-23 21:40:11,643 INFO [BanzaiApplication.java:100] - toApp:8=FIX.4.2|9=130|35=D|34=25|49=BANZAI|52=20231123-19:40:11.643|56=EXEC|11=1700768411666|21=1|38=20|40=1|54=1|55=AAPL|59=0|60=20231123-19:40:11.643|10=090|
2023-11-23 21:40:11,645 INFO [BanzaiApplication.java:112] - fromApp:8=FIX.4.2|9=145|35=8|34=62|49=EXEC|52=20231123-19:40:11.644|56=BANZAI|6=0|11=1700768411666|14=0|17=54|20=0|37=1700768411666|38=20|39=0|54=1|55=AAPL|150=0|151=20|10=191|
2023-11-23 21:40:11,645 INFO [BanzaiApplication.java:112] - fromApp:8=FIX.4.2|9=157|35=8|34=63|49=EXEC|52=20231123-19:40:11.644|56=BANZAI|6=20|11=1700768375900|14=50|17=55|20=0|31=0|32=10|37=1700768375900|38=50|39=2|54=2|55=AAPL|150=2|151=0|10=215|
2023-11-23 21:40:11,645 INFO [BanzaiApplication.java:112] - fromApp:8=FIX.4.2|9=157|35=8|34=64|49=EXEC|52=20231123-19:40:11.644|56=BANZAI|6=0|11=1700768411666|14=10|17=56|20=0|31=0|32=10|37=1700768411666|38=20|39=1|54=1|55=AAPL|150=1|151=10|10=206|
2023-11-23 21:40:13,240 INFO [BanzaiApplication.java:100] - toApp:8=FIX.4.2|9=130|35=D|34=26|49=BANZAI|52=20231123-19:40:13.240|56=EXEC|11=1700768413264|21=1|38=20|40=1|54=1|55=AAPL|59=0|60=20231123-19:40:13.240|10=077|
2023-11-23 21:40:13,242 INFO [BanzaiApplication.java:112] - fromApp:8=FIX.4.2|9=145|35=8|34=65|49=EXEC|52=20231123-19:40:13.241|56=BANZAI|6=0|11=1700768413264|14=0|17=57|20=0|37=1700768413264|38=20|39=0|54=1|55=AAPL|150=0|151=20|10=184|
2023-11-23 21:40:20,665 INFO [BanzaiApplication.java:100] - toApp:8=FIX.4.2|9=130|35=D|34=27|49=BANZAI|52=20231123-19:40:20.665|56=EXEC|11=1700768420690|21=1|38=20|40=1|54=2|55=AAPL|59=0|60=20231123-19:40:20.665|10=098|
2023-11-23 21:40:20,666 INFO [BanzaiApplication.java:112] - fromApp:8=FIX.4.2|9=145|35=8|34=66|49=EXEC|52=20231123-19:40:20.666|56=BANZAI|6=0|11=1700768420690|14=0|17=58|20=0|37=1700768420690|38=20|39=0|54=2|55=AAPL|150=0|151=20|10=198|
2023-11-23 21:40:20,667 INFO [BanzaiApplication.java:112] - fromApp:8=FIX.4.2|9=156|35=8|34=67|49=EXEC|52=20231123-19:40:20.666|56=BANZAI|6=0|11=1700768420690|14=20|17=59|20=0|31=0|32=20|37=1700768420690|38=20|39=2|54=2|55=AAPL|150=2|151=0|10=165|
2023-11-23 21:40:20,667 INFO [BanzaiApplication.java:112] - fromApp:8=FIX.4.2|9=156|35=8|34=68|49=EXEC|52=20231123-19:40:20.666|56=BANZAI|6=0|11=1700768413264|14=20|17=60|20=0|31=0|32=20|37=1700768413264|38=20|39=2|54=1|55=AAPL|150=2|151=0|10=155|
