2024-01-03 05:06:03,696 INFO [OrderEntryApplication.java:68] - toAdmin:8=FIX.4.2|9=73|35=A|34=39|49=ORDERENTRY1|52=20240103-03:06:03.696|56=ENGINE|98=0|108=30|10=043|
2024-01-03 05:06:03,699 INFO [OrderEntryApplication.java:78] - fromAdmin:8=FIX.4.2|9=112|35=5|34=79|49=ENGINE|52=20240103-03:06:03.698|56=ORDERENTRY1|58=MsgSeqNum too low, expecting 48 but received 39|10=066|
2024-01-03 05:06:03,699 INFO [OrderEntryApplication.java:68] - toAdmin:8=FIX.4.2|9=61|35=5|34=40|49=ORDERENTRY1|52=20240103-03:06:03.699|56=ENGINE|10=254|
2024-01-03 05:06:08,697 INFO [OrderEntryApplication.java:68] - toAdmin:8=FIX.4.2|9=73|35=A|34=41|49=ORDERENTRY1|52=20240103-03:06:08.697|56=ENGINE|98=0|108=30|10=042|
2024-01-03 05:06:08,699 INFO [OrderEntryApplication.java:78] - fromAdmin:8=FIX.4.2|9=112|35=5|34=80|49=ENGINE|52=20240103-03:06:08.698|56=ORDERENTRY1|58=MsgSeqNum too low, expecting 48 but received 41|10=056|
2024-01-03 05:06:08,707 INFO [OrderEntryApplication.java:68] - toAdmin:8=FIX.4.2|9=61|35=5|34=42|49=ORDERENTRY1|52=20240103-03:06:08.707|56=ENGINE|10=251|
2024-01-03 05:06:13,687 INFO [OrderEntryApplication.java:68] - toAdmin:8=FIX.4.2|9=73|35=A|34=43|49=ORDERENTRY1|52=20240103-03:06:13.687|56=ENGINE|98=0|108=30|10=039|
2024-01-03 05:06:13,689 INFO [OrderEntryApplication.java:78] - fromAdmin:8=FIX.4.2|9=112|35=5|34=81|49=ENGINE|52=20240103-03:06:13.688|56=ORDERENTRY1|58=MsgSeqNum too low, expecting 48 but received 43|10=054|
2024-01-03 05:06:13,689 INFO [OrderEntryApplication.java:68] - toAdmin:8=FIX.4.2|9=61|35=5|34=44|49=ORDERENTRY1|52=20240103-03:06:13.689|56=ENGINE|10=002|
2024-01-03 05:06:18,689 INFO [OrderEntryApplication.java:68] - toAdmin:8=FIX.4.2|9=73|35=A|34=45|49=ORDERENTRY1|52=20240103-03:06:18.689|56=ENGINE|98=0|108=30|10=048|
2024-01-03 05:06:18,691 INFO [OrderEntryApplication.java:78] - fromAdmin:8=FIX.4.2|9=112|35=5|34=82|49=ENGINE|52=20240103-03:06:18.690|56=ORDERENTRY1|58=MsgSeqNum too low, expecting 48 but received 45|10=055|
2024-01-03 05:06:18,691 INFO [OrderEntryApplication.java:68] - toAdmin:8=FIX.4.2|9=61|35=5|34=46|49=ORDERENTRY1|52=20240103-03:06:18.691|56=ENGINE|10=002|
2024-01-03 05:06:23,688 INFO [OrderEntryApplication.java:68] - toAdmin:8=FIX.4.2|9=73|35=A|34=47|49=ORDERENTRY1|52=20240103-03:06:23.688|56=ENGINE|98=0|108=30|10=045|
2024-01-03 05:06:23,690 INFO [OrderEntryApplication.java:78] - fromAdmin:8=FIX.4.2|9=112|35=5|34=83|49=ENGINE|52=20240103-03:06:23.689|56=ORDERENTRY1|58=MsgSeqNum too low, expecting 48 but received 47|10=062|
2024-01-03 05:06:23,690 INFO [OrderEntryApplication.java:68] - toAdmin:8=FIX.4.2|9=61|35=5|34=48|49=ORDERENTRY1|52=20240103-03:06:23.690|56=ENGINE|10=255|
2024-01-03 05:06:28,685 INFO [OrderEntryApplication.java:68] - toAdmin:8=FIX.4.2|9=73|35=A|34=49|49=ORDERENTRY1|52=20240103-03:06:28.685|56=ENGINE|98=0|108=30|10=049|
2024-01-03 05:06:28,688 INFO [OrderEntryApplication.java:78] - fromAdmin:8=FIX.4.2|9=73|35=A|34=84|49=ENGINE|52=20240103-03:06:28.687|56=ORDERENTRY1|98=0|108=30|10=050|
2024-01-03 05:06:28,688 INFO [OrderEntryApplication.java:68] - toAdmin:8=FIX.4.2|9=70|35=2|34=50|49=ORDERENTRY1|52=20240103-03:06:28.688|56=ENGINE|7=1|16=0|10=124|
2024-01-03 05:06:28,690 INFO [OrderEntryApplication.java:78] - fromAdmin:8=FIX.4.2|9=71|35=2|34=85|49=ENGINE|52=20240103-03:06:28.687|56=ORDERENTRY1|7=48|16=0|10=191|
2024-01-03 05:06:28,691 INFO [OrderEntryApplication.java:68] - toAdmin:8=FIX.4.2|9=104|35=4|34=48|43=Y|49=ORDERENTRY1|52=20240103-03:06:28.691|56=ENGINE|122=20240103-03:06:28.691|36=51|123=Y|10=107|
2024-01-03 05:06:28,693 INFO [OrderEntryApplication.java:78] - fromAdmin:8=FIX.4.2|9=102|35=4|34=1|43=Y|49=ENGINE|52=20240103-03:06:28.692|56=ORDERENTRY1|122=20240103-03:06:28.692|36=2|123=Y|10=252|
2024-01-03 05:06:28,694 INFO [OrderEntryApplication.java:83] - fromApp:8=FIX.4.2|9=163|35=f|34=2|43=Y|49=ENGINE|52=20240103-03:06:28.692|56=ORDERENTRY1|122=20240103-02:51:48.938|31=185.64|55=AAPL|326=0|330=49495084|331=32996723|332=188.44|333=183.88|10=246|
2024-01-03 05:06:28,695 INFO [OrderEntryApplication.java:83] - fromApp:8=FIX.4.2|9=162|35=f|34=3|43=Y|49=ENGINE|52=20240103-03:06:28.692|56=ORDERENTRY1|122=20240103-02:51:48.939|31=370.87|55=MSFT|326=0|330=15197223|331=10131482|332=375.9|333=366.77|10=194|
2024-01-03 05:06:28,695 INFO [OrderEntryApplication.java:83] - fromApp:8=FIX.4.2|9=163|35=f|34=4|43=Y|49=ENGINE|52=20240103-03:06:28.693|56=ORDERENTRY1|122=20240103-02:51:48.939|31=149.93|55=AMZN|326=0|330=28403461|331=18935641|332=152.38|333=148.38|10=247|
2024-01-03 05:06:28,695 INFO [OrderEntryApplication.java:83] - fromApp:8=FIX.4.2|9=163|35=f|34=5|43=Y|49=ENGINE|52=20240103-03:06:28.693|56=ORDERENTRY1|122=20240103-02:51:48.939|31=481.68|55=NVDA|326=0|330=24679560|331=16453040|332=492.95|333=475.95|10=249|
2024-01-03 05:06:28,696 INFO [OrderEntryApplication.java:83] - fromApp:8=FIX.4.2|9=162|35=f|34=6|43=Y|49=ENGINE|52=20240103-03:06:28.693|56=ORDERENTRY1|122=20240103-02:51:48.940|31=139.56|55=GOOG|326=0|330=12055350|331=8036900|332=140.61|333=137.74|10=153|
2024-01-03 05:06:28,696 INFO [OrderEntryApplication.java:78] - fromAdmin:8=FIX.4.2|9=102|35=4|34=7|43=Y|49=ENGINE|52=20240103-03:06:28.693|56=ORDERENTRY1|122=20240103-03:06:28.693|36=8|123=Y|10=010|
2024-01-03 05:06:28,696 INFO [OrderEntryApplication.java:83] - fromApp:8=FIX.4.2|9=163|35=f|34=8|43=Y|49=ENGINE|52=20240103-03:06:28.693|56=ORDERENTRY1|122=20240103-02:52:45.839|31=185.64|55=AAPL|326=1|330=49495084|331=32996723|332=188.44|333=183.88|10=252|
2024-01-03 05:06:28,699 INFO [OrderEntryApplication.java:73] - toApp:8=FIX.4.2|9=125|35=V|34=51|49=ORDERENTRY1|52=20240103-03:06:28.699|56=ENGINE|262=202401030506280|263=1|264=1|146=1|55=AAPL|267=2|269=0|269=1|10=053|
2024-01-03 05:06:28,699 INFO [OrderEntryApplication.java:73] - toApp:8=FIX.4.2|9=125|35=V|34=52|49=ORDERENTRY1|52=20240103-03:06:28.699|56=ENGINE|262=202401030506281|263=1|264=1|146=1|55=MSFT|267=2|269=0|269=1|10=083|
2024-01-03 05:06:28,700 INFO [OrderEntryApplication.java:73] - toApp:8=FIX.4.2|9=125|35=V|34=53|49=ORDERENTRY1|52=20240103-03:06:28.700|56=ENGINE|262=202401030506282|263=1|264=1|146=1|55=AMZN|267=2|269=0|269=1|10=064|
2024-01-03 05:06:28,700 INFO [OrderEntryApplication.java:83] - fromApp:8=FIX.4.2|9=179|35=8|34=9|43=Y|49=ENGINE|52=20240103-03:06:28.694|56=ORDERENTRY1|122=20240103-02:52:54.992|6=0|11=202401030452545|14=0|17=1|20=0|37=202401030452546|39=0|54=2|55=AAPL|150=0|151=10|10=024|
2024-01-03 05:06:28,700 INFO [OrderEntryApplication.java:73] - toApp:8=FIX.4.2|9=125|35=V|34=54|49=ORDERENTRY1|52=20240103-03:06:28.700|56=ENGINE|262=202401030506283|263=1|264=1|146=1|55=NVDA|267=2|269=0|269=1|10=053|
2024-01-03 05:06:28,700 INFO [OrderEntryApplication.java:83] - fromApp:8=FIX.4.2|9=207|35=8|34=10|43=Y|49=ENGINE|52=20240103-03:06:28.694|56=ORDERENTRY1|122=20240103-02:52:55.001|6=185.64|11=202401030452545|14=10|17=2|20=0|31=185.64|32=10|37=202401030452546|38=10|39=2|54=2|55=AAPL|150=2|151=0|10=023|
2024-01-03 05:06:28,700 INFO [OrderEntryApplication.java:73] - toApp:8=FIX.4.2|9=125|35=V|34=55|49=ORDERENTRY1|52=20240103-03:06:28.700|56=ENGINE|262=202401030506284|263=1|264=1|146=1|55=GOOG|267=2|269=0|269=1|10=058|
2024-01-03 05:06:28,700 INFO [OrderEntryApplication.java:83] - fromApp:8=FIX.4.2|9=164|35=f|34=11|43=Y|49=ENGINE|52=20240103-03:06:28.694|56=ORDERENTRY1|122=20240103-02:52:55.005|31=185.64|55=AAPL|326=1|330=49495094|331=32996733|332=188.44|333=183.88|10=028|
2024-01-03 05:06:28,700 INFO [OrderEntryApplication.java:78] - fromAdmin:8=FIX.4.2|9=104|35=4|34=12|43=Y|49=ENGINE|52=20240103-03:06:28.695|56=ORDERENTRY1|122=20240103-03:06:28.695|36=25|123=Y|10=107|
2024-01-03 05:06:28,701 INFO [OrderEntryApplication.java:83] - fromApp:8=FIX.4.2|9=164|35=f|34=25|43=Y|49=ENGINE|52=20240103-03:06:28.695|56=ORDERENTRY1|122=20240103-02:55:52.836|31=185.64|55=AAPL|326=0|330=49495094|331=32996733|332=188.44|333=183.88|10=045|
2024-01-03 05:06:28,701 INFO [OrderEntryApplication.java:83] - fromApp:8=FIX.4.2|9=163|35=f|34=26|43=Y|49=ENGINE|52=20240103-03:06:28.695|56=ORDERENTRY1|122=20240103-02:55:52.837|31=370.87|55=MSFT|326=0|330=15197223|331=10131482|332=375.9|333=366.77|10=247|
2024-01-03 05:06:28,701 INFO [OrderEntryApplication.java:83] - fromApp:8=FIX.4.2|9=164|35=f|34=27|43=Y|49=ENGINE|52=20240103-03:06:28.695|56=ORDERENTRY1|122=20240103-02:55:52.837|31=149.93|55=AMZN|326=0|330=28403461|331=18935641|332=152.38|333=148.38|10=043|
2024-01-03 05:06:28,702 INFO [OrderEntryApplication.java:83] - fromApp:8=FIX.4.2|9=164|35=f|34=28|43=Y|49=ENGINE|52=20240103-03:06:28.695|56=ORDERENTRY1|122=20240103-02:55:52.837|31=481.68|55=NVDA|326=0|330=24679560|331=16453040|332=492.95|333=475.95|10=045|
2024-01-03 05:06:28,702 INFO [OrderEntryApplication.java:83] - fromApp:8=FIX.4.2|9=163|35=f|34=29|43=Y|49=ENGINE|52=20240103-03:06:28.696|56=ORDERENTRY1|122=20240103-02:55:52.838|31=139.56|55=GOOG|326=0|330=12055350|331=8036900|332=140.61|333=137.74|10=215|
2024-01-03 05:06:28,703 INFO [OrderEntryApplication.java:73] - toApp:8=FIX.4.2|9=125|35=V|34=56|49=ORDERENTRY1|52=20240103-03:06:28.703|56=ENGINE|262=202401030506285|263=1|264=1|146=1|55=AAPL|267=2|269=0|269=1|10=049|
2024-01-03 05:06:28,704 INFO [OrderEntryApplication.java:73] - toApp:8=FIX.4.2|9=125|35=V|34=57|49=ORDERENTRY1|52=20240103-03:06:28.704|56=ENGINE|262=202401030506286|263=1|264=1|146=1|55=MSFT|267=2|269=0|269=1|10=080|
2024-01-03 05:06:28,704 INFO [OrderEntryApplication.java:83] - fromApp:8=FIX.4.2|9=254|35=W|34=30|43=Y|49=ENGINE|52=20240103-03:06:28.696|56=ORDERENTRY1|122=20240103-02:55:52.855|55=AAPL|262=202401030455520|268=1|269=2|270=185.64|271=10|272=20240103|273=04:55:52|432=20240103|37=202401030452545|58=MDEntry for AAPL|6=185.64|14=10|40=1|151=0|10=174|
2024-01-03 05:06:28,704 INFO [OrderEntryApplication.java:73] - toApp:8=FIX.4.2|9=125|35=V|34=58|49=ORDERENTRY1|52=20240103-03:06:28.704|56=ENGINE|262=202401030506287|263=1|264=1|146=1|55=AMZN|267=2|269=0|269=1|10=078|
2024-01-03 05:06:28,704 INFO [OrderEntryApplication.java:83] - fromApp:8=FIX.4.2|9=254|35=W|34=31|43=Y|49=ENGINE|52=20240103-03:06:28.696|56=ORDERENTRY1|122=20240103-02:55:52.865|55=AAPL|262=202401030455525|268=1|269=2|270=185.64|271=10|272=20240103|273=04:55:52|432=20240103|37=202401030452545|58=MDEntry for AAPL|6=185.64|14=10|40=1|151=0|10=181|
2024-01-03 05:06:28,704 INFO [OrderEntryApplication.java:78] - fromAdmin:8=FIX.4.2|9=104|35=4|34=32|43=Y|49=ENGINE|52=20240103-03:06:28.697|56=ORDERENTRY1|122=20240103-03:06:28.697|36=45|123=Y|10=115|
2024-01-03 05:06:28,705 INFO [OrderEntryApplication.java:83] - fromApp:8=FIX.4.2|9=164|35=f|34=45|43=Y|49=ENGINE|52=20240103-03:06:28.697|56=ORDERENTRY1|122=20240103-03:02:23.394|31=185.64|55=AAPL|326=0|330=49495094|331=32996733|332=188.44|333=183.88|10=039|
2024-01-03 05:06:28,705 INFO [OrderEntryApplication.java:83] - fromApp:8=FIX.4.2|9=163|35=f|34=46|43=Y|49=ENGINE|52=20240103-03:06:28.697|56=ORDERENTRY1|122=20240103-03:02:23.394|31=370.87|55=MSFT|326=0|330=15197223|331=10131482|332=375.9|333=366.77|10=240|
2024-01-03 05:06:28,705 INFO [OrderEntryApplication.java:83] - fromApp:8=FIX.4.2|9=164|35=f|34=47|43=Y|49=ENGINE|52=20240103-03:06:28.697|56=ORDERENTRY1|122=20240103-03:02:23.394|31=149.93|55=AMZN|326=0|330=28403461|331=18935641|332=152.38|333=148.38|10=036|
2024-01-03 05:06:28,705 INFO [OrderEntryApplication.java:73] - toApp:8=FIX.4.2|9=125|35=V|34=59|49=ORDERENTRY1|52=20240103-03:06:28.705|56=ENGINE|262=202401030506288|263=1|264=1|146=1|55=NVDA|267=2|269=0|269=1|10=068|
2024-01-03 05:06:28,705 INFO [OrderEntryApplication.java:83] - fromApp:8=FIX.4.2|9=164|35=f|34=48|43=Y|49=ENGINE|52=20240103-03:06:28.697|56=ORDERENTRY1|122=20240103-03:02:23.394|31=481.68|55=NVDA|326=0|330=24679560|331=16453040|332=492.95|333=475.95|10=038|
2024-01-03 05:06:28,705 INFO [OrderEntryApplication.java:73] - toApp:8=FIX.4.2|9=125|35=V|34=60|49=ORDERENTRY1|52=20240103-03:06:28.705|56=ENGINE|262=202401030506289|263=1|264=1|146=1|55=GOOG|267=2|269=0|269=1|10=064|
2024-01-03 05:06:28,705 INFO [OrderEntryApplication.java:83] - fromApp:8=FIX.4.2|9=163|35=f|34=49|43=Y|49=ENGINE|52=20240103-03:06:28.698|56=ORDERENTRY1|122=20240103-03:02:23.395|31=139.56|55=GOOG|326=0|330=12055350|331=8036900|332=140.61|333=137.74|10=208|
2024-01-03 05:06:28,706 INFO [OrderEntryApplication.java:83] - fromApp:8=FIX.4.2|9=254|35=W|34=50|43=Y|49=ENGINE|52=20240103-03:06:28.698|56=ORDERENTRY1|122=20240103-03:02:23.406|55=AAPL|262=202401030502230|268=1|269=2|270=185.64|271=10|272=20240103|273=05:02:23|432=20240103|37=202401030452545|58=MDEntry for AAPL|6=185.64|14=10|40=1|151=0|10=143|
2024-01-03 05:06:28,706 INFO [OrderEntryApplication.java:83] - fromApp:8=FIX.4.2|9=180|35=8|34=51|43=Y|49=ENGINE|52=20240103-03:06:28.698|56=ORDERENTRY1|122=20240103-03:02:38.872|6=0|11=202401030502387|14=0|17=4|20=0|37=202401030502388|39=0|54=1|55=AAPL|150=0|151=10|10=062|
2024-01-03 05:06:28,706 INFO [OrderEntryApplication.java:83] - fromApp:8=FIX.4.2|9=164|35=f|34=52|43=Y|49=ENGINE|52=20240103-03:06:28.698|56=ORDERENTRY1|122=20240103-03:02:38.874|31=185.64|55=AAPL|326=1|330=49495094|331=32996733|332=188.44|333=183.88|10=048|
2024-01-03 05:06:28,706 INFO [OrderEntryApplication.java:83] - fromApp:8=FIX.4.2|9=164|35=f|34=53|43=Y|49=ENGINE|52=20240103-03:06:28.699|56=ORDERENTRY1|122=20240103-03:02:38.874|31=185.64|55=AAPL|326=1|330=49495094|331=32996733|332=188.44|333=183.88|10=050|
2024-01-03 05:06:28,707 INFO [OrderEntryApplication.java:83] - fromApp:8=FIX.4.2|9=164|35=f|34=54|43=Y|49=ENGINE|52=20240103-03:06:28.699|56=ORDERENTRY1|122=20240103-03:02:38.875|31=185.64|55=AAPL|326=1|330=49495094|331=32996733|332=188.44|333=183.88|10=052|
2024-01-03 05:06:28,707 INFO [OrderEntryApplication.java:83] - fromApp:8=FIX.4.2|9=180|35=8|34=55|43=Y|49=ENGINE|52=20240103-03:06:28.699|56=ORDERENTRY1|122=20240103-03:02:53.764|6=0|11=202401030502538|14=0|17=5|20=0|37=202401030502539|39=0|54=1|55=AAPL|150=0|151=10|10=061|
2024-01-03 05:06:28,707 INFO [OrderEntryApplication.java:83] - fromApp:8=FIX.4.2|9=164|35=f|34=56|43=Y|49=ENGINE|52=20240103-03:06:28.699|56=ORDERENTRY1|122=20240103-03:02:53.766|31=185.64|55=AAPL|326=1|330=49495094|331=32996733|332=188.44|333=183.88|10=050|
2024-01-03 05:06:28,707 INFO [OrderEntryApplication.java:83] - fromApp:8=FIX.4.2|9=164|35=f|34=57|43=Y|49=ENGINE|52=20240103-03:06:28.700|56=ORDERENTRY1|122=20240103-03:02:53.767|31=185.64|55=AAPL|326=1|330=49495094|331=32996733|332=188.44|333=183.88|10=035|
2024-01-03 05:06:28,708 INFO [OrderEntryApplication.java:83] - fromApp:8=FIX.4.2|9=164|35=f|34=58|43=Y|49=ENGINE|52=20240103-03:06:28.700|56=ORDERENTRY1|122=20240103-03:02:53.767|31=185.64|55=AAPL|326=1|330=49495094|331=32996733|332=188.44|333=183.88|10=036|
2024-01-03 05:06:28,708 INFO [OrderEntryApplication.java:78] - fromAdmin:8=FIX.4.2|9=104|35=4|34=59|43=Y|49=ENGINE|52=20240103-03:06:28.701|56=ORDERENTRY1|122=20240103-03:06:28.701|36=86|123=Y|10=101|
2024-01-03 05:06:28,709 INFO [OrderEntryApplication.java:83] - fromApp:8=FIX.4.2|9=133|35=f|34=86|49=ENGINE|52=20240103-03:06:28.688|56=ORDERENTRY1|31=185.64|55=AAPL|326=0|330=49495094|331=32996733|332=188.44|333=183.88|10=050|
2024-01-03 05:06:28,709 INFO [OrderEntryApplication.java:73] - toApp:8=FIX.4.2|9=126|35=V|34=61|49=ORDERENTRY1|52=20240103-03:06:28.709|56=ENGINE|262=2024010305062814|263=1|264=1|146=1|55=AAPL|267=2|269=0|269=1|10=100|
2024-01-03 05:06:28,709 INFO [OrderEntryApplication.java:83] - fromApp:8=FIX.4.2|9=132|35=f|34=87|49=ENGINE|52=20240103-03:06:28.688|56=ORDERENTRY1|31=370.87|55=MSFT|326=0|330=15197223|331=10131482|332=375.9|333=366.77|10=251|
2024-01-03 05:06:28,709 INFO [OrderEntryApplication.java:73] - toApp:8=FIX.4.2|9=126|35=V|34=62|49=ORDERENTRY1|52=20240103-03:06:28.709|56=ENGINE|262=2024010305062815|263=1|264=1|146=1|55=MSFT|267=2|269=0|269=1|10=130|
2024-01-03 05:06:28,709 INFO [OrderEntryApplication.java:83] - fromApp:8=FIX.4.2|9=133|35=f|34=88|49=ENGINE|52=20240103-03:06:28.688|56=ORDERENTRY1|31=149.93|55=AMZN|326=0|330=28403461|331=18935641|332=152.38|333=148.38|10=047|
2024-01-03 05:06:28,709 INFO [OrderEntryApplication.java:83] - fromApp:8=FIX.4.2|9=133|35=f|34=89|49=ENGINE|52=20240103-03:06:28.688|56=ORDERENTRY1|31=481.68|55=NVDA|326=0|330=24679560|331=16453040|332=492.95|333=475.95|10=049|
2024-01-03 05:06:28,709 INFO [OrderEntryApplication.java:73] - toApp:8=FIX.4.2|9=126|35=V|34=63|49=ORDERENTRY1|52=20240103-03:06:28.709|56=ENGINE|262=2024010305062816|263=1|264=1|146=1|55=AMZN|267=2|269=0|269=1|10=128|
2024-01-03 05:06:28,710 INFO [OrderEntryApplication.java:83] - fromApp:8=FIX.4.2|9=132|35=f|34=90|49=ENGINE|52=20240103-03:06:28.688|56=ORDERENTRY1|31=139.56|55=GOOG|326=0|330=12055350|331=8036900|332=140.61|333=137.74|10=208|
2024-01-03 05:06:28,710 INFO [OrderEntryApplication.java:83] - fromApp:8=FIX.4.2|9=469|35=W|34=91|49=ENGINE|52=20240103-03:06:28.705|56=ORDERENTRY1|55=AAPL|262=202401030506280|268=3|269=2|270=185.64|271=10|272=20240103|273=05:06:28|432=20240103|37=202401030452545|58=MDEntry for AAPL|6=185.64|14=10|40=1|151=0|269=1|270=185.64|271=10|272=20240103|273=05:06:28|432=20240101|37=202401030502387|58=MDEntry for AAPL|6=0|14=0|40=1|151=10|269=1|270=185.64|271=10|272=20240103|273=05:06:28|432=20240101|37=202401030502538|58=MDEntry for AAPL|6=0|14=0|40=1|151=10|10=017|
2024-01-03 05:06:28,711 INFO [OrderEntryApplication.java:73] - toApp:8=FIX.4.2|9=126|35=V|34=64|49=ORDERENTRY1|52=20240103-03:06:28.711|56=ENGINE|262=2024010305062817|263=1|264=1|146=1|55=NVDA|267=2|269=0|269=1|10=110|
2024-01-03 05:06:28,711 INFO [OrderEntryApplication.java:73] - toApp:8=FIX.4.2|9=126|35=V|34=65|49=ORDERENTRY1|52=20240103-03:06:28.711|56=ENGINE|262=2024010305062818|263=1|264=1|146=1|55=GOOG|267=2|269=0|269=1|10=115|
2024-01-03 05:06:28,712 INFO [OrderEntryApplication.java:73] - toApp:8=FIX.4.2|9=126|35=V|34=66|49=ORDERENTRY1|52=20240103-03:06:28.712|56=ENGINE|262=2024010305062821|263=1|264=1|146=1|55=AAPL|267=2|269=0|269=1|10=097|
2024-01-03 05:06:28,712 INFO [OrderEntryApplication.java:73] - toApp:8=FIX.4.2|9=126|35=V|34=67|49=ORDERENTRY1|52=20240103-03:06:28.712|56=ENGINE|262=2024010305062822|263=1|264=1|146=1|55=MSFT|267=2|269=0|269=1|10=127|
2024-01-03 05:06:28,713 INFO [OrderEntryApplication.java:73] - toApp:8=FIX.4.2|9=126|35=V|34=68|49=ORDERENTRY1|52=20240103-03:06:28.713|56=ENGINE|262=2024010305062823|263=1|264=1|146=1|55=AMZN|267=2|269=0|269=1|10=126|
2024-01-03 05:06:28,713 INFO [OrderEntryApplication.java:73] - toApp:8=FIX.4.2|9=126|35=V|34=69|49=ORDERENTRY1|52=20240103-03:06:28.713|56=ENGINE|262=2024010305062824|263=1|264=1|146=1|55=NVDA|267=2|269=0|269=1|10=115|
2024-01-03 05:06:28,713 INFO [OrderEntryApplication.java:73] - toApp:8=FIX.4.2|9=126|35=V|34=70|49=ORDERENTRY1|52=20240103-03:06:28.713|56=ENGINE|262=2024010305062825|263=1|264=1|146=1|55=GOOG|267=2|269=0|269=1|10=111|
2024-01-03 05:06:28,720 INFO [OrderEntryApplication.java:83] - fromApp:8=FIX.4.2|9=469|35=W|34=92|49=ENGINE|52=20240103-03:06:28.719|56=ORDERENTRY1|55=AAPL|262=202401030506285|268=3|269=2|270=185.64|271=10|272=20240103|273=05:06:28|432=20240103|37=202401030452545|58=MDEntry for AAPL|6=185.64|14=10|40=1|151=0|269=1|270=185.64|271=10|272=20240103|273=05:06:28|432=20240101|37=202401030502387|58=MDEntry for AAPL|6=0|14=0|40=1|151=10|269=1|270=185.64|271=10|272=20240103|273=05:06:28|432=20240101|37=202401030502538|58=MDEntry for AAPL|6=0|14=0|40=1|151=10|10=028|
2024-01-03 05:06:28,728 INFO [OrderEntryApplication.java:83] - fromApp:8=FIX.4.2|9=470|35=W|34=93|49=ENGINE|52=20240103-03:06:28.726|56=ORDERENTRY1|55=AAPL|262=2024010305062814|268=3|269=2|270=185.64|271=10|272=20240103|273=05:06:28|432=20240103|37=202401030452545|58=MDEntry for AAPL|6=185.64|14=10|40=1|151=0|269=1|270=185.64|271=10|272=20240103|273=05:06:28|432=20240101|37=202401030502387|58=MDEntry for AAPL|6=0|14=0|40=1|151=10|269=1|270=185.64|271=10|272=20240103|273=05:06:28|432=20240101|37=202401030502538|58=MDEntry for AAPL|6=0|14=0|40=1|151=10|10=067|
2024-01-03 05:06:28,735 INFO [OrderEntryApplication.java:83] - fromApp:8=FIX.4.2|9=470|35=W|34=94|49=ENGINE|52=20240103-03:06:28.734|56=ORDERENTRY1|55=AAPL|262=2024010305062821|268=3|269=2|270=185.64|271=10|272=20240103|273=05:06:28|432=20240103|37=202401030452545|58=MDEntry for AAPL|6=185.64|14=10|40=1|151=0|269=1|270=185.64|271=10|272=20240103|273=05:06:28|432=20240101|37=202401030502387|58=MDEntry for AAPL|6=0|14=0|40=1|151=10|269=1|270=185.64|271=10|272=20240103|273=05:06:28|432=20240101|37=202401030502538|58=MDEntry for AAPL|6=0|14=0|40=1|151=10|10=065|
