2023-12-06 05:46:16,185 INFO [OrderEntryApplication.java:71] - toApp:8=FIX.4.2|9=133|35=D|34=16|49=ORDERENTRY1|52=20231206-03:46:16.185|56=ENGINE|11=1701834376188|21=1|38=100|40=1|54=2|55=AAPL|60=20231206-03:46:16.185|10=222|
2023-12-06 05:46:17,009 INFO [OrderEntryApplication.java:76] - fromAdmin:8=FIX.4.2|9=61|35=0|34=11|49=ENGINE|52=20231206-03:46:17.007|56=ORDERENTRY1|10=243|
2023-12-06 05:46:35,943 INFO [OrderEntryApplication.java:71] - toApp:8=FIX.4.2|9=133|35=D|34=17|49=ORDERENTRY1|52=20231206-03:46:35.942|56=ENGINE|11=1701834395946|21=1|38=100|40=1|54=1|55=AAPL|60=20231206-03:46:35.942|10=229|
2023-12-06 05:46:47,008 INFO [OrderEntryApplication.java:76] - fromAdmin:8=FIX.4.2|9=61|35=0|34=12|49=ENGINE|52=20231206-03:46:47.007|56=ORDERENTRY1|10=247|
