2023-11-23 22:22:56,169 INFO [DefaultSessionSchedule.java:87] - [FIX.4.2:EXEC->BANZAI] daily, 00:00:00-UTC - 00:00:00-UTC
2023-11-23 22:22:56,182 INFO [SessionConnector.java:319] - SessionTimer started
2023-11-23 22:22:56,238 INFO [NetworkingOptions.java:117] - Socket option: SocketTcpNoDelay=true
2023-11-23 22:22:56,238 INFO [NetworkingOptions.java:117] - Socket option: SocketSynchronousWrites=false
2023-11-23 22:22:56,238 INFO [NetworkingOptions.java:117] - Socket option: SocketSynchronousWriteTimeout=30000
2023-11-23 22:22:56,244 INFO [AbstractSocketAcceptor.java:118] - Listening for connections at 0.0.0.0/0.0.0.0:9878 for session(s) [FIX.4.2:EXEC->BANZAI]
2023-11-23 22:22:56,245 INFO [SingleThreadedEventHandlingStrategy.java:144] - Started QFJ Message Processor
2023-11-23 22:23:00,522 INFO [Banzai.java:102] - initiating Banzai!
2023-11-23 22:23:01,354 INFO [Banzai.java:104] - Banzai initiated.
2023-11-23 22:23:01,410 INFO [DefaultSessionSchedule.java:87] - [FIX.4.2:BANZAI->EXEC] daily, 00:00:00-UTC - 00:00:00-UTC
2023-11-23 22:23:01,425 INFO [NetworkingOptions.java:117] - Socket option: SocketTcpNoDelay=true
2023-11-23 22:23:01,425 INFO [NetworkingOptions.java:117] - Socket option: SocketSynchronousWrites=false
2023-11-23 22:23:01,425 INFO [NetworkingOptions.java:117] - Socket option: SocketSynchronousWriteTimeout=30000
2023-11-23 22:23:01,483 INFO [SessionConnector.java:319] - SessionTimer started
2023-11-23 22:23:01,484 INFO [SingleThreadedEventHandlingStrategy.java:144] - Started QFJ Message Processor
2023-11-23 22:23:01,488 INFO [AcceptorIoHandler.java:58] - MINA session created: local=/127.0.0.1:9878, class org.apache.mina.transport.socket.nio.NioSocketSession, remote=/127.0.0.1:61920
2023-11-23 22:23:02,508 INFO [BanzaiApplication.java:94] - toAdmin:8=FIX.4.2|9=66|35=A|34=28|49=BANZAI|52=20231123-20:23:02.494|56=EXEC|98=0|108=30|10=011|
2023-11-23 22:23:02,537 INFO [BanzaiApplication.java:106] - fromAdmin:8=FIX.4.2|9=106|35=5|34=120|49=EXEC|52=20231123-20:23:02.517|56=BANZAI|58=MsgSeqNum too low, expecting 66 but received 28|10=064|
2023-11-23 22:23:02,538 INFO [BanzaiApplication.java:94] - toAdmin:8=FIX.4.2|9=54|35=5|34=29|49=BANZAI|52=20231123-20:23:02.537|56=EXEC|10=226|
2023-11-23 22:23:06,554 INFO [AcceptorIoHandler.java:58] - MINA session created: local=/127.0.0.1:9878, class org.apache.mina.transport.socket.nio.NioSocketSession, remote=/127.0.0.1:61922
2023-11-23 22:23:07,490 INFO [BanzaiApplication.java:94] - toAdmin:8=FIX.4.2|9=66|35=A|34=30|49=BANZAI|52=20231123-20:23:07.490|56=EXEC|98=0|108=30|10=005|
2023-11-23 22:23:07,492 INFO [BanzaiApplication.java:106] - fromAdmin:8=FIX.4.2|9=106|35=5|34=121|49=EXEC|52=20231123-20:23:07.491|56=BANZAI|58=MsgSeqNum too low, expecting 66 but received 30|10=064|
2023-11-23 22:23:07,493 INFO [BanzaiApplication.java:94] - toAdmin:8=FIX.4.2|9=54|35=5|34=31|49=BANZAI|52=20231123-20:23:07.492|56=EXEC|10=224|
2023-11-23 22:23:23,780 INFO [DefaultSessionSchedule.java:87] - [FIX.4.2:EXEC->BANZAI] daily, 00:00:00-UTC - 00:00:00-UTC
2023-11-23 22:23:23,800 INFO [SessionConnector.java:319] - SessionTimer started
2023-11-23 22:23:23,856 INFO [NetworkingOptions.java:117] - Socket option: SocketTcpNoDelay=true
2023-11-23 22:23:23,856 INFO [NetworkingOptions.java:117] - Socket option: SocketSynchronousWrites=false
2023-11-23 22:23:23,856 INFO [NetworkingOptions.java:117] - Socket option: SocketSynchronousWriteTimeout=30000
2023-11-23 22:23:23,863 INFO [AbstractSocketAcceptor.java:118] - Listening for connections at 0.0.0.0/0.0.0.0:9878 for session(s) [FIX.4.2:EXEC->BANZAI]
2023-11-23 22:23:23,864 INFO [SingleThreadedEventHandlingStrategy.java:144] - Started QFJ Message Processor
2023-11-23 22:23:27,970 INFO [Banzai.java:102] - initiating Banzai!
2023-11-23 22:23:28,854 INFO [Banzai.java:104] - Banzai initiated.
2023-11-23 22:23:28,908 INFO [DefaultSessionSchedule.java:87] - [FIX.4.2:BANZAI->EXEC] daily, 00:00:00-UTC - 00:00:00-UTC
2023-11-23 22:23:28,923 INFO [NetworkingOptions.java:117] - Socket option: SocketTcpNoDelay=true
2023-11-23 22:23:28,923 INFO [NetworkingOptions.java:117] - Socket option: SocketSynchronousWrites=false
2023-11-23 22:23:28,923 INFO [NetworkingOptions.java:117] - Socket option: SocketSynchronousWriteTimeout=30000
2023-11-23 22:23:28,983 INFO [SessionConnector.java:319] - SessionTimer started
2023-11-23 22:23:28,984 INFO [SingleThreadedEventHandlingStrategy.java:144] - Started QFJ Message Processor
2023-11-23 22:23:28,988 INFO [AcceptorIoHandler.java:58] - MINA session created: local=/127.0.0.1:9878, class org.apache.mina.transport.socket.nio.NioSocketSession, remote=/127.0.0.1:61936
2023-11-23 22:23:30,001 INFO [BanzaiApplication.java:94] - toAdmin:8=FIX.4.2|9=65|35=A|34=1|49=BANZAI|52=20231123-20:23:29.987|56=EXEC|98=0|108=30|10=225|
2023-11-23 22:23:30,031 INFO [BanzaiApplication.java:106] - fromAdmin:8=FIX.4.2|9=65|35=A|34=1|49=EXEC|52=20231123-20:23:30.026|56=BANZAI|98=0|108=30|10=201|
2023-11-23 22:23:41,852 INFO [BanzaiApplication.java:100] - toApp:8=FIX.4.2|9=130|35=D|34=2|49=BANZAI|52=20231123-20:23:41.852|56=EXEC|11=1700771021848|21=1|38=100|40=1|54=1|55=AAPL|59=0|60=20231123-20:23:41.851|10=072|
2023-11-23 22:23:41,866 INFO [BanzaiApplication.java:112] - fromApp:8=FIX.4.2|9=145|35=8|34=2|49=EXEC|52=20231123-20:23:41.864|56=BANZAI|6=0|11=1700771021848|14=0|17=0|20=0|37=1700771021848|38=100|39=0|54=1|55=AAPL|150=0|151=100|10=160|
2023-11-23 22:23:49,466 INFO [BanzaiApplication.java:100] - toApp:8=FIX.4.2|9=129|35=D|34=3|49=BANZAI|52=20231123-20:23:49.466|56=EXEC|11=1700771029468|21=1|38=50|40=1|54=2|55=AAPL|59=0|60=20231123-20:23:49.466|10=063|
2023-11-23 22:23:49,468 INFO [BanzaiApplication.java:112] - fromApp:8=FIX.4.2|9=143|35=8|34=3|49=EXEC|52=20231123-20:23:49.467|56=BANZAI|6=0|11=1700771029468|14=0|17=1|20=0|37=1700771029468|38=50|39=0|54=2|55=AAPL|150=0|151=50|10=092|
2023-11-23 22:23:49,477 INFO [BanzaiApplication.java:112] - fromApp:8=FIX.4.2|9=154|35=8|34=4|49=EXEC|52=20231123-20:23:49.467|56=BANZAI|6=0|11=1700771029468|14=50|17=2|20=0|31=0|32=50|37=1700771029468|38=50|39=2|54=2|55=AAPL|150=2|151=0|10=062|
2023-11-23 22:23:49,478 INFO [BanzaiApplication.java:112] - fromApp:8=FIX.4.2|9=156|35=8|34=5|49=EXEC|52=20231123-20:23:49.477|56=BANZAI|6=0|11=1700771021848|14=50|17=3|20=0|31=0|32=50|37=1700771021848|38=100|39=1|54=1|55=AAPL|150=1|151=50|10=149|
2023-11-23 22:23:53,496 INFO [BanzaiApplication.java:100] - toApp:8=FIX.4.2|9=129|35=D|34=4|49=BANZAI|52=20231123-20:23:53.496|56=EXEC|11=1700771033499|21=1|38=50|40=1|54=2|55=AAPL|59=0|60=20231123-20:23:53.496|10=059|
2023-11-23 22:23:53,498 INFO [BanzaiApplication.java:112] - fromApp:8=FIX.4.2|9=143|35=8|34=6|49=EXEC|52=20231123-20:23:53.497|56=BANZAI|6=0|11=1700771033499|14=0|17=4|20=0|37=1700771033499|38=50|39=0|54=2|55=AAPL|150=0|151=50|10=094|
2023-11-23 22:23:53,498 INFO [BanzaiApplication.java:112] - fromApp:8=FIX.4.2|9=154|35=8|34=7|49=EXEC|52=20231123-20:23:53.498|56=BANZAI|6=0|11=1700771033499|14=50|17=5|20=0|31=0|32=50|37=1700771033499|38=50|39=2|54=2|55=AAPL|150=2|151=0|10=065|
2023-11-23 22:23:53,499 INFO [BanzaiApplication.java:112] - fromApp:8=FIX.4.2|9=156|35=8|34=8|49=EXEC|52=20231123-20:23:53.498|56=BANZAI|6=0|11=1700771021848|14=100|17=6|20=0|31=0|32=50|37=1700771021848|38=100|39=2|54=1|55=AAPL|150=2|151=0|10=146|
2023-11-23 22:24:23,808 INFO [BanzaiApplication.java:106] - fromAdmin:8=FIX.4.2|9=53|35=0|34=9|49=EXEC|52=20231123-20:24:23.807|56=BANZAI|10=174|
2023-11-23 22:24:23,810 INFO [BanzaiApplication.java:94] - toAdmin:8=FIX.4.2|9=53|35=0|34=5|49=BANZAI|52=20231123-20:24:23.810|56=EXEC|10=164|
2023-11-23 22:24:53,810 INFO [BanzaiApplication.java:106] - fromAdmin:8=FIX.4.2|9=54|35=0|34=10|49=EXEC|52=20231123-20:24:53.809|56=BANZAI|10=220|
2023-11-23 22:24:53,810 INFO [BanzaiApplication.java:94] - toAdmin:8=FIX.4.2|9=53|35=0|34=6|49=BANZAI|52=20231123-20:24:53.810|56=EXEC|10=168|
2023-11-23 22:25:23,808 INFO [BanzaiApplication.java:106] - fromAdmin:8=FIX.4.2|9=54|35=0|34=11|49=EXEC|52=20231123-20:25:23.807|56=BANZAI|10=217|
2023-11-23 22:25:23,808 INFO [BanzaiApplication.java:94] - toAdmin:8=FIX.4.2|9=53|35=0|34=7|49=BANZAI|52=20231123-20:25:23.808|56=EXEC|10=174|
2023-11-23 22:25:53,814 INFO [BanzaiApplication.java:106] - fromAdmin:8=FIX.4.2|9=54|35=0|34=12|49=EXEC|52=20231123-20:25:53.813|56=BANZAI|10=218|
2023-11-23 22:25:53,814 INFO [BanzaiApplication.java:94] - toAdmin:8=FIX.4.2|9=53|35=0|34=8|49=BANZAI|52=20231123-20:25:53.814|56=EXEC|10=175|
2023-11-23 22:26:23,806 INFO [BanzaiApplication.java:106] - fromAdmin:8=FIX.4.2|9=54|35=0|34=13|49=EXEC|52=20231123-20:26:23.805|56=BANZAI|10=218|
2023-11-23 22:26:23,807 INFO [BanzaiApplication.java:94] - toAdmin:8=FIX.4.2|9=53|35=0|34=9|49=BANZAI|52=20231123-20:26:23.807|56=EXEC|10=176|
2023-11-23 22:26:53,811 INFO [BanzaiApplication.java:106] - fromAdmin:8=FIX.4.2|9=54|35=0|34=14|49=EXEC|52=20231123-20:26:53.810|56=BANZAI|10=218|
2023-11-23 22:26:53,811 INFO [BanzaiApplication.java:94] - toAdmin:8=FIX.4.2|9=54|35=0|34=10|49=BANZAI|52=20231123-20:26:53.811|56=EXEC|10=215|
2023-11-23 22:27:23,806 INFO [BanzaiApplication.java:106] - fromAdmin:8=FIX.4.2|9=54|35=0|34=15|49=EXEC|52=20231123-20:27:23.805|56=BANZAI|10=221|
2023-11-23 22:27:23,807 INFO [BanzaiApplication.java:94] - toAdmin:8=FIX.4.2|9=54|35=0|34=11|49=BANZAI|52=20231123-20:27:23.806|56=EXEC|10=218|
2023-11-23 22:27:53,802 INFO [BanzaiApplication.java:106] - fromAdmin:8=FIX.4.2|9=54|35=0|34=16|49=EXEC|52=20231123-20:27:53.801|56=BANZAI|10=221|
2023-11-23 22:27:53,802 INFO [BanzaiApplication.java:94] - toAdmin:8=FIX.4.2|9=54|35=0|34=12|49=BANZAI|52=20231123-20:27:53.802|56=EXEC|10=218|
2023-11-23 22:28:23,809 INFO [BanzaiApplication.java:106] - fromAdmin:8=FIX.4.2|9=54|35=0|34=17|49=EXEC|52=20231123-20:28:23.808|56=BANZAI|10=227|
2023-11-23 22:28:23,809 INFO [BanzaiApplication.java:94] - toAdmin:8=FIX.4.2|9=54|35=0|34=13|49=BANZAI|52=20231123-20:28:23.809|56=EXEC|10=224|
2023-11-23 22:29:04,055 INFO [DefaultSessionSchedule.java:87] - [FIX.4.2:EXEC->BANZAI] daily, 00:00:00-UTC - 00:00:00-UTC
2023-11-23 22:29:04,067 INFO [SessionConnector.java:319] - SessionTimer started
2023-11-23 22:29:04,124 INFO [NetworkingOptions.java:117] - Socket option: SocketTcpNoDelay=true
2023-11-23 22:29:04,124 INFO [NetworkingOptions.java:117] - Socket option: SocketSynchronousWrites=false
2023-11-23 22:29:04,124 INFO [NetworkingOptions.java:117] - Socket option: SocketSynchronousWriteTimeout=30000
2023-11-23 22:29:04,130 INFO [AbstractSocketAcceptor.java:118] - Listening for connections at 0.0.0.0/0.0.0.0:9878 for session(s) [FIX.4.2:EXEC->BANZAI]
2023-11-23 22:29:04,131 INFO [SingleThreadedEventHandlingStrategy.java:144] - Started QFJ Message Processor
2023-11-23 22:29:04,208 INFO [AcceptorIoHandler.java:58] - MINA session created: local=/127.0.0.1:9878, class org.apache.mina.transport.socket.nio.NioSocketSession, remote=/127.0.0.1:61975
2023-11-23 22:29:04,984 INFO [BanzaiApplication.java:94] - toAdmin:8=FIX.4.2|9=66|35=A|34=14|49=BANZAI|52=20231123-20:29:04.984|56=EXEC|98=0|108=30|10=018|
2023-11-23 22:29:05,010 INFO [BanzaiApplication.java:106] - fromAdmin:8=FIX.4.2|9=66|35=A|34=18|49=EXEC|52=20231123-20:29:05.008|56=BANZAI|98=0|108=30|10=010|
2023-11-23 22:29:18,748 INFO [BanzaiApplication.java:100] - toApp:8=FIX.4.2|9=130|35=D|34=15|49=BANZAI|52=20231123-20:29:18.748|56=EXEC|11=1700771358752|21=1|38=50|40=1|54=2|55=AAPL|59=0|60=20231123-20:29:18.748|10=117|
2023-11-23 22:29:18,767 INFO [BanzaiApplication.java:112] - fromApp:8=FIX.4.2|9=144|35=8|34=19|49=EXEC|52=20231123-20:29:18.759|56=BANZAI|6=0|11=1700771358752|14=0|17=0|20=0|37=1700771358752|38=50|39=0|54=2|55=AAPL|150=0|151=50|10=155|
2023-11-23 22:29:48,996 INFO [BanzaiApplication.java:94] - toAdmin:8=FIX.4.2|9=54|35=0|34=16|49=BANZAI|52=20231123-20:29:48.996|56=EXEC|10=242|
2023-11-23 22:29:48,998 INFO [BanzaiApplication.java:106] - fromAdmin:8=FIX.4.2|9=54|35=0|34=20|49=EXEC|52=20231123-20:29:48.997|56=BANZAI|10=238|
2023-11-23 22:29:56,240 INFO [BanzaiApplication.java:100] - toApp:8=FIX.4.2|9=136|35=D|34=17|49=BANZAI|52=20231123-20:29:56.240|56=EXEC|11=1700771396244|21=1|38=50|40=2|44=50|54=2|55=AAPL|59=0|60=20231123-20:29:56.240|10=113|
2023-11-23 22:29:56,242 INFO [BanzaiApplication.java:112] - fromApp:8=FIX.4.2|9=144|35=8|34=21|49=EXEC|52=20231123-20:29:56.241|56=BANZAI|6=0|11=1700771396244|14=0|17=1|20=0|37=1700771396244|38=50|39=0|54=2|55=AAPL|150=0|151=50|10=133|
2023-11-23 22:30:22,356 INFO [BanzaiApplication.java:100] - toApp:8=FIX.4.2|9=136|35=D|34=18|49=BANZAI|52=20231123-20:30:22.355|56=EXEC|11=1700771422361|21=1|38=50|40=2|44=50|54=1|55=AAPL|59=0|60=20231123-20:30:22.355|10=087|
2023-11-23 22:30:22,358 INFO [BanzaiApplication.java:112] - fromApp:8=FIX.4.2|9=144|35=8|34=22|49=EXEC|52=20231123-20:30:22.357|56=BANZAI|6=0|11=1700771422361|14=0|17=2|20=0|37=1700771422361|38=50|39=0|54=1|55=AAPL|150=0|151=50|10=107|
2023-11-23 22:30:22,358 INFO [BanzaiApplication.java:112] - fromApp:8=FIX.4.2|9=156|35=8|34=23|49=EXEC|52=20231123-20:30:22.358|56=BANZAI|6=50|11=1700771358752|14=50|17=3|20=0|31=0|32=50|37=1700771358752|38=50|39=2|54=2|55=AAPL|150=2|151=0|10=157|
2023-11-23 22:30:22,358 INFO [BanzaiApplication.java:112] - fromApp:8=FIX.4.2|9=157|35=8|34=24|49=EXEC|52=20231123-20:30:22.358|56=BANZAI|6=50|11=1700771422361|14=50|17=4|20=0|31=50|32=50|37=1700771422361|38=50|39=2|54=1|55=AAPL|150=2|151=0|10=188|
2023-11-23 22:30:36,990 INFO [BanzaiApplication.java:100] - toApp:8=FIX.4.2|9=137|35=D|34=19|49=BANZAI|52=20231123-20:30:36.990|56=EXEC|11=1700771436997|21=1|38=50|40=3|54=1|55=AAPL|59=0|60=20231123-20:30:36.990|99=100|10=184|
2023-11-23 22:30:36,992 INFO [BanzaiApplication.java:112] - fromApp:8=FIX.4.2|9=144|35=8|34=25|49=EXEC|52=20231123-20:30:36.991|56=BANZAI|6=0|11=1700771436997|14=0|17=5|20=0|37=1700771436997|38=50|39=0|54=1|55=AAPL|150=0|151=50|10=162|
2023-11-23 22:30:41,760 INFO [BanzaiApplication.java:100] - toApp:8=FIX.4.2|9=136|35=D|34=20|49=BANZAI|52=20231123-20:30:41.760|56=EXEC|11=1700771441768|21=1|38=50|40=3|54=1|55=AAPL|59=0|60=20231123-20:30:41.760|99=40|10=104|
2023-11-23 22:30:41,762 INFO [BanzaiApplication.java:112] - fromApp:8=FIX.4.2|9=144|35=8|34=26|49=EXEC|52=20231123-20:30:41.761|56=BANZAI|6=0|11=1700771441768|14=0|17=6|20=0|37=1700771441768|38=50|39=0|54=1|55=AAPL|150=0|151=50|10=139|
2023-11-23 22:31:11,997 INFO [BanzaiApplication.java:94] - toAdmin:8=FIX.4.2|9=54|35=0|34=21|49=BANZAI|52=20231123-20:31:11.997|56=EXEC|10=222|
2023-11-23 22:31:11,999 INFO [BanzaiApplication.java:106] - fromAdmin:8=FIX.4.2|9=54|35=0|34=27|49=EXEC|52=20231123-20:31:11.998|56=BANZAI|10=229|
2023-11-23 22:31:20,002 INFO [BanzaiApplication.java:100] - toApp:8=FIX.4.2|9=136|35=D|34=22|49=BANZAI|52=20231123-20:31:20.002|56=EXEC|11=1700771480011|21=1|38=50|40=2|44=50|54=1|55=AAPL|59=0|60=20231123-20:31:20.002|10=054|
2023-11-23 22:31:20,004 INFO [BanzaiApplication.java:112] - fromApp:8=FIX.4.2|9=144|35=8|34=28|49=EXEC|52=20231123-20:31:20.004|56=BANZAI|6=0|11=1700771480011|14=0|17=7|20=0|37=1700771480011|38=50|39=0|54=1|55=AAPL|150=0|151=50|10=098|
2023-11-23 22:31:28,684 INFO [BanzaiApplication.java:100] - toApp:8=FIX.4.2|9=130|35=D|34=23|49=BANZAI|52=20231123-20:31:28.684|56=EXEC|11=1700771488694|21=1|38=50|40=1|54=1|55=AAPL|59=0|60=20231123-20:31:28.684|10=110|
2023-11-23 22:31:28,686 INFO [BanzaiApplication.java:112] - fromApp:8=FIX.4.2|9=144|35=8|34=29|49=EXEC|52=20231123-20:31:28.685|56=BANZAI|6=0|11=1700771488694|14=0|17=8|20=0|37=1700771488694|38=50|39=0|54=1|55=AAPL|150=0|151=50|10=173|
2023-11-23 22:31:28,686 INFO [BanzaiApplication.java:112] - fromApp:8=FIX.4.2|9=157|35=8|34=30|49=EXEC|52=20231123-20:31:28.686|56=BANZAI|6=50|11=1700771396244|14=50|17=9|20=0|31=50|32=50|37=1700771396244|38=50|39=2|54=2|55=AAPL|150=2|151=0|10=222|
2023-11-23 22:31:28,687 INFO [BanzaiApplication.java:112] - fromApp:8=FIX.4.2|9=157|35=8|34=31|49=EXEC|52=20231123-20:31:28.686|56=BANZAI|6=50|11=1700771488694|14=50|17=10|20=0|31=0|32=50|37=1700771488694|38=50|39=2|54=1|55=AAPL|150=2|151=0|10=231|
2023-11-23 22:31:38,024 INFO [BanzaiApplication.java:100] - toApp:8=FIX.4.2|9=130|35=D|34=24|49=BANZAI|52=20231123-20:31:38.023|56=EXEC|11=1700771498034|21=1|38=50|40=1|54=1|55=AAPL|59=0|60=20231123-20:31:38.023|10=076|
2023-11-23 22:31:38,026 INFO [BanzaiApplication.java:112] - fromApp:8=FIX.4.2|9=145|35=8|34=32|49=EXEC|52=20231123-20:31:38.025|56=BANZAI|6=0|11=1700771498034|14=0|17=11|20=0|37=1700771498034|38=50|39=0|54=1|55=AAPL|150=0|151=50|10=177|
2023-11-23 22:31:44,927 INFO [BanzaiApplication.java:100] - toApp:8=FIX.4.2|9=130|35=D|34=25|49=BANZAI|52=20231123-20:31:44.927|56=EXEC|11=1700771504939|21=1|38=50|40=1|54=2|55=AAPL|59=0|60=20231123-20:31:44.927|10=100|
2023-11-23 22:31:44,929 INFO [BanzaiApplication.java:112] - fromApp:8=FIX.4.2|9=145|35=8|34=33|49=EXEC|52=20231123-20:31:44.928|56=BANZAI|6=0|11=1700771504939|14=0|17=12|20=0|37=1700771504939|38=50|39=0|54=2|55=AAPL|150=0|151=50|10=193|
2023-11-23 22:31:44,929 INFO [BanzaiApplication.java:112] - fromApp:8=FIX.4.2|9=156|35=8|34=34|49=EXEC|52=20231123-20:31:44.929|56=BANZAI|6=0|11=1700771504939|14=50|17=13|20=0|31=0|32=50|37=1700771504939|38=50|39=2|54=2|55=AAPL|150=2|151=0|10=164|
2023-11-23 22:31:44,930 INFO [BanzaiApplication.java:112] - fromApp:8=FIX.4.2|9=156|35=8|34=35|49=EXEC|52=20231123-20:31:44.929|56=BANZAI|6=0|11=1700771498034|14=50|17=14|20=0|31=0|32=50|37=1700771498034|38=50|39=2|54=1|55=AAPL|150=2|151=0|10=161|
2023-11-23 22:31:48,047 INFO [BanzaiApplication.java:100] - toApp:8=FIX.4.2|9=130|35=D|34=26|49=BANZAI|52=20231123-20:31:48.047|56=EXEC|11=1700771508059|21=1|38=50|40=1|54=2|55=AAPL|59=0|60=20231123-20:31:48.046|10=091|
2023-11-23 22:31:48,048 INFO [BanzaiApplication.java:112] - fromApp:8=FIX.4.2|9=145|35=8|34=36|49=EXEC|52=20231123-20:31:48.048|56=BANZAI|6=0|11=1700771508059|14=0|17=15|20=0|37=1700771508059|38=50|39=0|54=2|55=AAPL|150=0|151=50|10=190|
2023-11-23 22:31:48,057 INFO [BanzaiApplication.java:112] - fromApp:8=FIX.4.2|9=156|35=8|34=37|49=EXEC|52=20231123-20:31:48.048|56=BANZAI|6=0|11=1700771508059|14=50|17=16|20=0|31=0|32=50|37=1700771508059|38=50|39=2|54=2|55=AAPL|150=2|151=0|10=160|
2023-11-23 22:31:48,057 INFO [BanzaiApplication.java:112] - fromApp:8=FIX.4.2|9=156|35=8|34=38|49=EXEC|52=20231123-20:31:48.057|56=BANZAI|6=0|11=1700771436997|14=50|17=17|20=0|31=0|32=50|37=1700771436997|38=50|39=2|54=1|55=AAPL|150=2|151=0|10=183|
2023-11-23 22:31:50,621 INFO [BanzaiApplication.java:100] - toApp:8=FIX.4.2|9=130|35=D|34=27|49=BANZAI|52=20231123-20:31:50.621|56=EXEC|11=1700771510635|21=1|38=50|40=1|54=2|55=AAPL|59=0|60=20231123-20:31:50.621|10=068|
2023-11-23 22:31:50,623 INFO [BanzaiApplication.java:112] - fromApp:8=FIX.4.2|9=145|35=8|34=39|49=EXEC|52=20231123-20:31:50.622|56=BANZAI|6=0|11=1700771510635|14=0|17=18|20=0|37=1700771510635|38=50|39=0|54=2|55=AAPL|150=0|151=50|10=173|
2023-11-23 22:31:50,623 INFO [BanzaiApplication.java:112] - fromApp:8=FIX.4.2|9=156|35=8|34=40|49=EXEC|52=20231123-20:31:50.623|56=BANZAI|6=0|11=1700771510635|14=50|17=19|20=0|31=0|32=50|37=1700771510635|38=50|39=2|54=2|55=AAPL|150=2|151=0|10=135|
2023-11-23 22:31:50,624 INFO [BanzaiApplication.java:112] - fromApp:8=FIX.4.2|9=156|35=8|34=41|49=EXEC|52=20231123-20:31:50.623|56=BANZAI|6=0|11=1700771441768|14=50|17=20|20=0|31=0|32=50|37=1700771441768|38=50|39=2|54=1|55=AAPL|150=2|151=0|10=147|
2023-11-23 22:31:53,974 INFO [BanzaiApplication.java:100] - toApp:8=FIX.4.2|9=130|35=D|34=28|49=BANZAI|52=20231123-20:31:53.974|56=EXEC|11=1700771513989|21=1|38=50|40=1|54=2|55=AAPL|59=0|60=20231123-20:31:53.974|10=112|
2023-11-23 22:31:53,976 INFO [BanzaiApplication.java:112] - fromApp:8=FIX.4.2|9=145|35=8|34=42|49=EXEC|52=20231123-20:31:53.975|56=BANZAI|6=0|11=1700771513989|14=0|17=21|20=0|37=1700771513989|38=50|39=0|54=2|55=AAPL|150=0|151=50|10=205|
2023-11-23 22:31:53,976 INFO [BanzaiApplication.java:112] - fromApp:8=FIX.4.2|9=157|35=8|34=43|49=EXEC|52=20231123-20:31:53.976|56=BANZAI|6=50|11=1700771513989|14=50|17=22|20=0|31=0|32=50|37=1700771513989|38=50|39=2|54=2|55=AAPL|150=2|151=0|10=230|
2023-11-23 22:31:53,976 INFO [BanzaiApplication.java:112] - fromApp:8=FIX.4.2|9=158|35=8|34=44|49=EXEC|52=20231123-20:31:53.976|56=BANZAI|6=50|11=1700771480011|14=50|17=23|20=0|31=50|32=50|37=1700771480011|38=50|39=2|54=1|55=AAPL|150=2|151=0|10=243|
2023-11-23 22:31:59,723 INFO [BanzaiApplication.java:100] - toApp:8=FIX.4.2|9=130|35=D|34=29|49=BANZAI|52=20231123-20:31:59.722|56=EXEC|11=1700771519738|21=1|38=50|40=1|54=2|55=AAPL|59=0|60=20231123-20:31:59.722|10=105|
2023-11-23 22:31:59,724 INFO [BanzaiApplication.java:112] - fromApp:8=FIX.4.2|9=145|35=8|34=45|49=EXEC|52=20231123-20:31:59.724|56=BANZAI|6=0|11=1700771519738|14=0|17=24|20=0|37=1700771519738|38=50|39=0|54=2|55=AAPL|150=0|151=50|10=205|
2023-11-23 22:32:06,677 INFO [BanzaiApplication.java:100] - toApp:8=FIX.4.2|9=130|35=D|34=30|49=BANZAI|52=20231123-20:32:06.677|56=EXEC|11=1700771526694|21=1|38=50|40=1|54=1|55=AAPL|59=0|60=20231123-20:32:06.677|10=099|
2023-11-23 22:32:06,679 INFO [BanzaiApplication.java:112] - fromApp:8=FIX.4.2|9=145|35=8|34=46|49=EXEC|52=20231123-20:32:06.679|56=BANZAI|6=0|11=1700771526694|14=0|17=25|20=0|37=1700771526694|38=50|39=0|54=1|55=AAPL|150=0|151=50|10=206|
2023-11-23 22:32:06,679 INFO [BanzaiApplication.java:112] - fromApp:8=FIX.4.2|9=156|35=8|34=47|49=EXEC|52=20231123-20:32:06.679|56=BANZAI|6=0|11=1700771519738|14=50|17=26|20=0|31=0|32=50|37=1700771519738|38=50|39=2|54=2|55=AAPL|150=2|151=0|10=179|
2023-11-23 22:32:06,680 INFO [BanzaiApplication.java:112] - fromApp:8=FIX.4.2|9=156|35=8|34=48|49=EXEC|52=20231123-20:32:06.679|56=BANZAI|6=0|11=1700771526694|14=50|17=27|20=0|31=0|32=50|37=1700771526694|38=50|39=2|54=1|55=AAPL|150=2|151=0|10=178|
2023-11-23 22:32:24,205 INFO [BanzaiApplication.java:100] - toApp:8=FIX.4.2|9=130|35=D|34=31|49=BANZAI|52=20231123-20:32:24.204|56=EXEC|11=1700771544222|21=1|38=50|40=1|54=1|55=MSFT|59=0|60=20231123-20:32:24.204|10=087|
2023-11-23 22:32:24,206 INFO [BanzaiApplication.java:112] - fromApp:8=FIX.4.2|9=145|35=8|34=49|49=EXEC|52=20231123-20:32:24.206|56=BANZAI|6=0|11=1700771544222|14=0|17=28|20=0|37=1700771544222|38=50|39=0|54=1|55=MSFT|150=0|151=50|10=200|
2023-11-23 22:32:48,353 INFO [BanzaiApplication.java:100] - toApp:8=FIX.4.2|9=130|35=D|34=32|49=BANZAI|52=20231123-20:32:48.353|56=EXEC|11=1700771568372|21=1|38=50|40=1|54=1|55=GOGL|59=0|60=20231123-20:32:48.353|10=105|
2023-11-23 22:32:48,355 INFO [BanzaiApplication.java:112] - fromApp:8=FIX.4.2|9=145|35=8|34=50|49=EXEC|52=20231123-20:32:48.355|56=BANZAI|6=0|11=1700771568372|14=0|17=29|20=0|37=1700771568372|38=50|39=0|54=1|55=GOGL|150=0|151=50|10=211|
2023-11-23 22:33:18,992 INFO [BanzaiApplication.java:94] - toAdmin:8=FIX.4.2|9=54|35=0|34=33|49=BANZAI|52=20231123-20:33:18.992|56=EXEC|10=229|
2023-11-23 22:33:18,994 INFO [BanzaiApplication.java:106] - fromAdmin:8=FIX.4.2|9=54|35=0|34=51|49=EXEC|52=20231123-20:33:18.994|56=BANZAI|10=231|
2023-11-23 22:33:48,996 INFO [BanzaiApplication.java:94] - toAdmin:8=FIX.4.2|9=54|35=0|34=34|49=BANZAI|52=20231123-20:33:48.996|56=EXEC|10=237|
2023-11-23 22:33:48,998 INFO [BanzaiApplication.java:106] - fromAdmin:8=FIX.4.2|9=54|35=0|34=52|49=EXEC|52=20231123-20:33:48.997|56=BANZAI|10=238|
2023-11-23 22:34:19,080 INFO [BanzaiApplication.java:106] - fromAdmin:8=FIX.4.2|9=54|35=0|34=53|49=EXEC|52=20231123-20:34:19.079|56=BANZAI|10=229|
2023-11-23 22:34:19,081 INFO [BanzaiApplication.java:94] - toAdmin:8=FIX.4.2|9=54|35=0|34=35|49=BANZAI|52=20231123-20:34:19.081|56=EXEC|10=222|
2023-11-23 22:34:49,083 INFO [BanzaiApplication.java:106] - fromAdmin:8=FIX.4.2|9=54|35=0|34=54|49=EXEC|52=20231123-20:34:49.082|56=BANZAI|10=227|
2023-11-23 22:34:49,083 INFO [BanzaiApplication.java:94] - toAdmin:8=FIX.4.2|9=54|35=0|34=36|49=BANZAI|52=20231123-20:34:49.083|56=EXEC|10=228|
2023-11-23 22:35:05,524 INFO [DefaultSessionSchedule.java:87] - [FIX.4.2:EXEC->BANZAI] daily, 00:00:00-UTC - 00:00:00-UTC
2023-11-23 22:35:05,535 INFO [SessionConnector.java:319] - SessionTimer started
2023-11-23 22:35:05,591 INFO [NetworkingOptions.java:117] - Socket option: SocketTcpNoDelay=true
2023-11-23 22:35:05,593 INFO [NetworkingOptions.java:117] - Socket option: SocketSynchronousWrites=false
2023-11-23 22:35:05,593 INFO [NetworkingOptions.java:117] - Socket option: SocketSynchronousWriteTimeout=30000
2023-11-23 22:35:05,599 INFO [AbstractSocketAcceptor.java:118] - Listening for connections at 0.0.0.0/0.0.0.0:9878 for session(s) [FIX.4.2:EXEC->BANZAI]
2023-11-23 22:35:05,600 INFO [SingleThreadedEventHandlingStrategy.java:144] - Started QFJ Message Processor
2023-11-23 22:35:09,839 INFO [AcceptorIoHandler.java:58] - MINA session created: local=/127.0.0.1:9878, class org.apache.mina.transport.socket.nio.NioSocketSession, remote=/127.0.0.1:61995
2023-11-23 22:35:09,992 INFO [BanzaiApplication.java:94] - toAdmin:8=FIX.4.2|9=66|35=A|34=37|49=BANZAI|52=20231123-20:35:09.992|56=EXEC|98=0|108=30|10=024|
2023-11-23 22:35:10,026 INFO [BanzaiApplication.java:106] - fromAdmin:8=FIX.4.2|9=66|35=A|34=55|49=EXEC|52=20231123-20:35:10.010|56=BANZAI|98=0|108=30|10=253|
2023-11-23 22:35:14,687 INFO [BanzaiApplication.java:100] - toApp:8=FIX.4.2|9=130|35=D|34=38|49=BANZAI|52=20231123-20:35:14.686|56=EXEC|11=1700771714706|21=1|38=50|40=1|54=1|55=GOGL|59=0|60=20231123-20:35:14.686|10=115|
2023-11-23 22:35:14,698 INFO [BanzaiApplication.java:112] - fromApp:8=FIX.4.2|9=144|35=8|34=56|49=EXEC|52=20231123-20:35:14.698|56=BANZAI|6=0|11=1700771714706|14=0|17=0|20=0|37=1700771714706|38=50|39=0|54=1|55=GOGL|150=0|151=50|10=151|
2023-11-23 22:35:44,988 INFO [BanzaiApplication.java:94] - toAdmin:8=FIX.4.2|9=54|35=0|34=39|49=BANZAI|52=20231123-20:35:44.988|56=EXEC|10=241|
2023-11-23 22:35:44,990 INFO [BanzaiApplication.java:106] - fromAdmin:8=FIX.4.2|9=54|35=0|34=57|49=EXEC|52=20231123-20:35:44.989|56=BANZAI|10=242|
2023-11-23 22:36:14,986 INFO [BanzaiApplication.java:94] - toAdmin:8=FIX.4.2|9=54|35=0|34=40|49=BANZAI|52=20231123-20:36:14.986|56=EXEC|10=229|
2023-11-23 22:36:14,988 INFO [BanzaiApplication.java:106] - fromAdmin:8=FIX.4.2|9=54|35=0|34=58|49=EXEC|52=20231123-20:36:14.987|56=BANZAI|10=239|
2023-11-23 22:36:44,985 INFO [BanzaiApplication.java:94] - toAdmin:8=FIX.4.2|9=54|35=0|34=41|49=BANZAI|52=20231123-20:36:44.985|56=EXEC|10=232|
2023-11-23 22:36:44,987 INFO [BanzaiApplication.java:106] - fromAdmin:8=FIX.4.2|9=54|35=0|34=59|49=EXEC|52=20231123-20:36:44.986|56=BANZAI|10=242|
2023-11-23 22:37:14,994 INFO [BanzaiApplication.java:94] - toAdmin:8=FIX.4.2|9=54|35=0|34=42|49=BANZAI|52=20231123-20:37:14.994|56=EXEC|10=231|
2023-11-23 22:37:14,996 INFO [BanzaiApplication.java:106] - fromAdmin:8=FIX.4.2|9=54|35=0|34=60|49=EXEC|52=20231123-20:37:14.995|56=BANZAI|10=232|
2023-11-23 22:37:27,943 INFO [DefaultSessionSchedule.java:87] - [FIX.4.2:EXEC->BANZAI] daily, 00:00:00-UTC - 00:00:00-UTC
2023-11-23 22:37:27,955 INFO [SessionConnector.java:319] - SessionTimer started
2023-11-23 22:37:28,010 INFO [NetworkingOptions.java:117] - Socket option: SocketTcpNoDelay=true
2023-11-23 22:37:28,010 INFO [NetworkingOptions.java:117] - Socket option: SocketSynchronousWrites=false
2023-11-23 22:37:28,010 INFO [NetworkingOptions.java:117] - Socket option: SocketSynchronousWriteTimeout=30000
2023-11-23 22:37:28,017 INFO [AbstractSocketAcceptor.java:118] - Listening for connections at 0.0.0.0/0.0.0.0:9878 for session(s) [FIX.4.2:EXEC->BANZAI]
2023-11-23 22:37:28,018 INFO [SingleThreadedEventHandlingStrategy.java:144] - Started QFJ Message Processor
2023-11-23 22:37:32,231 INFO [AcceptorIoHandler.java:58] - MINA session created: local=/127.0.0.1:9878, class org.apache.mina.transport.socket.nio.NioSocketSession, remote=/127.0.0.1:62005
2023-11-23 22:37:32,987 INFO [BanzaiApplication.java:94] - toAdmin:8=FIX.4.2|9=66|35=A|34=43|49=BANZAI|52=20231123-20:37:32.987|56=EXEC|98=0|108=30|10=023|
2023-11-23 22:37:33,011 INFO [BanzaiApplication.java:106] - fromAdmin:8=FIX.4.2|9=66|35=A|34=61|49=EXEC|52=20231123-20:37:32.996|56=BANZAI|98=0|108=30|10=023|
2023-11-23 22:37:34,721 INFO [BanzaiApplication.java:100] - toApp:8=FIX.4.2|9=130|35=D|34=44|49=BANZAI|52=20231123-20:37:34.721|56=EXEC|11=1700771854742|21=1|38=50|40=1|54=1|55=GOGL|59=0|60=20231123-20:37:34.721|10=105|
2023-11-23 22:37:34,732 INFO [BanzaiApplication.java:112] - fromApp:8=FIX.4.2|9=144|35=8|34=62|49=EXEC|52=20231123-20:37:34.731|56=BANZAI|6=0|11=1700771854742|14=0|17=0|20=0|37=1700771854742|38=50|39=0|54=1|55=GOGL|150=0|151=50|10=150|
2023-11-23 22:38:04,966 INFO [BanzaiApplication.java:106] - fromAdmin:8=FIX.4.2|9=54|35=0|34=63|49=EXEC|52=20231123-20:38:04.965|56=BANZAI|10=232|
2023-11-23 22:38:04,967 INFO [BanzaiApplication.java:94] - toAdmin:8=FIX.4.2|9=54|35=0|34=45|49=BANZAI|52=20231123-20:38:04.967|56=EXEC|10=234|
2023-11-23 22:38:33,490 INFO [DefaultSessionSchedule.java:87] - [FIX.4.2:EXEC->BANZAI] daily, 00:00:00-UTC - 00:00:00-UTC
2023-11-23 22:38:46,650 INFO [SessionConnector.java:319] - SessionTimer started
2023-11-23 22:38:53,943 INFO [DefaultSessionSchedule.java:87] - [FIX.4.2:EXEC->BANZAI] daily, 00:00:00-UTC - 00:00:00-UTC
2023-11-23 22:38:53,973 INFO [SessionConnector.java:319] - SessionTimer started
2023-11-23 22:38:54,103 INFO [NetworkingOptions.java:117] - Socket option: SocketTcpNoDelay=true
2023-11-23 22:38:54,103 INFO [NetworkingOptions.java:117] - Socket option: SocketSynchronousWrites=false
2023-11-23 22:38:54,103 INFO [NetworkingOptions.java:117] - Socket option: SocketSynchronousWriteTimeout=30000
2023-11-23 22:38:54,121 INFO [AbstractSocketAcceptor.java:118] - Listening for connections at 0.0.0.0/0.0.0.0:9878 for session(s) [FIX.4.2:EXEC->BANZAI]
2023-11-23 22:38:54,124 INFO [SingleThreadedEventHandlingStrategy.java:144] - Started QFJ Message Processor
2023-11-23 22:38:58,007 INFO [AcceptorIoHandler.java:58] - MINA session created: local=/127.0.0.1:9878, class org.apache.mina.transport.socket.nio.NioSocketSession, remote=/127.0.0.1:62023
2023-11-23 22:38:58,993 INFO [BanzaiApplication.java:94] - toAdmin:8=FIX.4.2|9=66|35=A|34=46|49=BANZAI|52=20231123-20:38:58.993|56=EXEC|98=0|108=30|10=032|
2023-11-23 22:39:08,796 INFO [BanzaiApplication.java:106] - fromAdmin:8=FIX.4.2|9=66|35=A|34=64|49=EXEC|52=20231123-20:38:59.020|56=BANZAI|98=0|108=30|10=014|
2023-11-23 22:39:10,615 INFO [DefaultSessionSchedule.java:87] - [FIX.4.2:EXEC->BANZAI] daily, 00:00:00-UTC - 00:00:00-UTC
2023-11-23 22:39:10,646 INFO [SessionConnector.java:319] - SessionTimer started
2023-11-23 22:39:10,763 INFO [NetworkingOptions.java:117] - Socket option: SocketTcpNoDelay=true
2023-11-23 22:39:10,763 INFO [NetworkingOptions.java:117] - Socket option: SocketSynchronousWrites=false
2023-11-23 22:39:10,763 INFO [NetworkingOptions.java:117] - Socket option: SocketSynchronousWriteTimeout=30000
2023-11-23 22:39:10,781 INFO [AbstractSocketAcceptor.java:118] - Listening for connections at 0.0.0.0/0.0.0.0:9878 for session(s) [FIX.4.2:EXEC->BANZAI]
2023-11-23 22:39:10,783 INFO [SingleThreadedEventHandlingStrategy.java:144] - Started QFJ Message Processor
2023-11-23 22:39:15,173 INFO [AcceptorIoHandler.java:58] - MINA session created: local=/127.0.0.1:9878, class org.apache.mina.transport.socket.nio.NioSocketSession, remote=/127.0.0.1:62039
2023-11-23 22:39:15,987 INFO [BanzaiApplication.java:94] - toAdmin:8=FIX.4.2|9=66|35=A|34=47|49=BANZAI|52=20231123-20:39:15.987|56=EXEC|98=0|108=30|10=030|
2023-11-23 22:39:26,992 INFO [BanzaiApplication.java:94] - toAdmin:8=FIX.4.2|9=66|35=A|34=48|49=BANZAI|52=20231123-20:39:26.992|56=EXEC|98=0|108=30|10=029|
2023-11-23 22:39:28,390 INFO [AcceptorIoHandler.java:58] - MINA session created: local=/127.0.0.1:9878, class org.apache.mina.transport.socket.nio.NioSocketSession, remote=/127.0.0.1:62040
2023-11-23 22:39:36,334 INFO [BanzaiApplication.java:106] - fromAdmin:8=FIX.4.2|9=66|35=A|34=66|49=EXEC|52=20231123-20:39:36.332|56=BANZAI|98=0|108=30|10=018|
2023-11-23 22:39:36,334 INFO [BanzaiApplication.java:94] - toAdmin:8=FIX.4.2|9=64|35=2|34=49|49=BANZAI|52=20231123-20:39:36.334|56=EXEC|7=65|16=0|10=160|
2023-11-23 22:39:40,670 INFO [AcceptorIoHandler.java:58] - MINA session created: local=/127.0.0.1:9878, class org.apache.mina.transport.socket.nio.NioSocketSession, remote=/127.0.0.1:62042
2023-11-23 22:39:58,261 INFO [DefaultSessionSchedule.java:87] - [FIX.4.2:EXEC->BANZAI] daily, 00:00:00-UTC - 00:00:00-UTC
2023-11-23 22:39:58,272 INFO [SessionConnector.java:319] - SessionTimer started
2023-11-23 22:39:58,329 INFO [NetworkingOptions.java:117] - Socket option: SocketTcpNoDelay=true
2023-11-23 22:39:58,330 INFO [NetworkingOptions.java:117] - Socket option: SocketSynchronousWrites=false
2023-11-23 22:39:58,330 INFO [NetworkingOptions.java:117] - Socket option: SocketSynchronousWriteTimeout=30000
2023-11-23 22:39:58,336 INFO [AbstractSocketAcceptor.java:118] - Listening for connections at 0.0.0.0/0.0.0.0:9878 for session(s) [FIX.4.2:EXEC->BANZAI]
2023-11-23 22:39:58,337 INFO [SingleThreadedEventHandlingStrategy.java:144] - Started QFJ Message Processor
2023-11-23 22:40:02,552 INFO [Banzai.java:102] - initiating Banzai!
2023-11-23 22:40:03,372 INFO [Banzai.java:104] - Banzai initiated.
2023-11-23 22:40:03,426 INFO [DefaultSessionSchedule.java:87] - [FIX.4.2:BANZAI->EXEC] daily, 00:00:00-UTC - 00:00:00-UTC
2023-11-23 22:40:03,443 INFO [NetworkingOptions.java:117] - Socket option: SocketTcpNoDelay=true
2023-11-23 22:40:03,443 INFO [NetworkingOptions.java:117] - Socket option: SocketSynchronousWrites=false
2023-11-23 22:40:03,443 INFO [NetworkingOptions.java:117] - Socket option: SocketSynchronousWriteTimeout=30000
2023-11-23 22:40:03,502 INFO [SessionConnector.java:319] - SessionTimer started
2023-11-23 22:40:03,503 INFO [SingleThreadedEventHandlingStrategy.java:144] - Started QFJ Message Processor
2023-11-23 22:40:03,507 INFO [AcceptorIoHandler.java:58] - MINA session created: local=/127.0.0.1:9878, class org.apache.mina.transport.socket.nio.NioSocketSession, remote=/127.0.0.1:62049
2023-11-23 22:40:04,536 INFO [BanzaiApplication.java:94] - toAdmin:8=FIX.4.2|9=66|35=A|34=50|49=BANZAI|52=20231123-20:40:04.522|56=EXEC|98=0|108=30|10=255|
2023-11-23 22:40:04,563 INFO [BanzaiApplication.java:106] - fromAdmin:8=FIX.4.2|9=66|35=A|34=67|49=EXEC|52=20231123-20:40:04.546|56=BANZAI|98=0|108=30|10=013|
2023-11-23 22:40:04,564 INFO [BanzaiApplication.java:94] - toAdmin:8=FIX.4.2|9=64|35=2|34=51|49=BANZAI|52=20231123-20:40:04.564|56=EXEC|7=65|16=0|10=145|
2023-11-23 22:40:04,568 INFO [BanzaiApplication.java:106] - fromAdmin:8=FIX.4.2|9=64|35=2|34=68|49=EXEC|52=20231123-20:40:04.561|56=BANZAI|7=49|16=0|10=152|
2023-11-23 22:40:04,569 INFO [BanzaiApplication.java:94] - toAdmin:8=FIX.4.2|9=97|35=4|34=49|43=Y|49=BANZAI|52=20231123-20:40:04.569|56=EXEC|122=20231123-20:40:04.569|36=52|123=Y|10=039|
2023-11-23 22:40:04,569 INFO [BanzaiApplication.java:106] - fromAdmin:8=FIX.4.2|9=97|35=4|34=65|43=Y|49=EXEC|52=20231123-20:40:04.565|56=BANZAI|122=20231123-20:40:04.565|36=69|123=Y|10=037|
2023-11-23 22:40:19,648 INFO [BanzaiApplication.java:100] - toApp:8=FIX.4.2|9=131|35=D|34=52|49=BANZAI|52=20231123-20:40:19.648|56=EXEC|11=1700772019644|21=1|38=100|40=1|54=1|55=AAPL|59=0|60=20231123-20:40:19.647|10=142|
2023-11-23 22:40:19,664 INFO [BanzaiApplication.java:112] - fromApp:8=FIX.4.2|9=146|35=8|34=69|49=EXEC|52=20231123-20:40:19.660|56=BANZAI|6=0|11=1700772019644|14=0|17=0|20=0|37=1700772019644|38=100|39=0|54=1|55=AAPL|150=0|151=100|10=224|
2023-11-23 22:40:27,392 INFO [DefaultSessionSchedule.java:87] - [FIX.4.2:EXEC->BANZAI] daily, 00:00:00-UTC - 00:00:00-UTC
2023-11-23 22:40:27,421 INFO [SessionConnector.java:319] - SessionTimer started
2023-11-23 22:40:27,537 INFO [NetworkingOptions.java:117] - Socket option: SocketTcpNoDelay=true
2023-11-23 22:40:27,537 INFO [NetworkingOptions.java:117] - Socket option: SocketSynchronousWrites=false
2023-11-23 22:40:27,537 INFO [NetworkingOptions.java:117] - Socket option: SocketSynchronousWriteTimeout=30000
2023-11-23 22:40:27,554 INFO [AbstractSocketAcceptor.java:118] - Listening for connections at 0.0.0.0/0.0.0.0:9878 for session(s) [FIX.4.2:EXEC->BANZAI]
2023-11-23 22:40:27,556 INFO [SingleThreadedEventHandlingStrategy.java:144] - Started QFJ Message Processor
2023-11-23 22:40:29,906 INFO [Banzai.java:102] - initiating Banzai!
2023-11-23 22:40:30,748 INFO [Banzai.java:104] - Banzai initiated.
2023-11-23 22:40:30,803 INFO [DefaultSessionSchedule.java:87] - [FIX.4.2:BANZAI->EXEC] daily, 00:00:00-UTC - 00:00:00-UTC
2023-11-23 22:40:30,819 INFO [NetworkingOptions.java:117] - Socket option: SocketTcpNoDelay=true
2023-11-23 22:40:30,819 INFO [NetworkingOptions.java:117] - Socket option: SocketSynchronousWrites=false
2023-11-23 22:40:30,819 INFO [NetworkingOptions.java:117] - Socket option: SocketSynchronousWriteTimeout=30000
2023-11-23 22:40:30,879 INFO [SessionConnector.java:319] - SessionTimer started
2023-11-23 22:40:30,880 INFO [SingleThreadedEventHandlingStrategy.java:144] - Started QFJ Message Processor
2023-11-23 22:40:30,889 INFO [AcceptorIoHandler.java:58] - MINA session created: local=/127.0.0.1:9878, class org.apache.mina.transport.socket.nio.NioSocketSession, remote=/127.0.0.1:62058
2023-11-23 22:40:31,901 INFO [BanzaiApplication.java:94] - toAdmin:8=FIX.4.2|9=66|35=A|34=53|49=BANZAI|52=20231123-20:40:31.887|56=EXEC|98=0|108=30|10=016|
2023-11-23 22:40:31,942 INFO [BanzaiApplication.java:106] - fromAdmin:8=FIX.4.2|9=66|35=A|34=70|49=EXEC|52=20231123-20:40:31.920|56=BANZAI|98=0|108=30|10=003|
2023-11-23 22:40:49,312 INFO [BanzaiApplication.java:100] - toApp:8=FIX.4.2|9=131|35=D|34=54|49=BANZAI|52=20231123-20:40:49.311|56=EXEC|11=1700772049308|21=1|38=100|40=1|54=1|55=AAPL|59=0|60=20231123-20:40:49.310|10=124|
2023-11-23 22:40:49,333 INFO [BanzaiApplication.java:112] - fromApp:8=FIX.4.2|9=146|35=8|34=71|49=EXEC|52=20231123-20:40:49.330|56=BANZAI|6=0|11=1700772049308|14=0|17=0|20=0|37=1700772049308|38=100|39=0|54=1|55=AAPL|150=0|151=100|10=214|
2023-11-23 22:41:19,880 INFO [BanzaiApplication.java:94] - toAdmin:8=FIX.4.2|9=54|35=0|34=55|49=BANZAI|52=20231123-20:41:19.880|56=EXEC|10=229|
2023-11-23 22:41:24,350 INFO [BanzaiApplication.java:106] - fromAdmin:8=FIX.4.2|9=54|35=0|34=72|49=EXEC|52=20231123-20:41:24.349|56=BANZAI|10=224|
2023-11-23 22:41:26,170 INFO [DefaultSessionSchedule.java:87] - [FIX.4.2:EXEC->BANZAI] daily, 00:00:00-UTC - 00:00:00-UTC
2023-11-23 22:41:26,200 INFO [SessionConnector.java:319] - SessionTimer started
2023-11-23 22:41:26,314 INFO [NetworkingOptions.java:117] - Socket option: SocketTcpNoDelay=true
2023-11-23 22:41:26,314 INFO [NetworkingOptions.java:117] - Socket option: SocketSynchronousWrites=false
2023-11-23 22:41:26,314 INFO [NetworkingOptions.java:117] - Socket option: SocketSynchronousWriteTimeout=30000
2023-11-23 22:41:26,330 INFO [AbstractSocketAcceptor.java:118] - Listening for connections at 0.0.0.0/0.0.0.0:9878 for session(s) [FIX.4.2:EXEC->BANZAI]
2023-11-23 22:41:26,332 INFO [SingleThreadedEventHandlingStrategy.java:144] - Started QFJ Message Processor
2023-11-23 22:41:30,490 INFO [AcceptorIoHandler.java:58] - MINA session created: local=/127.0.0.1:9878, class org.apache.mina.transport.socket.nio.NioSocketSession, remote=/127.0.0.1:62065
2023-11-23 22:41:30,887 INFO [BanzaiApplication.java:94] - toAdmin:8=FIX.4.2|9=66|35=A|34=56|49=BANZAI|52=20231123-20:41:30.887|56=EXEC|98=0|108=30|10=019|
2023-11-23 22:41:30,927 INFO [BanzaiApplication.java:106] - fromAdmin:8=FIX.4.2|9=66|35=A|34=73|49=EXEC|52=20231123-20:41:30.904|56=BANZAI|98=0|108=30|10=008|
2023-11-23 22:41:34,276 INFO [BanzaiApplication.java:100] - toApp:8=FIX.4.2|9=131|35=D|34=57|49=BANZAI|52=20231123-20:41:34.276|56=EXEC|11=1700772094278|21=1|38=100|40=1|54=1|55=AAPL|59=0|60=20231123-20:41:34.276|10=144|
2023-11-23 22:41:34,294 INFO [BanzaiApplication.java:112] - fromApp:8=FIX.4.2|9=146|35=8|34=74|49=EXEC|52=20231123-20:41:34.293|56=BANZAI|6=0|11=1700772094278|14=0|17=0|20=0|37=1700772094278|38=100|39=0|54=1|55=AAPL|150=0|151=100|10=232|
2023-11-23 22:41:58,654 INFO [DefaultSessionSchedule.java:87] - [FIX.4.2:EXEC->BANZAI] daily, 00:00:00-UTC - 00:00:00-UTC
2023-11-23 22:41:58,682 INFO [SessionConnector.java:319] - SessionTimer started
2023-11-23 22:41:58,795 INFO [NetworkingOptions.java:117] - Socket option: SocketTcpNoDelay=true
2023-11-23 22:41:58,795 INFO [NetworkingOptions.java:117] - Socket option: SocketSynchronousWrites=false
2023-11-23 22:41:58,795 INFO [NetworkingOptions.java:117] - Socket option: SocketSynchronousWriteTimeout=30000
2023-11-23 22:41:58,812 INFO [AbstractSocketAcceptor.java:118] - Listening for connections at 0.0.0.0/0.0.0.0:9878 for session(s) [FIX.4.2:EXEC->BANZAI]
2023-11-23 22:41:58,814 INFO [SingleThreadedEventHandlingStrategy.java:144] - Started QFJ Message Processor
2023-11-23 22:42:02,777 INFO [AcceptorIoHandler.java:58] - MINA session created: local=/127.0.0.1:9878, class org.apache.mina.transport.socket.nio.NioSocketSession, remote=/127.0.0.1:62071
2023-11-23 22:42:02,891 INFO [BanzaiApplication.java:94] - toAdmin:8=FIX.4.2|9=66|35=A|34=58|49=BANZAI|52=20231123-20:42:02.891|56=EXEC|98=0|108=30|10=016|
2023-11-23 22:42:02,929 INFO [BanzaiApplication.java:106] - fromAdmin:8=FIX.4.2|9=66|35=A|34=75|49=EXEC|52=20231123-20:42:02.908|56=BANZAI|98=0|108=30|10=014|
2023-11-23 22:42:04,393 INFO [BanzaiApplication.java:100] - toApp:8=FIX.4.2|9=131|35=D|34=59|49=BANZAI|52=20231123-20:42:04.393|56=EXEC|11=1700772124396|21=1|38=100|40=1|54=1|55=AAPL|59=0|60=20231123-20:42:04.393|10=137|
2023-11-23 22:42:08,008 INFO [BanzaiApplication.java:112] - fromApp:8=FIX.4.2|9=146|35=8|34=76|49=EXEC|52=20231123-20:42:08.006|56=BANZAI|6=0|11=1700772124396|14=0|17=0|20=0|37=1700772124396|38=100|39=0|54=1|55=AAPL|150=0|151=100|10=218|
2023-11-23 22:42:29,771 INFO [DefaultSessionSchedule.java:87] - [FIX.4.2:EXEC->BANZAI] daily, 00:00:00-UTC - 00:00:00-UTC
2023-11-23 22:42:29,800 INFO [SessionConnector.java:319] - SessionTimer started
2023-11-23 22:42:29,910 INFO [NetworkingOptions.java:117] - Socket option: SocketTcpNoDelay=true
2023-11-23 22:42:29,910 INFO [NetworkingOptions.java:117] - Socket option: SocketSynchronousWrites=false
2023-11-23 22:42:29,910 INFO [NetworkingOptions.java:117] - Socket option: SocketSynchronousWriteTimeout=30000
2023-11-23 22:42:29,926 INFO [AbstractSocketAcceptor.java:118] - Listening for connections at 0.0.0.0/0.0.0.0:9878 for session(s) [FIX.4.2:EXEC->BANZAI]
2023-11-23 22:42:29,928 INFO [SingleThreadedEventHandlingStrategy.java:144] - Started QFJ Message Processor
2023-11-23 22:42:34,085 INFO [AcceptorIoHandler.java:58] - MINA session created: local=/127.0.0.1:9878, class org.apache.mina.transport.socket.nio.NioSocketSession, remote=/127.0.0.1:62076
2023-11-23 22:42:34,894 INFO [BanzaiApplication.java:94] - toAdmin:8=FIX.4.2|9=66|35=A|34=60|49=BANZAI|52=20231123-20:42:34.894|56=EXEC|98=0|108=30|10=017|
2023-11-23 22:42:34,933 INFO [BanzaiApplication.java:106] - fromAdmin:8=FIX.4.2|9=66|35=A|34=77|49=EXEC|52=20231123-20:42:34.912|56=BANZAI|98=0|108=30|10=016|
2023-11-23 22:42:36,849 INFO [BanzaiApplication.java:100] - toApp:8=FIX.4.2|9=131|35=D|34=61|49=BANZAI|52=20231123-20:42:36.849|56=EXEC|11=1700772156853|21=1|38=100|40=1|54=1|55=AAPL|59=0|60=20231123-20:42:36.849|10=155|
2023-11-23 22:43:06,884 INFO [BanzaiApplication.java:94] - toAdmin:8=FIX.4.2|9=54|35=0|34=62|49=BANZAI|52=20231123-20:43:06.884|56=EXEC|10=229|
2023-11-23 22:43:08,962 INFO [BanzaiApplication.java:106] - fromAdmin:8=FIX.4.2|9=54|35=0|34=78|49=EXEC|52=20231123-20:43:06.949|56=BANZAI|10=238|
2023-11-23 22:43:23,596 INFO [BanzaiApplication.java:106] - fromAdmin:8=FIX.4.2|9=63|35=1|34=79|49=EXEC|52=20231123-20:43:23.594|56=BANZAI|112=TEST|10=253|
2023-11-23 22:43:23,596 INFO [BanzaiApplication.java:94] - toAdmin:8=FIX.4.2|9=63|35=0|34=63|49=BANZAI|52=20231123-20:43:23.596|56=EXEC|112=TEST|10=247|
2023-11-23 22:43:52,880 INFO [BanzaiApplication.java:94] - toAdmin:8=FIX.4.2|9=66|35=A|34=64|49=BANZAI|52=20231123-20:43:52.880|56=EXEC|98=0|108=30|10=017|
2023-11-23 22:44:03,894 INFO [BanzaiApplication.java:94] - toAdmin:8=FIX.4.2|9=66|35=A|34=65|49=BANZAI|52=20231123-20:44:03.894|56=EXEC|98=0|108=30|10=020|
2023-11-23 22:43:53,652 INFO [AcceptorIoHandler.java:58] - MINA session created: local=/127.0.0.1:9878, class org.apache.mina.transport.socket.nio.NioSocketSession, remote=/127.0.0.1:62085
2023-11-23 22:44:11,267 INFO [AcceptorIoHandler.java:58] - MINA session created: local=/127.0.0.1:9878, class org.apache.mina.transport.socket.nio.NioSocketSession, remote=/127.0.0.1:62086
2023-11-23 22:44:15,883 INFO [BanzaiApplication.java:94] - toAdmin:8=FIX.4.2|9=66|35=A|34=66|49=BANZAI|52=20231123-20:44:15.883|56=EXEC|98=0|108=30|10=022|
2023-11-23 22:44:15,531 INFO [AcceptorIoHandler.java:58] - MINA session created: local=/127.0.0.1:9878, class org.apache.mina.transport.socket.nio.NioSocketSession, remote=/127.0.0.1:62088
2023-11-23 22:44:21,892 INFO [BanzaiApplication.java:94] - toAdmin:8=FIX.4.2|9=66|35=A|34=67|49=BANZAI|52=20231123-20:44:21.892|56=EXEC|98=0|108=30|10=020|
2023-11-23 22:44:27,645 INFO [AcceptorIoHandler.java:58] - MINA session created: local=/127.0.0.1:9878, class org.apache.mina.transport.socket.nio.NioSocketSession, remote=/127.0.0.1:62089
2023-11-23 22:44:33,887 INFO [BanzaiApplication.java:94] - toAdmin:8=FIX.4.2|9=66|35=A|34=68|49=BANZAI|52=20231123-20:44:33.887|56=EXEC|98=0|108=30|10=028|
2023-11-23 22:44:34,979 INFO [AcceptorIoHandler.java:58] - MINA session created: local=/127.0.0.1:9878, class org.apache.mina.transport.socket.nio.NioSocketSession, remote=/127.0.0.1:62090
2023-11-23 22:44:38,891 INFO [BanzaiApplication.java:94] - toAdmin:8=FIX.4.2|9=66|35=A|34=69|49=BANZAI|52=20231123-20:44:38.891|56=EXEC|98=0|108=30|10=029|
2023-11-23 22:44:38,564 INFO [AcceptorIoHandler.java:58] - MINA session created: local=/127.0.0.1:9878, class org.apache.mina.transport.socket.nio.NioSocketSession, remote=/127.0.0.1:62092
2023-11-23 22:44:43,889 INFO [BanzaiApplication.java:94] - toAdmin:8=FIX.4.2|9=66|35=A|34=70|49=BANZAI|52=20231123-20:44:43.889|56=EXEC|98=0|108=30|10=024|
2023-11-23 22:44:43,862 INFO [AcceptorIoHandler.java:58] - MINA session created: local=/127.0.0.1:9878, class org.apache.mina.transport.socket.nio.NioSocketSession, remote=/127.0.0.1:62093
2023-11-23 22:44:48,893 INFO [BanzaiApplication.java:94] - toAdmin:8=FIX.4.2|9=66|35=A|34=71|49=BANZAI|52=20231123-20:44:48.893|56=EXEC|98=0|108=30|10=025|
2023-11-23 22:44:49,100 INFO [AcceptorIoHandler.java:58] - MINA session created: local=/127.0.0.1:9878, class org.apache.mina.transport.socket.nio.NioSocketSession, remote=/127.0.0.1:62095
2023-11-23 22:44:53,720 INFO [AcceptorIoHandler.java:58] - MINA session created: local=/127.0.0.1:9878, class org.apache.mina.transport.socket.nio.NioSocketSession, remote=/127.0.0.1:62096
2023-11-23 22:44:53,883 INFO [BanzaiApplication.java:94] - toAdmin:8=FIX.4.2|9=66|35=A|34=72|49=BANZAI|52=20231123-20:44:53.883|56=EXEC|98=0|108=30|10=021|
2023-11-23 22:44:58,888 INFO [BanzaiApplication.java:94] - toAdmin:8=FIX.4.2|9=66|35=A|34=73|49=BANZAI|52=20231123-20:44:58.888|56=EXEC|98=0|108=30|10=032|
2023-11-23 22:45:10,888 INFO [BanzaiApplication.java:94] - toAdmin:8=FIX.4.2|9=66|35=A|34=74|49=BANZAI|52=20231123-20:45:10.888|56=EXEC|98=0|108=30|10=022|
2023-11-23 22:45:21,888 INFO [BanzaiApplication.java:94] - toAdmin:8=FIX.4.2|9=66|35=A|34=75|49=BANZAI|52=20231123-20:45:21.888|56=EXEC|98=0|108=30|10=025|
2023-11-23 22:44:59,983 INFO [AcceptorIoHandler.java:58] - MINA session created: local=/127.0.0.1:9878, class org.apache.mina.transport.socket.nio.NioSocketSession, remote=/127.0.0.1:62097
2023-11-23 22:45:31,337 INFO [AcceptorIoHandler.java:58] - MINA session created: local=/127.0.0.1:9878, class org.apache.mina.transport.socket.nio.NioSocketSession, remote=/127.0.0.1:62098
2023-11-23 22:45:31,337 INFO [AcceptorIoHandler.java:58] - MINA session created: local=/127.0.0.1:9878, class org.apache.mina.transport.socket.nio.NioSocketSession, remote=/127.0.0.1:62100
2023-11-23 22:45:44,954 INFO [DefaultSessionSchedule.java:87] - [FIX.4.2:EXEC->BANZAI] daily, 00:00:00-UTC - 00:00:00-UTC
2023-11-23 22:45:44,966 INFO [SessionConnector.java:319] - SessionTimer started
2023-11-23 22:45:45,023 INFO [NetworkingOptions.java:117] - Socket option: SocketTcpNoDelay=true
2023-11-23 22:45:45,023 INFO [NetworkingOptions.java:117] - Socket option: SocketSynchronousWrites=false
2023-11-23 22:45:45,023 INFO [NetworkingOptions.java:117] - Socket option: SocketSynchronousWriteTimeout=30000
2023-11-23 22:45:45,029 INFO [AbstractSocketAcceptor.java:118] - Listening for connections at 0.0.0.0/0.0.0.0:9878 for session(s) [FIX.4.2:EXEC->BANZAI]
2023-11-23 22:45:45,030 INFO [SingleThreadedEventHandlingStrategy.java:144] - Started QFJ Message Processor
2023-11-23 22:45:47,665 INFO [Banzai.java:102] - initiating Banzai!
2023-11-23 22:45:48,488 INFO [Banzai.java:104] - Banzai initiated.
2023-11-23 22:45:48,541 INFO [DefaultSessionSchedule.java:87] - [FIX.4.2:BANZAI->EXEC] daily, 00:00:00-UTC - 00:00:00-UTC
2023-11-23 22:45:48,558 INFO [NetworkingOptions.java:117] - Socket option: SocketTcpNoDelay=true
2023-11-23 22:45:48,559 INFO [NetworkingOptions.java:117] - Socket option: SocketSynchronousWrites=false
2023-11-23 22:45:48,559 INFO [NetworkingOptions.java:117] - Socket option: SocketSynchronousWriteTimeout=30000
2023-11-23 22:45:48,616 INFO [SessionConnector.java:319] - SessionTimer started
2023-11-23 22:45:48,617 INFO [SingleThreadedEventHandlingStrategy.java:144] - Started QFJ Message Processor
2023-11-23 22:45:48,621 INFO [AcceptorIoHandler.java:58] - MINA session created: local=/127.0.0.1:9878, class org.apache.mina.transport.socket.nio.NioSocketSession, remote=/127.0.0.1:62108
2023-11-23 22:45:49,649 INFO [BanzaiApplication.java:94] - toAdmin:8=FIX.4.2|9=66|35=A|34=76|49=BANZAI|52=20231123-20:45:49.636|56=EXEC|98=0|108=30|10=027|
2023-11-23 22:45:49,677 INFO [BanzaiApplication.java:106] - fromAdmin:8=FIX.4.2|9=66|35=A|34=81|49=EXEC|52=20231123-20:45:49.659|56=BANZAI|98=0|108=30|10=028|
2023-11-23 22:45:49,677 INFO [BanzaiApplication.java:94] - toAdmin:8=FIX.4.2|9=64|35=2|34=77|49=BANZAI|52=20231123-20:45:49.677|56=EXEC|7=80|16=0|10=169|
2023-11-23 22:45:49,682 INFO [BanzaiApplication.java:106] - fromAdmin:8=FIX.4.2|9=64|35=2|34=82|49=EXEC|52=20231123-20:45:49.674|56=BANZAI|7=61|16=0|10=161|
2023-11-23 22:45:49,686 INFO [BanzaiApplication.java:100] - toApp:8=FIX.4.2|9=162|35=D|34=61|43=Y|49=BANZAI|52=20231123-20:45:49.686|56=EXEC|122=20231123-20:42:36.849|11=1700772156853|21=1|38=100|40=1|54=1|55=AAPL|59=0|60=20231123-20:42:36.849|10=169|
2023-11-23 22:45:49,687 INFO [BanzaiApplication.java:94] - toAdmin:8=FIX.4.2|9=97|35=4|34=62|43=Y|49=BANZAI|52=20231123-20:45:49.687|56=EXEC|122=20231123-20:45:49.687|36=78|123=Y|10=072|
2023-11-23 22:45:49,689 INFO [BanzaiApplication.java:112] - fromApp:8=FIX.4.2|9=177|35=8|34=80|43=Y|49=EXEC|52=20231123-20:45:49.684|56=BANZAI|122=20231123-20:44:54.758|6=0|11=1700772156853|14=0|17=0|20=0|37=1700772156853|38=100|39=0|54=1|55=AAPL|150=0|151=100|10=248|
2023-11-23 22:45:49,692 INFO [BanzaiApplication.java:112] - fromApp:8=FIX.4.2|9=146|35=8|34=83|49=EXEC|52=20231123-20:45:49.691|56=BANZAI|6=0|11=1700772156853|14=0|17=0|20=0|37=1700772156853|38=100|39=0|54=1|55=AAPL|150=0|151=100|10=240|
2023-11-23 22:45:55,578 INFO [BanzaiApplication.java:100] - toApp:8=FIX.4.2|9=131|35=D|34=78|49=BANZAI|52=20231123-20:45:55.578|56=EXEC|11=1700772355578|21=1|38=100|40=1|54=1|55=AAPL|59=0|60=20231123-20:45:55.577|10=173|
2023-11-23 22:45:55,581 INFO [BanzaiApplication.java:112] - fromApp:8=FIX.4.2|9=146|35=8|34=84|49=EXEC|52=20231123-20:45:55.580|56=BANZAI|6=0|11=1700772355578|14=0|17=1|20=0|37=1700772355578|38=100|39=0|54=1|55=AAPL|150=0|151=100|10=246|
2023-11-23 22:46:10,759 INFO [BanzaiApplication.java:100] - toApp:8=FIX.4.2|9=131|35=D|34=79|49=BANZAI|52=20231123-20:46:10.758|56=EXEC|11=1700772370760|21=1|38=100|40=1|54=1|55=AAPL|59=0|60=20231123-20:46:10.758|10=149|
2023-11-23 22:46:10,761 INFO [BanzaiApplication.java:112] - fromApp:8=FIX.4.2|9=146|35=8|34=85|49=EXEC|52=20231123-20:46:10.761|56=BANZAI|6=0|11=1700772370760|14=0|17=2|20=0|37=1700772370760|38=100|39=0|54=1|55=AAPL|150=0|151=100|10=221|
2023-11-23 22:46:18,759 INFO [BanzaiApplication.java:100] - toApp:8=FIX.4.2|9=131|35=D|34=80|49=BANZAI|52=20231123-20:46:18.759|56=EXEC|11=1700772378762|21=1|38=100|40=1|54=2|55=AAPL|59=0|60=20231123-20:46:18.759|10=170|
2023-11-23 22:46:18,761 INFO [BanzaiApplication.java:112] - fromApp:8=FIX.4.2|9=146|35=8|34=86|49=EXEC|52=20231123-20:46:18.760|56=BANZAI|6=0|11=1700772378762|14=0|17=3|20=0|37=1700772378762|38=100|39=0|54=2|55=AAPL|150=0|151=100|10=251|
2023-11-23 22:46:18,761 INFO [BanzaiApplication.java:112] - fromApp:8=FIX.4.2|9=158|35=8|34=87|49=EXEC|52=20231123-20:46:18.760|56=BANZAI|6=0|11=1700772378762|14=100|17=4|20=0|31=0|32=100|37=1700772378762|38=100|39=2|54=2|55=AAPL|150=2|151=0|10=010|
2023-11-23 22:46:18,761 INFO [BanzaiApplication.java:112] - fromApp:8=FIX.4.2|9=158|35=8|34=88|49=EXEC|52=20231123-20:46:18.760|56=BANZAI|6=0|11=1700772370760|14=100|17=5|20=0|31=0|32=100|37=1700772370760|38=100|39=2|54=1|55=AAPL|150=2|151=0|10=247|
2023-11-23 22:46:27,430 INFO [BanzaiApplication.java:100] - toApp:8=FIX.4.2|9=131|35=D|34=81|49=BANZAI|52=20231123-20:46:27.429|56=EXEC|11=1700772387433|21=1|38=100|40=1|54=2|55=AAPL|59=0|60=20231123-20:46:27.429|10=154|
2023-11-23 22:46:27,431 INFO [BanzaiApplication.java:112] - fromApp:8=FIX.4.2|9=146|35=8|34=89|49=EXEC|52=20231123-20:46:27.431|56=BANZAI|6=0|11=1700772387433|14=0|17=6|20=0|37=1700772387433|38=100|39=0|54=2|55=AAPL|150=0|151=100|10=242|
2023-11-23 22:46:27,432 INFO [BanzaiApplication.java:112] - fromApp:8=FIX.4.2|9=158|35=8|34=90|49=EXEC|52=20231123-20:46:27.431|56=BANZAI|6=0|11=1700772387433|14=100|17=7|20=0|31=0|32=100|37=1700772387433|38=100|39=2|54=2|55=AAPL|150=2|151=0|10=248|
2023-11-23 22:46:27,432 INFO [BanzaiApplication.java:112] - fromApp:8=FIX.4.2|9=158|35=8|34=91|49=EXEC|52=20231123-20:46:27.431|56=BANZAI|6=0|11=1700772355578|14=100|17=8|20=0|31=0|32=100|37=1700772355578|38=100|39=2|54=1|55=AAPL|150=2|151=0|10=003|
2023-11-23 22:46:33,499 INFO [BanzaiApplication.java:100] - toApp:8=FIX.4.2|9=131|35=D|34=82|49=BANZAI|52=20231123-20:46:33.499|56=EXEC|11=1700772393504|21=1|38=100|40=1|54=2|55=AAPL|59=0|60=20231123-20:46:33.499|10=159|
2023-11-23 22:46:33,501 INFO [BanzaiApplication.java:112] - fromApp:8=FIX.4.2|9=146|35=8|34=92|49=EXEC|52=20231123-20:46:33.500|56=BANZAI|6=0|11=1700772393504|14=0|17=9|20=0|37=1700772393504|38=100|39=0|54=2|55=AAPL|150=0|151=100|10=225|
2023-11-23 22:46:33,501 INFO [BanzaiApplication.java:112] - fromApp:8=FIX.4.2|9=159|35=8|34=93|49=EXEC|52=20231123-20:46:33.501|56=BANZAI|6=0|11=1700772393504|14=100|17=10|20=0|31=0|32=100|37=1700772393504|38=100|39=2|54=2|55=AAPL|150=2|151=0|10=025|
2023-11-23 22:46:33,502 INFO [BanzaiApplication.java:112] - fromApp:8=FIX.4.2|9=159|35=8|34=94|49=EXEC|52=20231123-20:46:33.501|56=BANZAI|6=0|11=1700772156853|14=100|17=11|20=0|31=0|32=100|37=1700772156853|38=100|39=2|54=1|55=AAPL|150=2|151=0|10=034|
2023-11-23 22:46:53,963 INFO [BanzaiApplication.java:100] - toApp:8=FIX.4.2|9=138|35=D|34=83|49=BANZAI|52=20231123-20:46:53.963|56=EXEC|11=1700772413969|21=1|38=100|40=2|44=100|54=2|55=AAPL|59=0|60=20231123-20:46:53.963|10=227|
2023-11-23 22:46:53,964 INFO [BanzaiApplication.java:112] - fromApp:8=FIX.4.2|9=147|35=8|34=95|49=EXEC|52=20231123-20:46:53.964|56=BANZAI|6=0|11=1700772413969|14=0|17=12|20=0|37=1700772413969|38=100|39=0|54=2|55=AAPL|150=0|151=100|10=047|
2023-11-23 22:46:58,921 INFO [BanzaiApplication.java:100] - toApp:8=FIX.4.2|9=131|35=D|34=84|49=BANZAI|52=20231123-20:46:58.921|56=EXEC|11=1700772418928|21=1|38=100|40=1|54=1|55=AAPL|59=0|60=20231123-20:46:58.921|10=162|
2023-11-23 22:46:58,923 INFO [BanzaiApplication.java:112] - fromApp:8=FIX.4.2|9=147|35=8|34=96|49=EXEC|52=20231123-20:46:58.922|56=BANZAI|6=0|11=1700772418928|14=0|17=13|20=0|37=1700772418928|38=100|39=0|54=1|55=AAPL|150=0|151=100|10=047|
2023-11-23 22:46:58,923 INFO [BanzaiApplication.java:112] - fromApp:8=FIX.4.2|9=163|35=8|34=97|49=EXEC|52=20231123-20:46:58.922|56=BANZAI|6=100|11=1700772413969|14=100|17=14|20=0|31=100|32=100|37=1700772413969|38=100|39=2|54=2|55=AAPL|150=2|151=0|10=252|
2023-11-23 22:46:58,923 INFO [BanzaiApplication.java:112] - fromApp:8=FIX.4.2|9=161|35=8|34=98|49=EXEC|52=20231123-20:46:58.922|56=BANZAI|6=100|11=1700772418928|14=100|17=15|20=0|31=0|32=100|37=1700772418928|38=100|39=2|54=1|55=AAPL|150=2|151=0|10=154|
2023-11-23 22:47:09,223 INFO [BanzaiApplication.java:100] - toApp:8=FIX.4.2|9=138|35=D|34=85|49=BANZAI|52=20231123-20:47:09.223|56=EXEC|11=1700772429231|21=1|38=100|40=2|44=100|54=1|55=AAPL|59=0|60=20231123-20:47:09.223|10=199|
2023-11-23 22:47:09,227 INFO [BanzaiApplication.java:112] - fromApp:8=FIX.4.2|9=147|35=8|34=99|49=EXEC|52=20231123-20:47:09.225|56=BANZAI|6=0|11=1700772429231|14=0|17=16|20=0|37=1700772429231|38=100|39=0|54=1|55=AAPL|150=0|151=100|10=024|
2023-11-23 22:47:12,389 INFO [BanzaiApplication.java:100] - toApp:8=FIX.4.2|9=131|35=D|34=86|49=BANZAI|52=20231123-20:47:12.389|56=EXEC|11=1700772432398|21=1|38=100|40=1|54=2|55=AAPL|59=0|60=20231123-20:47:12.389|10=160|
2023-11-23 22:47:12,391 INFO [BanzaiApplication.java:112] - fromApp:8=FIX.4.2|9=148|35=8|34=100|49=EXEC|52=20231123-20:47:12.391|56=BANZAI|6=0|11=1700772432398|14=0|17=17|20=0|37=1700772432398|38=100|39=0|54=2|55=AAPL|150=0|151=100|10=072|
2023-11-23 22:47:12,391 INFO [BanzaiApplication.java:112] - fromApp:8=FIX.4.2|9=162|35=8|34=101|49=EXEC|52=20231123-20:47:12.391|56=BANZAI|6=100|11=1700772432398|14=100|17=18|20=0|31=0|32=100|37=1700772432398|38=100|39=2|54=2|55=AAPL|150=2|151=0|10=177|
2023-11-23 22:47:12,392 INFO [BanzaiApplication.java:112] - fromApp:8=FIX.4.2|9=164|35=8|34=102|49=EXEC|52=20231123-20:47:12.391|56=BANZAI|6=100|11=1700772429231|14=100|17=19|20=0|31=100|32=100|37=1700772429231|38=100|39=2|54=1|55=AAPL|150=2|151=0|10=005|
2023-11-23 22:47:23,856 INFO [BanzaiApplication.java:100] - toApp:8=FIX.4.2|9=137|35=D|34=87|49=BANZAI|52=20231123-20:47:23.856|56=EXEC|11=1700772443866|21=1|38=100|40=2|44=90|54=2|55=AAPL|59=0|60=20231123-20:47:23.856|10=187|
2023-11-23 22:47:23,858 INFO [BanzaiApplication.java:112] - fromApp:8=FIX.4.2|9=148|35=8|34=103|49=EXEC|52=20231123-20:47:23.857|56=BANZAI|6=0|11=1700772443866|14=0|17=20|20=0|37=1700772443866|38=100|39=0|54=2|55=AAPL|150=0|151=100|10=082|
2023-11-23 22:47:34,645 INFO [BanzaiApplication.java:100] - toApp:8=FIX.4.2|9=137|35=D|34=88|49=BANZAI|52=20231123-20:47:34.645|56=EXEC|11=1700772454656|21=1|38=100|40=2|44=95|54=1|55=AAPL|59=0|60=20231123-20:47:34.645|10=187|
2023-11-23 22:47:34,647 INFO [BanzaiApplication.java:112] - fromApp:8=FIX.4.2|9=148|35=8|34=104|49=EXEC|52=20231123-20:47:34.646|56=BANZAI|6=0|11=1700772454656|14=0|17=21|20=0|37=1700772454656|38=100|39=0|54=1|55=AAPL|150=0|151=100|10=079|
2023-11-23 22:47:34,647 INFO [BanzaiApplication.java:112] - fromApp:8=FIX.4.2|9=162|35=8|34=105|49=EXEC|52=20231123-20:47:34.646|56=BANZAI|6=90|11=1700772443866|14=100|17=22|20=0|31=90|32=100|37=1700772443866|38=100|39=2|54=2|55=AAPL|150=2|151=0|10=204|
2023-11-23 22:47:34,647 INFO [BanzaiApplication.java:112] - fromApp:8=FIX.4.2|9=162|35=8|34=106|49=EXEC|52=20231123-20:47:34.647|56=BANZAI|6=90|11=1700772454656|14=100|17=23|20=0|31=95|32=100|37=1700772454656|38=100|39=2|54=1|55=AAPL|150=2|151=0|10=209|
