2023-11-24 14:24:35,128 INFO [DefaultSessionSchedule.java:87] - [FIX.4.2:EXEC->BANZAI] daily, 00:00:00-UTC - 00:00:00-UTC
2023-11-24 14:24:35,142 INFO [SessionConnector.java:319] - SessionTimer started
2023-11-24 14:24:35,202 INFO [NetworkingOptions.java:117] - Socket option: SocketTcpNoDelay=true
2023-11-24 14:24:35,202 INFO [NetworkingOptions.java:117] - Socket option: SocketSynchronousWrites=false
2023-11-24 14:24:35,202 INFO [NetworkingOptions.java:117] - Socket option: SocketSynchronousWriteTimeout=30000
2023-11-24 14:24:35,210 INFO [AbstractSocketAcceptor.java:118] - Listening for connections at 0.0.0.0/0.0.0.0:9878 for session(s) [FIX.4.2:EXEC->BANZAI]
2023-11-24 14:24:35,211 INFO [SingleThreadedEventHandlingStrategy.java:144] - Started QFJ Message Processor
2023-11-24 14:24:37,640 INFO [OrderEntry.java:98] - initiating Banzai!
2023-11-24 14:24:38,563 INFO [OrderEntry.java:100] - Banzai initiated.
2023-11-24 14:24:38,615 INFO [DefaultSessionSchedule.java:87] - [FIX.4.2:BANZAI->EXEC] daily, 00:00:00-UTC - 00:00:00-UTC
2023-11-24 14:24:38,632 INFO [NetworkingOptions.java:117] - Socket option: SocketTcpNoDelay=true
2023-11-24 14:24:38,632 INFO [NetworkingOptions.java:117] - Socket option: SocketSynchronousWrites=false
2023-11-24 14:24:38,632 INFO [NetworkingOptions.java:117] - Socket option: SocketSynchronousWriteTimeout=30000
2023-11-24 14:24:38,692 INFO [SessionConnector.java:319] - SessionTimer started
2023-11-24 14:24:38,694 INFO [SingleThreadedEventHandlingStrategy.java:144] - Started QFJ Message Processor
2023-11-24 14:24:38,697 INFO [AcceptorIoHandler.java:58] - MINA session created: local=/127.0.0.1:9878, class org.apache.mina.transport.socket.nio.NioSocketSession, remote=/127.0.0.1:64438
2023-11-24 14:24:39,726 INFO [OrderEntryApplication.java:94] - toAdmin:8=FIX.4.2|9=65|35=A|34=1|49=BANZAI|52=20231124-12:24:39.713|56=EXEC|98=0|108=30|10=216|
2023-11-24 14:24:39,754 INFO [OrderEntryApplication.java:106] - fromAdmin:8=FIX.4.2|9=65|35=A|34=1|49=EXEC|52=20231124-12:24:39.737|56=BANZAI|98=0|108=30|10=222|
2023-11-24 14:24:46,996 INFO [OrderEntryApplication.java:100] - toApp:8=FIX.4.2|9=130|35=D|34=2|49=BANZAI|52=20231124-12:24:46.996|56=EXEC|11=1700828686992|21=1|38=100|40=1|54=1|55=AAPL|59=0|60=20231124-12:24:46.995|10=126|
2023-11-24 14:24:47,011 INFO [OrderEntryApplication.java:112] - fromApp:8=FIX.4.2|9=145|35=8|34=2|49=EXEC|52=20231124-12:24:47.008|56=BANZAI|6=0|11=1700828686992|14=0|17=0|20=0|37=1700828686992|38=100|39=0|54=1|55=AAPL|150=0|151=100|10=199|
2023-11-24 14:24:56,950 INFO [OrderEntryApplication.java:100] - toApp:8=FIX.4.2|9=130|35=D|34=3|49=BANZAI|52=20231124-12:24:56.950|56=EXEC|11=1700828696952|21=1|38=100|40=1|54=2|55=AAPL|59=0|60=20231124-12:24:56.950|10=108|
2023-11-24 14:24:56,952 INFO [OrderEntryApplication.java:112] - fromApp:8=FIX.4.2|9=145|35=8|34=3|49=EXEC|52=20231124-12:24:56.951|56=BANZAI|6=0|11=1700828696952|14=0|17=1|20=0|37=1700828696952|38=100|39=0|54=2|55=AAPL|150=0|151=100|10=203|
2023-11-24 14:24:56,960 INFO [OrderEntryApplication.java:112] - fromApp:8=FIX.4.2|9=157|35=8|34=4|49=EXEC|52=20231124-12:24:56.952|56=BANZAI|6=0|11=1700828696952|14=100|17=2|20=0|31=0|32=100|37=1700828696952|38=100|39=2|54=2|55=AAPL|150=2|151=0|10=219|
2023-11-24 14:24:56,961 INFO [OrderEntryApplication.java:112] - fromApp:8=FIX.4.2|9=157|35=8|34=5|49=EXEC|52=20231124-12:24:56.960|56=BANZAI|6=0|11=1700828686992|14=100|17=3|20=0|31=0|32=100|37=1700828686992|38=100|39=2|54=1|55=AAPL|150=2|151=0|10=225|
2023-11-24 14:25:27,150 INFO [OrderEntryApplication.java:106] - fromAdmin:8=FIX.4.2|9=53|35=0|34=6|49=EXEC|52=20231124-12:25:27.149|56=BANZAI|10=177|
2023-11-24 14:25:27,151 INFO [OrderEntryApplication.java:94] - toAdmin:8=FIX.4.2|9=53|35=0|34=4|49=BANZAI|52=20231124-12:25:27.151|56=EXEC|10=168|
2023-11-24 14:25:57,154 INFO [OrderEntryApplication.java:106] - fromAdmin:8=FIX.4.2|9=53|35=0|34=7|49=EXEC|52=20231124-12:25:57.153|56=BANZAI|10=176|
2023-11-24 14:25:57,154 INFO [OrderEntryApplication.java:94] - toAdmin:8=FIX.4.2|9=53|35=0|34=5|49=BANZAI|52=20231124-12:25:57.154|56=EXEC|10=175|
2023-11-24 14:26:10,487 INFO [DefaultSessionSchedule.java:87] - [FIX.4.2:EXEC->BANZAI] daily, 00:00:00-UTC - 00:00:00-UTC
2023-11-24 14:26:10,499 INFO [SessionConnector.java:319] - SessionTimer started
2023-11-24 14:26:10,556 INFO [NetworkingOptions.java:117] - Socket option: SocketTcpNoDelay=true
2023-11-24 14:26:10,556 INFO [NetworkingOptions.java:117] - Socket option: SocketSynchronousWrites=false
2023-11-24 14:26:10,557 INFO [NetworkingOptions.java:117] - Socket option: SocketSynchronousWriteTimeout=30000
2023-11-24 14:26:10,563 INFO [AbstractSocketAcceptor.java:118] - Listening for connections at 0.0.0.0/0.0.0.0:9878 for session(s) [FIX.4.2:EXEC->BANZAI]
2023-11-24 14:26:10,564 INFO [SingleThreadedEventHandlingStrategy.java:144] - Started QFJ Message Processor
2023-11-24 14:26:13,653 INFO [AcceptorIoHandler.java:58] - MINA session created: local=/127.0.0.1:9878, class org.apache.mina.transport.socket.nio.NioSocketSession, remote=/127.0.0.1:64452
2023-11-24 14:26:13,695 INFO [OrderEntryApplication.java:94] - toAdmin:8=FIX.4.2|9=65|35=A|34=6|49=BANZAI|52=20231124-12:26:13.695|56=EXEC|98=0|108=30|10=224|
2023-11-24 14:26:13,728 INFO [OrderEntryApplication.java:106] - fromAdmin:8=FIX.4.2|9=65|35=A|34=8|49=EXEC|52=20231124-12:26:13.712|56=BANZAI|98=0|108=30|10=216|
2023-11-24 14:26:15,149 INFO [OrderEntryApplication.java:100] - toApp:8=FIX.4.2|9=130|35=D|34=7|49=BANZAI|52=20231124-12:26:15.148|56=EXEC|11=1700828775151|21=1|38=100|40=1|54=2|55=AAPL|59=0|60=20231124-12:26:15.148|10=093|
2023-11-24 14:26:15,160 INFO [OrderEntryApplication.java:112] - fromApp:8=FIX.4.2|9=145|35=8|34=9|49=EXEC|52=20231124-12:26:15.159|56=BANZAI|6=0|11=1700828775151|14=0|17=0|20=0|37=1700828775151|38=100|39=0|54=2|55=AAPL|150=0|151=100|10=183|
2023-11-24 14:26:45,515 INFO [OrderEntryApplication.java:106] - fromAdmin:8=FIX.4.2|9=54|35=0|34=10|49=EXEC|52=20231124-12:26:45.514|56=BANZAI|10=218|
2023-11-24 14:26:45,515 INFO [OrderEntryApplication.java:94] - toAdmin:8=FIX.4.2|9=53|35=0|34=8|49=BANZAI|52=20231124-12:26:45.515|56=EXEC|10=177|
2023-11-24 14:26:48,452 INFO [DefaultSessionSchedule.java:87] - [FIX.4.2:EXEC->BANZAI] daily, 00:00:00-UTC - 00:00:00-UTC
2023-11-24 14:26:48,464 INFO [SessionConnector.java:319] - SessionTimer started
2023-11-24 14:26:48,520 INFO [NetworkingOptions.java:117] - Socket option: SocketTcpNoDelay=true
2023-11-24 14:26:48,520 INFO [NetworkingOptions.java:117] - Socket option: SocketSynchronousWrites=false
2023-11-24 14:26:48,520 INFO [NetworkingOptions.java:117] - Socket option: SocketSynchronousWriteTimeout=30000
2023-11-24 14:26:48,527 INFO [AbstractSocketAcceptor.java:118] - Listening for connections at 0.0.0.0/0.0.0.0:9878 for session(s) [FIX.4.2:EXEC->BANZAI]
2023-11-24 14:26:48,528 INFO [SingleThreadedEventHandlingStrategy.java:144] - Started QFJ Message Processor
2023-11-24 14:26:52,018 INFO [AcceptorIoHandler.java:58] - MINA session created: local=/127.0.0.1:9878, class org.apache.mina.transport.socket.nio.NioSocketSession, remote=/127.0.0.1:64458
2023-11-24 14:26:52,699 INFO [OrderEntryApplication.java:94] - toAdmin:8=FIX.4.2|9=65|35=A|34=9|49=BANZAI|52=20231124-12:26:52.699|56=EXEC|98=0|108=30|10=234|
2023-11-24 14:26:52,723 INFO [OrderEntryApplication.java:106] - fromAdmin:8=FIX.4.2|9=66|35=A|34=11|49=EXEC|52=20231124-12:26:52.707|56=BANZAI|98=0|108=30|10=010|
2023-11-24 14:26:55,457 INFO [OrderEntryApplication.java:100] - toApp:8=FIX.4.2|9=131|35=D|34=10|49=BANZAI|52=20231124-12:26:55.456|56=EXEC|11=1700828815460|21=1|38=100|40=1|54=2|55=AAPL|59=0|60=20231124-12:26:55.456|10=146|
2023-11-24 14:26:55,467 INFO [OrderEntryApplication.java:112] - fromApp:8=FIX.4.2|9=146|35=8|34=12|49=EXEC|52=20231124-12:26:55.466|56=BANZAI|6=0|11=1700828815460|14=0|17=0|20=0|37=1700828815460|38=100|39=0|54=2|55=AAPL|150=0|151=100|10=227|
2023-11-24 14:27:25,478 INFO [OrderEntryApplication.java:106] - fromAdmin:8=FIX.4.2|9=54|35=0|34=13|49=EXEC|52=20231124-12:27:25.477|56=BANZAI|10=228|
2023-11-24 14:27:25,479 INFO [OrderEntryApplication.java:94] - toAdmin:8=FIX.4.2|9=54|35=0|34=11|49=BANZAI|52=20231124-12:27:25.479|56=EXEC|10=228|
2023-11-24 14:27:33,329 INFO [OrderEntryApplication.java:100] - toApp:8=FIX.4.2|9=131|35=D|34=12|49=BANZAI|52=20231124-12:27:33.328|56=EXEC|11=1700828853333|21=1|38=100|40=1|54=1|55=AAPL|59=0|60=20231124-12:27:33.328|10=138|
2023-11-24 14:27:33,330 INFO [OrderEntryApplication.java:112] - fromApp:8=FIX.4.2|9=146|35=8|34=14|49=EXEC|52=20231124-12:27:33.330|56=BANZAI|6=0|11=1700828853333|14=0|17=1|20=0|37=1700828853333|38=100|39=0|54=1|55=AAPL|150=0|151=100|10=218|
2023-11-24 14:27:33,331 INFO [OrderEntryApplication.java:112] - fromApp:8=FIX.4.2|9=158|35=8|34=15|49=EXEC|52=20231124-12:27:33.330|56=BANZAI|6=0|11=1700828815460|14=100|17=2|20=0|31=0|32=100|37=1700828815460|38=100|39=2|54=2|55=AAPL|150=2|151=0|10=232|
2023-11-24 14:27:33,331 INFO [OrderEntryApplication.java:112] - fromApp:8=FIX.4.2|9=158|35=8|34=16|49=EXEC|52=20231124-12:27:33.330|56=BANZAI|6=0|11=1700828853333|14=100|17=3|20=0|31=0|32=100|37=1700828853333|38=100|39=2|54=1|55=AAPL|150=2|151=0|10=235|
2023-11-24 14:27:52,566 INFO [OrderEntryApplication.java:100] - toApp:8=FIX.4.2|9=131|35=D|34=13|49=BANZAI|52=20231124-12:27:52.566|56=EXEC|11=1700828872572|21=1|38=100|40=1|54=1|55=AAPL|59=0|60=20231124-12:27:52.566|10=155|
2023-11-24 14:27:52,568 INFO [OrderEntryApplication.java:112] - fromApp:8=FIX.4.2|9=146|35=8|34=17|49=EXEC|52=20231124-12:27:52.567|56=BANZAI|6=0|11=1700828872572|14=0|17=4|20=0|37=1700828872572|38=100|39=0|54=1|55=AAPL|150=0|151=100|10=249|
2023-11-24 14:28:06,832 INFO [OrderEntryApplication.java:100] - toApp:8=FIX.4.2|9=131|35=D|34=14|49=BANZAI|52=20231124-12:28:06.832|56=EXEC|11=1700828886839|21=1|38=100|40=1|54=2|55=AAPL|59=0|60=20231124-12:28:06.832|10=160|
2023-11-24 14:28:06,835 INFO [OrderEntryApplication.java:112] - fromApp:8=FIX.4.2|9=146|35=8|34=18|49=EXEC|52=20231124-12:28:06.834|56=BANZAI|6=0|11=1700828886839|14=0|17=5|20=0|37=1700828886839|38=100|39=0|54=2|55=AAPL|150=0|151=100|10=015|
2023-11-24 14:28:06,835 INFO [OrderEntryApplication.java:112] - fromApp:8=FIX.4.2|9=158|35=8|34=19|49=EXEC|52=20231124-12:28:06.834|56=BANZAI|6=0|11=1700828886839|14=100|17=6|20=0|31=0|32=100|37=1700828886839|38=100|39=2|54=2|55=AAPL|150=2|151=0|10=030|
2023-11-24 14:28:06,835 INFO [OrderEntryApplication.java:112] - fromApp:8=FIX.4.2|9=158|35=8|34=20|49=EXEC|52=20231124-12:28:06.835|56=BANZAI|6=0|11=1700828872572|14=100|17=7|20=0|31=0|32=100|37=1700828872572|38=100|39=2|54=1|55=AAPL|150=2|151=0|10=001|
