2023-11-23 19:36:16,348 INFO [DefaultSessionSchedule.java:87] - [FIX.4.2:EXEC->BANZAI] daily, 00:00:00-UTC - 00:00:00-UTC
2023-11-23 19:36:16,360 INFO [SessionConnector.java:319] - SessionTimer started
2023-11-23 19:36:16,412 INFO [NetworkingOptions.java:117] - Socket option: SocketTcpNoDelay=true
2023-11-23 19:36:16,412 INFO [NetworkingOptions.java:117] - Socket option: SocketSynchronousWrites=false
2023-11-23 19:36:16,412 INFO [NetworkingOptions.java:117] - Socket option: SocketSynchronousWriteTimeout=30000
2023-11-23 19:36:16,421 INFO [AbstractSocketAcceptor.java:118] - Listening for connections at 0.0.0.0/0.0.0.0:9878 for session(s) [FIX.4.2:EXEC->BANZAI]
2023-11-23 19:36:16,422 INFO [SingleThreadedEventHandlingStrategy.java:144] - Started QFJ Message Processor
2023-11-23 19:36:22,326 INFO [Banzai.java:102] - initiating Banzai!
2023-11-23 19:36:23,159 INFO [Banzai.java:104] - Banzai initiated.
2023-11-23 19:36:23,212 INFO [DefaultSessionSchedule.java:87] - [FIX.4.2:BANZAI->EXEC] daily, 00:00:00-UTC - 00:00:00-UTC
2023-11-23 19:36:23,230 INFO [NetworkingOptions.java:117] - Socket option: SocketTcpNoDelay=true
2023-11-23 19:36:23,231 INFO [NetworkingOptions.java:117] - Socket option: SocketSynchronousWrites=false
2023-11-23 19:36:23,231 INFO [NetworkingOptions.java:117] - Socket option: SocketSynchronousWriteTimeout=30000
2023-11-23 19:36:23,288 INFO [SessionConnector.java:319] - SessionTimer started
2023-11-23 19:36:23,288 INFO [SingleThreadedEventHandlingStrategy.java:144] - Started QFJ Message Processor
2023-11-23 19:36:23,292 INFO [AcceptorIoHandler.java:58] - MINA session created: local=/127.0.0.1:9878, class org.apache.mina.transport.socket.nio.NioSocketSession, remote=/127.0.0.1:61249
2023-11-23 19:36:24,312 INFO [BanzaiApplication.java:94] - toAdmin:8=FIX.4.2|9=65|35=A|34=1|49=BANZAI|52=20231123-17:36:24.298|56=EXEC|98=0|108=30|10=225|
2023-11-23 19:36:24,339 INFO [BanzaiApplication.java:106] - fromAdmin:8=FIX.4.2|9=65|35=A|34=1|49=EXEC|52=20231123-17:36:24.322|56=BANZAI|98=0|108=30|10=213|
2023-11-23 19:36:33,141 INFO [BanzaiApplication.java:100] - toApp:8=FIX.4.2|9=130|35=D|34=2|49=BANZAI|52=20231123-17:36:33.141|56=EXEC|11=1700760993137|21=1|38=100|40=1|54=1|55=AAPL|59=0|60=20231123-17:36:33.140|10=083|
2023-11-23 19:36:33,156 INFO [BanzaiApplication.java:112] - fromApp:8=FIX.4.2|9=145|35=8|34=2|49=EXEC|52=20231123-17:36:33.153|56=BANZAI|6=0|11=1700760993137|14=0|17=0|20=0|37=1700760993137|38=100|39=0|54=1|55=AAPL|150=0|151=100|10=176|
2023-11-23 19:36:39,442 INFO [BanzaiApplication.java:100] - toApp:8=FIX.4.2|9=130|35=D|34=3|49=BANZAI|52=20231123-17:36:39.442|56=EXEC|11=1700760999444|21=1|38=100|40=1|54=2|55=AAPL|59=0|60=20231123-17:36:39.442|10=113|
2023-11-23 19:36:39,444 INFO [BanzaiApplication.java:112] - fromApp:8=FIX.4.2|9=145|35=8|34=3|49=EXEC|52=20231123-17:36:39.443|56=BANZAI|6=0|11=1700760999444|14=0|17=1|20=0|37=1700760999444|38=100|39=0|54=2|55=AAPL|150=0|151=100|10=201|
2023-11-23 19:36:39,453 INFO [BanzaiApplication.java:112] - fromApp:8=FIX.4.2|9=157|35=8|34=4|49=EXEC|52=20231123-17:36:39.444|56=BANZAI|6=0|11=1700760999444|14=100|17=2|20=0|31=0|32=100|37=1700760999444|38=100|39=2|54=2|55=AAPL|150=2|151=0|10=217|
2023-11-23 19:36:39,454 INFO [BanzaiApplication.java:112] - fromApp:8=FIX.4.2|9=157|35=8|34=5|49=EXEC|52=20231123-17:36:39.453|56=BANZAI|6=0|11=1700760993137|14=100|17=3|20=0|31=0|32=100|37=1700760993137|38=100|39=2|54=1|55=AAPL|150=2|151=0|10=204|
2023-11-23 19:36:44,619 INFO [BanzaiApplication.java:100] - toApp:8=FIX.4.2|9=130|35=D|34=4|49=BANZAI|52=20231123-17:36:44.618|56=EXEC|11=1700761004621|21=1|38=100|40=1|54=2|55=AAPL|59=0|60=20231123-17:36:44.618|10=091|
2023-11-23 19:36:44,620 INFO [BanzaiApplication.java:112] - fromApp:8=FIX.4.2|9=145|35=8|34=6|49=EXEC|52=20231123-17:36:44.620|56=BANZAI|6=0|11=1700761004621|14=0|17=4|20=0|37=1700761004621|38=100|39=0|54=2|55=AAPL|150=0|151=100|10=150|
2023-11-23 19:36:50,469 INFO [BanzaiApplication.java:100] - toApp:8=FIX.4.2|9=130|35=D|34=5|49=BANZAI|52=20231123-17:36:50.469|56=EXEC|11=1700761010472|21=1|38=100|40=1|54=2|55=MSFT|59=0|60=20231123-17:36:50.468|10=122|
2023-11-23 19:36:50,471 INFO [BanzaiApplication.java:112] - fromApp:8=FIX.4.2|9=145|35=8|34=7|49=EXEC|52=20231123-17:36:50.470|56=BANZAI|6=0|11=1700761010472|14=0|17=5|20=0|37=1700761010472|38=100|39=0|54=2|55=MSFT|150=0|151=100|10=182|
2023-11-23 19:36:56,645 INFO [BanzaiApplication.java:100] - toApp:8=FIX.4.2|9=128|35=D|34=6|49=BANZAI|52=20231123-17:36:56.645|56=EXEC|11=1700761016650|21=1|38=5|40=1|54=1|55=MSFT|59=0|60=20231123-17:36:56.645|10=046|
2023-11-23 19:36:56,647 INFO [BanzaiApplication.java:112] - fromApp:8=FIX.4.2|9=141|35=8|34=8|49=EXEC|52=20231123-17:36:56.646|56=BANZAI|6=0|11=1700761016650|14=0|17=6|20=0|37=1700761016650|38=5|39=0|54=1|55=MSFT|150=0|151=5|10=014|
2023-11-23 19:36:56,647 INFO [BanzaiApplication.java:112] - fromApp:8=FIX.4.2|9=154|35=8|34=9|49=EXEC|52=20231123-17:36:56.647|56=BANZAI|6=0|11=1700761010472|14=5|17=7|20=0|31=0|32=5|37=1700761010472|38=100|39=1|54=2|55=MSFT|150=1|151=95|10=084|
2023-11-23 19:36:56,648 INFO [BanzaiApplication.java:112] - fromApp:8=FIX.4.2|9=152|35=8|34=10|49=EXEC|52=20231123-17:36:56.647|56=BANZAI|6=0|11=1700761016650|14=5|17=8|20=0|31=0|32=5|37=1700761016650|38=5|39=2|54=1|55=MSFT|150=2|151=0|10=234|
2023-11-23 19:36:58,561 INFO [BanzaiApplication.java:100] - toApp:8=FIX.4.2|9=128|35=D|34=7|49=BANZAI|52=20231123-17:36:58.561|56=EXEC|11=1700761018567|21=1|38=5|40=1|54=1|55=MSFT|59=0|60=20231123-17:36:58.561|10=054|
2023-11-23 19:36:58,563 INFO [BanzaiApplication.java:112] - fromApp:8=FIX.4.2|9=142|35=8|34=11|49=EXEC|52=20231123-17:36:58.563|56=BANZAI|6=0|11=1700761018567|14=0|17=9|20=0|37=1700761018567|38=5|39=0|54=1|55=MSFT|150=0|151=5|10=078|
2023-11-23 19:36:58,564 INFO [BanzaiApplication.java:112] - fromApp:8=FIX.4.2|9=157|35=8|34=12|49=EXEC|52=20231123-17:36:58.563|56=BANZAI|6=0|11=1700761010472|14=10|17=10|20=0|31=0|32=5|37=1700761010472|38=100|39=1|54=2|55=MSFT|150=1|151=90|10=209|
2023-11-23 19:36:58,564 INFO [BanzaiApplication.java:112] - fromApp:8=FIX.4.2|9=153|35=8|34=13|49=EXEC|52=20231123-17:36:58.563|56=BANZAI|6=0|11=1700761018567|14=5|17=11|20=0|31=0|32=5|37=1700761018567|38=5|39=2|54=1|55=MSFT|150=2|151=0|10=041|
2023-11-23 19:36:59,070 INFO [BanzaiApplication.java:100] - toApp:8=FIX.4.2|9=128|35=D|34=8|49=BANZAI|52=20231123-17:36:59.070|56=EXEC|11=1700761019076|21=1|38=5|40=1|54=1|55=MSFT|59=0|60=20231123-17:36:59.069|10=051|
2023-11-23 19:36:59,072 INFO [BanzaiApplication.java:112] - fromApp:8=FIX.4.2|9=143|35=8|34=14|49=EXEC|52=20231123-17:36:59.071|56=BANZAI|6=0|11=1700761019076|14=0|17=12|20=0|37=1700761019076|38=5|39=0|54=1|55=MSFT|150=0|151=5|10=111|
2023-11-23 19:36:59,072 INFO [BanzaiApplication.java:112] - fromApp:8=FIX.4.2|9=157|35=8|34=15|49=EXEC|52=20231123-17:36:59.071|56=BANZAI|6=0|11=1700761010472|14=15|17=13|20=0|31=0|32=5|37=1700761010472|38=100|39=1|54=2|55=MSFT|150=1|151=85|10=219|
2023-11-23 19:36:59,072 INFO [BanzaiApplication.java:112] - fromApp:8=FIX.4.2|9=153|35=8|34=16|49=EXEC|52=20231123-17:36:59.071|56=BANZAI|6=0|11=1700761019076|14=5|17=14|20=0|31=0|32=5|37=1700761019076|38=5|39=2|54=1|55=MSFT|150=2|151=0|10=034|
2023-11-23 19:36:59,477 INFO [BanzaiApplication.java:100] - toApp:8=FIX.4.2|9=128|35=D|34=9|49=BANZAI|52=20231123-17:36:59.477|56=EXEC|11=1700761019485|21=1|38=5|40=1|54=1|55=MSFT|59=0|60=20231123-17:36:59.477|10=070|
2023-11-23 19:36:59,479 INFO [BanzaiApplication.java:112] - fromApp:8=FIX.4.2|9=143|35=8|34=17|49=EXEC|52=20231123-17:36:59.478|56=BANZAI|6=0|11=1700761019485|14=0|17=15|20=0|37=1700761019485|38=5|39=0|54=1|55=MSFT|150=0|151=5|10=136|
2023-11-23 19:36:59,479 INFO [BanzaiApplication.java:112] - fromApp:8=FIX.4.2|9=157|35=8|34=18|49=EXEC|52=20231123-17:36:59.479|56=BANZAI|6=0|11=1700761010472|14=20|17=16|20=0|31=0|32=5|37=1700761010472|38=100|39=1|54=2|55=MSFT|150=1|151=80|10=228|
2023-11-23 19:36:59,480 INFO [BanzaiApplication.java:112] - fromApp:8=FIX.4.2|9=153|35=8|34=19|49=EXEC|52=20231123-17:36:59.479|56=BANZAI|6=0|11=1700761019485|14=5|17=17|20=0|31=0|32=5|37=1700761019485|38=5|39=2|54=1|55=MSFT|150=2|151=0|10=060|
