2023-12-28 23:59:28,013 INFO [OrderEntryApplication.java:78] - fromAdmin:8=FIX.4.2|9=62|35=0|34=125|49=ENGINE|52=20231228-21:59:28.012|56=ORDERENTRY1|10=048|
2023-12-28 23:59:28,014 INFO [OrderEntryApplication.java:68] - toAdmin:8=FIX.4.2|9=61|35=0|34=72|49=ORDERENTRY1|52=20231228-21:59:28.014|56=ENGINE|10=002|
