2023-12-26 19:38:00,509 INFO [OrderEntryApplication.java:74] - toApp:8=FIX.4.2|9=157|35=G|34=212|49=ORDERENTRY1|52=20231226-17:38:00.509|56=ENGINE|11=2023122619380035|21=1|38=110|40=1|41=2023122618010513|54=1|55=AMZN|60=20231226-17:38:00.509|10=125|
2023-12-26 19:38:00,520 INFO [OrderEntryApplication.java:79] - fromAdmin:8=FIX.4.2|9=139|35=3|34=245|49=ENGINE|52=20231226-17:38:00.518|56=ORDERENTRY1|45=212|58=Tag not defined for this message type, field=38|371=38|372=G|373=2|10=095|
2023-12-26 19:38:15,712 INFO [OrderEntryApplication.java:74] - toApp:8=FIX.4.2|9=157|35=G|34=213|49=ORDERENTRY1|52=20231226-17:38:15.711|56=ENGINE|11=2023122619381537|21=1|38=123|40=1|41=2023122618010513|54=1|55=AMZN|60=20231226-17:38:15.711|10=140|
2023-12-26 19:38:15,722 INFO [OrderEntryApplication.java:79] - fromAdmin:8=FIX.4.2|9=139|35=3|34=246|49=ENGINE|52=20231226-17:38:15.722|56=ORDERENTRY1|45=213|58=Tag not defined for this message type, field=38|371=38|372=G|373=2|10=100|
2023-12-26 19:38:38,574 INFO [OrderEntryApplication.java:79] - fromAdmin:8=FIX.4.2|9=71|35=1|34=247|49=ENGINE|52=20231226-17:38:38.573|56=ORDERENTRY1|112=TEST|10=085|
2023-12-26 19:38:38,574 INFO [OrderEntryApplication.java:69] - toAdmin:8=FIX.4.2|9=71|35=0|34=214|49=ORDERENTRY1|52=20231226-17:38:38.574|56=ENGINE|112=TEST|10=079|
